{
  "_format": "hh-sol-artifact-1",
  "contractName": "HyperCoinDAO",
  "sourceName": "contracts/HyperCoinDAO.sol",
  "abi": [
    {
      "inputs": [
        {
          "internalType": "address",
          "name": "initialOwner",
          "type": "address"
        }
      ],
      "stateMutability": "nonpayable",
      "type": "constructor"
    },
    {
      "anonymous": false,
      "inputs": [
        {
          "indexed": true,
          "internalType": "address",
          "name": "previousOwner",
          "type": "address"
        },
        {
          "indexed": true,
          "internalType": "address",
          "name": "newOwner",
          "type": "address"
        }
      ],
      "name": "OwnershipTransferred",
      "type": "event"
    },
    {
      "inputs": [
        {
          "internalType": "address",
          "name": "member",
          "type": "address"
        }
      ],
      "name": "addMember",
      "outputs": [],
      "stateMutability": "nonpayable",
      "type": "function"
    },
    {
      "inputs": [
        {
          "internalType": "address",
          "name": "",
          "type": "address"
        }
      ],
      "name": "members",
      "outputs": [
        {
          "internalType": "bool",
          "name": "",
          "type": "bool"
        }
      ],
      "stateMutability": "view",
      "type": "function"
    },
    {
      "inputs": [],
      "name": "owner",
      "outputs": [
        {
          "internalType": "address",
          "name": "",
          "type": "address"
        }
      ],
      "stateMutability": "view",
      "type": "function"
    },
    {
      "inputs": [
        {
          "internalType": "address",
          "name": "member",
          "type": "address"
        }
      ],
      "name": "removeMember",
      "outputs": [],
      "stateMutability": "nonpayable",
      "type": "function"
    },
    {
      "inputs": [],
      "name": "renounceOwnership",
      "outputs": [],
      "stateMutability": "nonpayable",
      "type": "function"
    },
    {
      "inputs": [
        {
          "internalType": "address",
          "name": "newOwner",
          "type": "address"
        }
      ],
      "name": "transferOwnership",
      "outputs": [],
      "stateMutability": "nonpayable",
      "type": "function"
    },
    {
      "inputs": [
        {
          "internalType": "address",
          "name": "proposal",
          "type": "address"
        }
      ],
      "name": "vote",
      "outputs": [],
      "stateMutability": "nonpayable",
      "type": "function"
    },
    {
      "inputs": [
        {
          "internalType": "address",
          "name": "",
          "type": "address"
        }
      ],
      "name": "votes",
      "outputs": [
        {
          "internalType": "uint256",
          "name": "",
          "type": "uint256"
        }
      ],
      "stateMutability": "view",
      "type": "function"
    }
  ],
  "bytecode": "0x608060405234801561001057600080fd5b50604051610a8a380380610a8a83398181016040528101906100329190610192565b61004e61004361006360201b60201c565b61006b60201b60201c565b61005d8161006b60201b60201c565b506101bf565b600033905090565b60008060009054906101000a900473ffffffffffffffffffffffffffffffffffffffff169050816000806101000a81548173ffffffffffffffffffffffffffffffffffffffff021916908373ffffffffffffffffffffffffffffffffffffffff1602179055508173ffffffffffffffffffffffffffffffffffffffff168173ffffffffffffffffffffffffffffffffffffffff167f8be0079c531659141344cd1fd0a4f28419497f9722a3daafe3b4186f6b6457e060405160405180910390a35050565b600080fd5b600073ffffffffffffffffffffffffffffffffffffffff82169050919050565b600061015f82610134565b9050919050565b61016f81610154565b811461017a57600080fd5b50565b60008151905061018c81610166565b92915050565b6000602082840312156101a8576101a761012f565b5b60006101b68482850161017d565b91505092915050565b6108bc806101ce6000396000f3fe608060405234801561001057600080fd5b50600436106100885760003560e01c80638da5cb5b1161005b5780638da5cb5b146100ff578063ca6d56dc1461011d578063d8bff5a514610139578063f2fde38b1461016957610088565b806308ae4b0c1461008d5780630b1ca49a146100bd5780636dd7d8ea146100d9578063715018a6146100f5575b600080fd5b6100a760048036038101906100a291906105d3565b610185565b6040516100b4919061061b565b60405180910390f35b6100d760048036038101906100d291906105d3565b6101a5565b005b6100f360048036038101906100ee91906105d3565b610208565b005b6100fd6102ec565b005b610107610300565b6040516101149190610645565b60405180910390f35b610137600480360381019061013291906105d3565b610329565b005b610153600480360381019061014e91906105d3565b61038b565b6040516101609190610679565b60405180910390f35b610183600480360381019061017e91906105d3565b6103a3565b005b60016020528060005260406000206000915054906101000a900460ff1681565b6101ad610426565b6000600160008373ffffffffffffffffffffffffffffffffffffffff1673ffffffffffffffffffffffffffffffffffffffff16815260200190815260200160002060006101000a81548160ff02191690831515021790555050565b600160003373ffffffffffffffffffffffffffffffffffffffff1673ffffffffffffffffffffffffffffffffffffffff16815260200190815260200160002060009054906101000a900460ff16610294576040517f08c379a000000000000000000000000000000000000000000000000000000000815260040161028b906106f1565b60405180910390fd5b600260008273ffffffffffffffffffffffffffffffffffffffff1673ffffffffffffffffffffffffffffffffffffffff16815260200190815260200160002060008154809291906102e490610740565b919050555050565b6102f4610426565b6102fe60006104a4565b565b60008060009054906101000a900473ffffffffffffffffffffffffffffffffffffffff16905090565b610331610426565b60018060008373ffffffffffffffffffffffffffffffffffffffff1673ffffffffffffffffffffffffffffffffffffffff16815260200190815260200160002060006101000a81548160ff02191690831515021790555050565b60026020528060005260406000206000915090505481565b6103ab610426565b600073ffffffffffffffffffffffffffffffffffffffff168173ffffffffffffffffffffffffffffffffffffffff160361041a576040517f08c379a0000000000000000000000000000000000000000000000000000000008152600401610411906107fa565b60405180910390fd5b610423816104a4565b50565b61042e610568565b73ffffffffffffffffffffffffffffffffffffffff1661044c610300565b73ffffffffffffffffffffffffffffffffffffffff16146104a2576040517f08c379a000000000000000000000000000000000000000000000000000000000815260040161049990610866565b60405180910390fd5b565b60008060009054906101000a900473ffffffffffffffffffffffffffffffffffffffff169050816000806101000a81548173ffffffffffffffffffffffffffffffffffffffff021916908373ffffffffffffffffffffffffffffffffffffffff1602179055508173ffffffffffffffffffffffffffffffffffffffff168173ffffffffffffffffffffffffffffffffffffffff167f8be0079c531659141344cd1fd0a4f28419497f9722a3daafe3b4186f6b6457e060405160405180910390a35050565b600033905090565b600080fd5b600073ffffffffffffffffffffffffffffffffffffffff82169050919050565b60006105a082610575565b9050919050565b6105b081610595565b81146105bb57600080fd5b50565b6000813590506105cd816105a7565b92915050565b6000602082840312156105e9576105e8610570565b5b60006105f7848285016105be565b91505092915050565b60008115159050919050565b61061581610600565b82525050565b6000602082019050610630600083018461060c565b92915050565b61063f81610595565b82525050565b600060208201905061065a6000830184610636565b92915050565b6000819050919050565b61067381610660565b82525050565b600060208201905061068e600083018461066a565b92915050565b600082825260208201905092915050565b7f4e6f7420612044414f206d656d62657200000000000000000000000000000000600082015250565b60006106db601083610694565b91506106e6826106a5565b602082019050919050565b6000602082019050818103600083015261070a816106ce565b9050919050565b7f4e487b7100000000000000000000000000000000000000000000000000000000600052601160045260246000fd5b600061074b82610660565b91507fffffffffffffffffffffffffffffffffffffffffffffffffffffffffffffffff820361077d5761077c610711565b5b600182019050919050565b7f4f776e61626c653a206e6577206f776e657220697320746865207a65726f206160008201527f6464726573730000000000000000000000000000000000000000000000000000602082015250565b60006107e4602683610694565b91506107ef82610788565b604082019050919050565b60006020820190508181036000830152610813816107d7565b9050919050565b7f4f776e61626c653a2063616c6c6572206973206e6f7420746865206f776e6572600082015250565b6000610850602083610694565b915061085b8261081a565b602082019050919050565b6000602082019050818103600083015261087f81610843565b905091905056fea2646970667358221220778119d76f467f04802b3383a0ef8d9da72d17b8c0b5959fe17ce0b41bcbd04864736f6c63430008140033",
  "linkReferences": {},
  "deployedLinkReferences": {}
}