{
  "_format": "hh-sol-artifact-1",
  "contractName": "InTax",
  "sourceName": "contracts/InTax.sol",
  "abi": [
    {
      "inputs": [
        {
          "internalType": "address",
          "name": "_hyperCoin",
          "type": "address"
        }
      ],
      "stateMutability": "nonpayable",
      "type": "constructor"
    },
    {
      "inputs": [],
      "name": "approvedSpender",
      "outputs": [
        {
          "internalType": "address",
          "name": "",
          "type": "address"
        }
      ],
      "stateMutability": "view",
      "type": "function"
    },
    {
      "inputs": [],
      "name": "hyperCoin",
      "outputs": [
        {
          "internalType": "address",
          "name": "",
          "type": "address"
        }
      ],
      "stateMutability": "view",
      "type": "function"
    },
    {
      "inputs": [
        {
          "internalType": "uint256",
          "name": "spendAmount",
          "type": "uint256"
        }
      ],
      "name": "triggerMint",
      "outputs": [],
      "stateMutability": "nonpayable",
      "type": "function"
    }
  ],
  "bytecode": "0x608060405234801561001057600080fd5b506040516106d43803806106d48339818101604052810190610032919061011c565b806000806101000a81548173ffffffffffffffffffffffffffffffffffffffff021916908373ffffffffffffffffffffffffffffffffffffffff16021790555033600160006101000a81548173ffffffffffffffffffffffffffffffffffffffff021916908373ffffffffffffffffffffffffffffffffffffffff16021790555050610149565b600080fd5b600073ffffffffffffffffffffffffffffffffffffffff82169050919050565b60006100e9826100be565b9050919050565b6100f9816100de565b811461010457600080fd5b50565b600081519050610116816100f0565b92915050565b600060208284031215610132576101316100b9565b5b600061014084828501610107565b91505092915050565b61057c806101586000396000f3fe608060405234801561001057600080fd5b50600436106100415760003560e01c806311d0caeb146100465780638ef57f5e14610064578063b6ae297414610082575b600080fd5b61004e61009e565b60405161005b919061031a565b60405180910390f35b61006c6100c2565b604051610079919061031a565b60405180910390f35b61009c60048036038101906100979190610370565b6100e8565b005b60008054906101000a900473ffffffffffffffffffffffffffffffffffffffff1681565b600160009054906101000a900473ffffffffffffffffffffffffffffffffffffffff1681565b600160009054906101000a900473ffffffffffffffffffffffffffffffffffffffff1673ffffffffffffffffffffffffffffffffffffffff163373ffffffffffffffffffffffffffffffffffffffff1614610178576040517f08c379a000000000000000000000000000000000000000000000000000000000815260040161016f906103fa565b60405180910390fd5b60008060009054906101000a900473ffffffffffffffffffffffffffffffffffffffff1673ffffffffffffffffffffffffffffffffffffffff1633836040516024016101c5929190610429565b6040516020818303038152906040527f4550401c000000000000000000000000000000000000000000000000000000007bffffffffffffffffffffffffffffffffffffffffffffffffffffffff19166020820180517bffffffffffffffffffffffffffffffffffffffffffffffffffffffff838183161783525050505060405161024f91906104c3565b6000604051808303816000865af19150503d806000811461028c576040519150601f19603f3d011682016040523d82523d6000602084013e610291565b606091505b50509050806102d5576040517f08c379a00000000000000000000000000000000000000000000000000000000081526004016102cc90610526565b60405180910390fd5b5050565b600073ffffffffffffffffffffffffffffffffffffffff82169050919050565b6000610304826102d9565b9050919050565b610314816102f9565b82525050565b600060208201905061032f600083018461030b565b92915050565b600080fd5b6000819050919050565b61034d8161033a565b811461035857600080fd5b50565b60008135905061036a81610344565b92915050565b60006020828403121561038657610385610335565b5b60006103948482850161035b565b91505092915050565b600082825260208201905092915050565b7f556e617574686f72697a65640000000000000000000000000000000000000000600082015250565b60006103e4600c8361039d565b91506103ef826103ae565b602082019050919050565b60006020820190508181036000830152610413816103d7565b9050919050565b6104238161033a565b82525050565b600060408201905061043e600083018561030b565b61044b602083018461041a565b9392505050565b600081519050919050565b600081905092915050565b60005b8381101561048657808201518184015260208101905061046b565b60008484015250505050565b600061049d82610452565b6104a7818561045d565b93506104b7818560208601610468565b80840191505092915050565b60006104cf8284610492565b915081905092915050565b7f4d696e74206661696c6564000000000000000000000000000000000000000000600082015250565b6000610510600b8361039d565b915061051b826104da565b602082019050919050565b6000602082019050818103600083015261053f81610503565b905091905056fea2646970667358221220c830dfb8f115558e3b413a7ef698f4945e4ae06fbdb9d02436cc30f8f6726b7964736f6c63430008140033",
  "linkReferences": {},
  "deployedLinkReferences": {}
}