{
  "_format": "hh-sol-artifact-1",
  "contractName": "BitBond",
  "sourceName": "contracts/BitBond.sol",
  "abi": [
    {
      "inputs": [],
      "stateMutability": "nonpayable",
      "type": "constructor"
    },
    {
      "inputs": [
        {
          "internalType": "address",
          "name": "",
          "type": "address"
        }
      ],
      "name": "btcStaked",
      "outputs": [
        {
          "internalType": "uint256",
          "name": "",
          "type": "uint256"
        }
      ],
      "stateMutability": "view",
      "type": "function"
    },
    {
      "inputs": [],
      "name": "governance",
      "outputs": [
        {
          "internalType": "address",
          "name": "",
          "type": "address"
        }
      ],
      "stateMutability": "view",
      "type": "function"
    },
    {
      "inputs": [
        {
          "internalType": "address",
          "name": "borrower",
          "type": "address"
        },
        {
          "internalType": "uint256",
          "name": "loanAmount",
          "type": "uint256"
        }
      ],
      "name": "issueLoan",
      "outputs": [],
      "stateMutability": "nonpayable",
      "type": "function"
    },
    {
      "inputs": [
        {
          "internalType": "address",
          "name": "",
          "type": "address"
        }
      ],
      "name": "loansIssued",
      "outputs": [
        {
          "internalType": "uint256",
          "name": "",
          "type": "uint256"
        }
      ],
      "stateMutability": "view",
      "type": "function"
    },
    {
      "inputs": [
        {
          "internalType": "address",
          "name": "user",
          "type": "address"
        },
        {
          "internalType": "uint256",
          "name": "amount",
          "type": "uint256"
        }
      ],
      "name": "stakeBTC",
      "outputs": [],
      "stateMutability": "nonpayable",
      "type": "function"
    },
    {
      "inputs": [
        {
          "internalType": "address",
          "name": "user",
          "type": "address"
        }
      ],
      "name": "viewBondValue",
      "outputs": [
        {
          "internalType": "uint256",
          "name": "",
          "type": "uint256"
        }
      ],
      "stateMutability": "view",
      "type": "function"
    }
  ],
  "bytecode": "0x608060405234801561001057600080fd5b50336000806101000a81548173ffffffffffffffffffffffffffffffffffffffff021916908373ffffffffffffffffffffffffffffffffffffffff16021790555061062a806100606000396000f3fe608060405234801561001057600080fd5b50600436106100625760003560e01c80631895687d146100675780634a6e401e146100835780635aa6e675146100b3578063767d2c33146100d157806384076c8b146100ed578063c4742f851461011d575b600080fd5b610081600480360381019061007c9190610453565b61014d565b005b61009d60048036038101906100989190610493565b610235565b6040516100aa91906104cf565b60405180910390f35b6100bb61027e565b6040516100c891906104f9565b60405180910390f35b6100eb60048036038101906100e69190610453565b6102a2565b005b61010760048036038101906101029190610493565b61038a565b60405161011491906104cf565b60405180910390f35b61013760048036038101906101329190610493565b6103a2565b60405161014491906104cf565b60405180910390f35b60008054906101000a900473ffffffffffffffffffffffffffffffffffffffff1673ffffffffffffffffffffffffffffffffffffffff163373ffffffffffffffffffffffffffffffffffffffff16146101db576040517f08c379a00000000000000000000000000000000000000000000000000000000081526004016101d290610571565b60405180910390fd5b80600260008473ffffffffffffffffffffffffffffffffffffffff1673ffffffffffffffffffffffffffffffffffffffff168152602001908152602001600020600082825461022a91906105c0565b925050819055505050565b6000600160008373ffffffffffffffffffffffffffffffffffffffff1673ffffffffffffffffffffffffffffffffffffffff168152602001908152602001600020549050919050565b60008054906101000a900473ffffffffffffffffffffffffffffffffffffffff1681565b60008054906101000a900473ffffffffffffffffffffffffffffffffffffffff1673ffffffffffffffffffffffffffffffffffffffff163373ffffffffffffffffffffffffffffffffffffffff1614610330576040517f08c379a000000000000000000000000000000000000000000000000000000000815260040161032790610571565b60405180910390fd5b80600160008473ffffffffffffffffffffffffffffffffffffffff1673ffffffffffffffffffffffffffffffffffffffff168152602001908152602001600020600082825461037f91906105c0565b925050819055505050565b60016020528060005260406000206000915090505481565b60026020528060005260406000206000915090505481565b600080fd5b600073ffffffffffffffffffffffffffffffffffffffff82169050919050565b60006103ea826103bf565b9050919050565b6103fa816103df565b811461040557600080fd5b50565b600081359050610417816103f1565b92915050565b6000819050919050565b6104308161041d565b811461043b57600080fd5b50565b60008135905061044d81610427565b92915050565b6000806040838503121561046a576104696103ba565b5b600061047885828601610408565b92505060206104898582860161043e565b9150509250929050565b6000602082840312156104a9576104a86103ba565b5b60006104b784828501610408565b91505092915050565b6104c98161041d565b82525050565b60006020820190506104e460008301846104c0565b92915050565b6104f3816103df565b82525050565b600060208201905061050e60008301846104ea565b92915050565b600082825260208201905092915050565b7f4f6e6c7920676f7665726e616e63650000000000000000000000000000000000600082015250565b600061055b600f83610514565b915061056682610525565b602082019050919050565b6000602082019050818103600083015261058a8161054e565b9050919050565b7f4e487b7100000000000000000000000000000000000000000000000000000000600052601160045260246000fd5b60006105cb8261041d565b91506105d68361041d565b92508282019050808211156105ee576105ed610591565b5b9291505056fea2646970667358221220b0234d763c763bde8c54f04ef0b30ff9f573429220f61ef20b71d75150959cca64736f6c63430008140033",
  "linkReferences": {},
  "deployedLinkReferences": {}
}