{
  "_format": "hh-sol-artifact-1",
  "contractName": "CoinStockExchange",
  "sourceName": "contracts/CoinStockExchange.sol",
  "abi": [
    {
      "inputs": [
        {
          "internalType": "address",
          "name": "dao",
          "type": "address"
        },
        {
          "internalType": "address",
          "name": "hyperBot",
          "type": "address"
        }
      ],
      "stateMutability": "nonpayable",
      "type": "constructor"
    },
    {
      "anonymous": false,
      "inputs": [
        {
          "indexed": true,
          "internalType": "uint256",
          "name": "assetId",
          "type": "uint256"
        },
        {
          "indexed": false,
          "internalType": "uint256",
          "name": "price",
          "type": "uint256"
        }
      ],
      "name": "AssetListed",
      "type": "event"
    },
    {
      "anonymous": false,
      "inputs": [
        {
          "indexed": true,
          "internalType": "uint256",
          "name": "assetId",
          "type": "uint256"
        },
        {
          "indexed": true,
          "internalType": "address",
          "name": "owner",
          "type": "address"
        },
        {
          "indexed": false,
          "internalType": "string",
          "name": "uri",
          "type": "string"
        }
      ],
      "name": "AssetMinted",
      "type": "event"
    },
    {
      "anonymous": false,
      "inputs": [
        {
          "indexed": true,
          "internalType": "uint256",
          "name": "assetId",
          "type": "uint256"
        },
        {
          "indexed": true,
          "internalType": "address",
          "name": "buyer",
          "type": "address"
        },
        {
          "indexed": false,
          "internalType": "uint256",
          "name": "price",
          "type": "uint256"
        }
      ],
      "name": "AssetPurchased",
      "type": "event"
    },
    {
      "anonymous": false,
      "inputs": [
        {
          "indexed": true,
          "internalType": "bytes32",
          "name": "role",
          "type": "bytes32"
        },
        {
          "indexed": true,
          "internalType": "bytes32",
          "name": "previousAdminRole",
          "type": "bytes32"
        },
        {
          "indexed": true,
          "internalType": "bytes32",
          "name": "newAdminRole",
          "type": "bytes32"
        }
      ],
      "name": "RoleAdminChanged",
      "type": "event"
    },
    {
      "anonymous": false,
      "inputs": [
        {
          "indexed": true,
          "internalType": "bytes32",
          "name": "role",
          "type": "bytes32"
        },
        {
          "indexed": true,
          "internalType": "address",
          "name": "account",
          "type": "address"
        },
        {
          "indexed": true,
          "internalType": "address",
          "name": "sender",
          "type": "address"
        }
      ],
      "name": "RoleGranted",
      "type": "event"
    },
    {
      "anonymous": false,
      "inputs": [
        {
          "indexed": true,
          "internalType": "bytes32",
          "name": "role",
          "type": "bytes32"
        },
        {
          "indexed": true,
          "internalType": "address",
          "name": "account",
          "type": "address"
        },
        {
          "indexed": true,
          "internalType": "address",
          "name": "sender",
          "type": "address"
        }
      ],
      "name": "RoleRevoked",
      "type": "event"
    },
    {
      "inputs": [],
      "name": "ADMIN_ROLE",
      "outputs": [
        {
          "internalType": "bytes32",
          "name": "",
          "type": "bytes32"
        }
      ],
      "stateMutability": "view",
      "type": "function"
    },
    {
      "inputs": [],
      "name": "DAO_ROLE",
      "outputs": [
        {
          "internalType": "bytes32",
          "name": "",
          "type": "bytes32"
        }
      ],
      "stateMutability": "view",
      "type": "function"
    },
    {
      "inputs": [],
      "name": "DEFAULT_ADMIN_ROLE",
      "outputs": [
        {
          "internalType": "bytes32",
          "name": "",
          "type": "bytes32"
        }
      ],
      "stateMutability": "view",
      "type": "function"
    },
    {
      "inputs": [],
      "name": "HYPERBOT_ROLE",
      "outputs": [
        {
          "internalType": "bytes32",
          "name": "",
          "type": "bytes32"
        }
      ],
      "stateMutability": "view",
      "type": "function"
    },
    {
      "inputs": [],
      "name": "MINTER_ROLE",
      "outputs": [
        {
          "internalType": "bytes32",
          "name": "",
          "type": "bytes32"
        }
      ],
      "stateMutability": "view",
      "type": "function"
    },
    {
      "inputs": [
        {
          "internalType": "uint256",
          "name": "",
          "type": "uint256"
        }
      ],
      "name": "assets",
      "outputs": [
        {
          "internalType": "address",
          "name": "owner",
          "type": "address"
        },
        {
          "internalType": "uint256",
          "name": "price",
          "type": "uint256"
        },
        {
          "internalType": "bool",
          "name": "listed",
          "type": "bool"
        },
        {
          "internalType": "string",
          "name": "uri",
          "type": "string"
        }
      ],
      "stateMutability": "view",
      "type": "function"
    },
    {
      "inputs": [
        {
          "internalType": "uint256",
          "name": "assetId",
          "type": "uint256"
        }
      ],
      "name": "forceDelist",
      "outputs": [],
      "stateMutability": "nonpayable",
      "type": "function"
    },
    {
      "inputs": [
        {
          "internalType": "uint256",
          "name": "assetId",
          "type": "uint256"
        }
      ],
      "name": "getAsset",
      "outputs": [
        {
          "components": [
            {
              "internalType": "address",
              "name": "owner",
              "type": "address"
            },
            {
              "internalType": "uint256",
              "name": "price",
              "type": "uint256"
            },
            {
              "internalType": "bool",
              "name": "listed",
              "type": "bool"
            },
            {
              "internalType": "string",
              "name": "uri",
              "type": "string"
            }
          ],
          "internalType": "struct CoinStockExchange.Asset",
          "name": "",
          "type": "tuple"
        }
      ],
      "stateMutability": "view",
      "type": "function"
    },
    {
      "inputs": [
        {
          "internalType": "bytes32",
          "name": "role",
          "type": "bytes32"
        }
      ],
      "name": "getRoleAdmin",
      "outputs": [
        {
          "internalType": "bytes32",
          "name": "",
          "type": "bytes32"
        }
      ],
      "stateMutability": "view",
      "type": "function"
    },
    {
      "inputs": [
        {
          "internalType": "address",
          "name": "user",
          "type": "address"
        }
      ],
      "name": "grantMinter",
      "outputs": [],
      "stateMutability": "nonpayable",
      "type": "function"
    },
    {
      "inputs": [
        {
          "internalType": "bytes32",
          "name": "role",
          "type": "bytes32"
        },
        {
          "internalType": "address",
          "name": "account",
          "type": "address"
        }
      ],
      "name": "grantRole",
      "outputs": [],
      "stateMutability": "nonpayable",
      "type": "function"
    },
    {
      "inputs": [
        {
          "internalType": "bytes32",
          "name": "role",
          "type": "bytes32"
        },
        {
          "internalType": "address",
          "name": "account",
          "type": "address"
        }
      ],
      "name": "hasRole",
      "outputs": [
        {
          "internalType": "bool",
          "name": "",
          "type": "bool"
        }
      ],
      "stateMutability": "view",
      "type": "function"
    },
    {
      "inputs": [
        {
          "internalType": "string",
          "name": "uri",
          "type": "string"
        },
        {
          "internalType": "uint256",
          "name": "price",
          "type": "uint256"
        }
      ],
      "name": "mintAsset",
      "outputs": [
        {
          "internalType": "uint256",
          "name": "",
          "type": "uint256"
        }
      ],
      "stateMutability": "nonpayable",
      "type": "function"
    },
    {
      "inputs": [
        {
          "internalType": "uint256",
          "name": "assetId",
          "type": "uint256"
        }
      ],
      "name": "purchase",
      "outputs": [],
      "stateMutability": "payable",
      "type": "function"
    },
    {
      "inputs": [
        {
          "internalType": "uint256",
          "name": "assetId",
          "type": "uint256"
        },
        {
          "internalType": "uint256",
          "name": "newPrice",
          "type": "uint256"
        }
      ],
      "name": "relist",
      "outputs": [],
      "stateMutability": "nonpayable",
      "type": "function"
    },
    {
      "inputs": [
        {
          "internalType": "bytes32",
          "name": "role",
          "type": "bytes32"
        },
        {
          "internalType": "address",
          "name": "account",
          "type": "address"
        }
      ],
      "name": "renounceRole",
      "outputs": [],
      "stateMutability": "nonpayable",
      "type": "function"
    },
    {
      "inputs": [
        {
          "internalType": "address",
          "name": "user",
          "type": "address"
        }
      ],
      "name": "revokeMinter",
      "outputs": [],
      "stateMutability": "nonpayable",
      "type": "function"
    },
    {
      "inputs": [
        {
          "internalType": "bytes32",
          "name": "role",
          "type": "bytes32"
        },
        {
          "internalType": "address",
          "name": "account",
          "type": "address"
        }
      ],
      "name": "revokeRole",
      "outputs": [],
      "stateMutability": "nonpayable",
      "type": "function"
    },
    {
      "inputs": [
        {
          "internalType": "bytes4",
          "name": "interfaceId",
          "type": "bytes4"
        }
      ],
      "name": "supportsInterface",
      "outputs": [
        {
          "internalType": "bool",
          "name": "",
          "type": "bool"
        }
      ],
      "stateMutability": "view",
      "type": "function"
    },
    {
      "inputs": [
        {
          "internalType": "uint256",
          "name": "assetId",
          "type": "uint256"
        },
        {
          "internalType": "string",
          "name": "newUri",
          "type": "string"
        }
      ],
      "name": "updateAssetURI",
      "outputs": [],
      "stateMutability": "nonpayable",
      "type": "function"
    }
  ],
  "bytecode": "0x60806040523480156200001157600080fd5b50604051620029483803806200294883398181016040528101906200003791906200029b565b6200004c6000801b33620000b860201b60201c565b6200007e7f3b5d4cc60d3ec3516ee8ae083bd60934f6eb2a6c54b1229985c41bfb092b260383620000b860201b60201c565b620000b07fc26554f5cc55c6945cc31311752c695e2234279b2b755e63a89537636bd3c10b82620000b860201b60201c565b5050620002e2565b620000ca8282620000ce60201b60201c565b5050565b620000e08282620001bf60201b60201c565b620001bb57600160008084815260200190815260200160002060000160008373ffffffffffffffffffffffffffffffffffffffff1673ffffffffffffffffffffffffffffffffffffffff16815260200190815260200160002060006101000a81548160ff021916908315150217905550620001606200022960201b60201c565b73ffffffffffffffffffffffffffffffffffffffff168173ffffffffffffffffffffffffffffffffffffffff16837f2f8788117e7eff1d82e926ec794901d17c78024a50270940304540a733656f0d60405160405180910390a45b5050565b600080600084815260200190815260200160002060000160008373ffffffffffffffffffffffffffffffffffffffff1673ffffffffffffffffffffffffffffffffffffffff16815260200190815260200160002060009054906101000a900460ff16905092915050565b600033905090565b600080fd5b600073ffffffffffffffffffffffffffffffffffffffff82169050919050565b6000620002638262000236565b9050919050565b620002758162000256565b81146200028157600080fd5b50565b60008151905062000295816200026a565b92915050565b60008060408385031215620002b557620002b462000231565b5b6000620002c58582860162000284565b9250506020620002d88582860162000284565b9150509250929050565b61265680620002f26000396000f3fe60806040526004361061011f5760003560e01c8063c1b819f1116100a0578063dc0a927c11610064578063dc0a927c146103f8578063e9c2651814610421578063eac8f5b81461044c578063efef39a114610489578063fd0c74e3146104a55761011f565b8063c1b819f114610312578063cf35bdd01461033b578063cfbd48851461037b578063d5391393146103a4578063d547741f146103cf5761011f565b806375b238fc116100e757806375b238fc14610219578063872aed221461024457806391d148541461026d5780639776a643146102aa578063a217fddf146102e75761011f565b806301ffc9a714610124578063248a9ca314610161578063261707fa1461019e5780632f2ff15d146101c757806336568abe146101f0575b600080fd5b34801561013057600080fd5b5061014b6004803603810190610146919061170d565b6104d0565b6040516101589190611755565b60405180910390f35b34801561016d57600080fd5b50610188600480360381019061018391906117a6565b61054a565b60405161019591906117e2565b60405180910390f35b3480156101aa57600080fd5b506101c560048036038101906101c0919061185b565b610569565b005b3480156101d357600080fd5b506101ee60048036038101906101e99190611888565b610613565b005b3480156101fc57600080fd5b5061021760048036038101906102129190611888565b610634565b005b34801561022557600080fd5b5061022e6106b7565b60405161023b91906117e2565b60405180910390f35b34801561025057600080fd5b5061026b600480360381019061026691906118fe565b6106be565b005b34801561027957600080fd5b50610294600480360381019061028f9190611888565b61082b565b6040516102a19190611755565b60405180910390f35b3480156102b657600080fd5b506102d160048036038101906102cc9190611a84565b610895565b6040516102de9190611aef565b60405180910390f35b3480156102f357600080fd5b506102fc610a85565b60405161030991906117e2565b60405180910390f35b34801561031e57600080fd5b5061033960048036038101906103349190611b0a565b610a8c565b005b34801561034757600080fd5b50610362600480360381019061035d9190611b66565b610b31565b6040516103729493929190611c21565b60405180910390f35b34801561038757600080fd5b506103a2600480360381019061039d919061185b565b610c16565b005b3480156103b057600080fd5b506103b9610cc0565b6040516103c691906117e2565b60405180910390f35b3480156103db57600080fd5b506103f660048036038101906103f19190611888565b610ce4565b005b34801561040457600080fd5b5061041f600480360381019061041a9190611b66565b610d05565b005b34801561042d57600080fd5b50610436610db4565b60405161044391906117e2565b60405180910390f35b34801561045857600080fd5b50610473600480360381019061046e9190611b66565b610dd8565b6040516104809190611d47565b60405180910390f35b6104a3600480360381019061049e9190611b66565b610f12565b005b3480156104b157600080fd5b506104ba6110e4565b6040516104c791906117e2565b60405180910390f35b60007f7965db0b000000000000000000000000000000000000000000000000000000007bffffffffffffffffffffffffffffffffffffffffffffffffffffffff1916827bffffffffffffffffffffffffffffffffffffffffffffffffffffffff19161480610543575061054282611108565b5b9050919050565b6000806000838152602001908152602001600020600101549050919050565b6105766000801b3361082b565b806105a757506105a67f3b5d4cc60d3ec3516ee8ae083bd60934f6eb2a6c54b1229985c41bfb092b26033361082b565b5b6105e6576040517f08c379a00000000000000000000000000000000000000000000000000000000081526004016105dd90611ddb565b60405180910390fd5b6106107f9f2df0fed2c77648de5860a4cc508cd0818c85b8b8a1ab4ceeef8d981c8956a682611172565b50565b61061c8261054a565b61062581611252565b61062f8383611172565b505050565b61063c611266565b73ffffffffffffffffffffffffffffffffffffffff168173ffffffffffffffffffffffffffffffffffffffff16146106a9576040517f08c379a00000000000000000000000000000000000000000000000000000000081526004016106a090611e6d565b60405180910390fd5b6106b3828261126e565b5050565b6000801b81565b6002600083815260200190815260200160002060000160009054906101000a900473ffffffffffffffffffffffffffffffffffffffff1673ffffffffffffffffffffffffffffffffffffffff163373ffffffffffffffffffffffffffffffffffffffff1614610762576040517f08c379a000000000000000000000000000000000000000000000000000000000815260040161075990611ed9565b60405180910390fd5b600081116107a5576040517f08c379a000000000000000000000000000000000000000000000000000000000815260040161079c90611f45565b60405180910390fd5b60016002600084815260200190815260200160002060020160006101000a81548160ff021916908315150217905550806002600084815260200190815260200160002060010181905550817fc5f070c186c1b761efa79fbedff80ad25d70c5a58fd310776cea62b265d485458260405161081f9190611aef565b60405180910390a25050565b600080600084815260200190815260200160002060000160008373ffffffffffffffffffffffffffffffffffffffff1673ffffffffffffffffffffffffffffffffffffffff16815260200190815260200160002060009054906101000a900460ff16905092915050565b60007f9f2df0fed2c77648de5860a4cc508cd0818c85b8b8a1ab4ceeef8d981c8956a66108c181611252565b60008311610904576040517f08c379a00000000000000000000000000000000000000000000000000000000081526004016108fb90611fb1565b60405180910390fd5b61090e600161134f565b600061091a6001611365565b905060405180608001604052803373ffffffffffffffffffffffffffffffffffffffff168152602001858152602001600115158152602001868152506002600083815260200190815260200160002060008201518160000160006101000a81548173ffffffffffffffffffffffffffffffffffffffff021916908373ffffffffffffffffffffffffffffffffffffffff1602179055506020820151816001015560408201518160020160006101000a81548160ff02191690831515021790555060608201518160030190816109ef91906121dd565b509050503373ffffffffffffffffffffffffffffffffffffffff16817fa30dd43fc057b356acd774161b6c8743df78c9bd58d7f492dd56d00121dda6b587604051610a3a91906122af565b60405180910390a3807fc5f070c186c1b761efa79fbedff80ad25d70c5a58fd310776cea62b265d4854585604051610a729190611aef565b60405180910390a2809250505092915050565b6000801b81565b610a996000801b3361082b565b80610aca5750610ac97f3b5d4cc60d3ec3516ee8ae083bd60934f6eb2a6c54b1229985c41bfb092b26033361082b565b5b610b09576040517f08c379a0000000000000000000000000000000000000000000000000000000008152600401610b0090611ddb565b60405180910390fd5b80600260008481526020019081526020016000206003019081610b2c91906121dd565b505050565b60026020528060005260406000206000915090508060000160009054906101000a900473ffffffffffffffffffffffffffffffffffffffff16908060010154908060020160009054906101000a900460ff1690806003018054610b9390612000565b80601f0160208091040260200160405190810160405280929190818152602001828054610bbf90612000565b8015610c0c5780601f10610be157610100808354040283529160200191610c0c565b820191906000526020600020905b815481529060010190602001808311610bef57829003601f168201915b5050505050905084565b610c236000801b3361082b565b80610c545750610c537f3b5d4cc60d3ec3516ee8ae083bd60934f6eb2a6c54b1229985c41bfb092b26033361082b565b5b610c93576040517f08c379a0000000000000000000000000000000000000000000000000000000008152600401610c8a90611ddb565b60405180910390fd5b610cbd7f9f2df0fed2c77648de5860a4cc508cd0818c85b8b8a1ab4ceeef8d981c8956a68261126e565b50565b7f9f2df0fed2c77648de5860a4cc508cd0818c85b8b8a1ab4ceeef8d981c8956a681565b610ced8261054a565b610cf681611252565b610d00838361126e565b505050565b610d126000801b3361082b565b80610d435750610d427f3b5d4cc60d3ec3516ee8ae083bd60934f6eb2a6c54b1229985c41bfb092b26033361082b565b5b610d82576040517f08c379a0000000000000000000000000000000000000000000000000000000008152600401610d7990611ddb565b60405180910390fd5b60006002600083815260200190815260200160002060020160006101000a81548160ff02191690831515021790555050565b7f3b5d4cc60d3ec3516ee8ae083bd60934f6eb2a6c54b1229985c41bfb092b260381565b610de0611661565b600260008381526020019081526020016000206040518060800160405290816000820160009054906101000a900473ffffffffffffffffffffffffffffffffffffffff1673ffffffffffffffffffffffffffffffffffffffff1673ffffffffffffffffffffffffffffffffffffffff168152602001600182015481526020016002820160009054906101000a900460ff16151515158152602001600382018054610e8990612000565b80601f0160208091040260200160405190810160405280929190818152602001828054610eb590612000565b8015610f025780601f10610ed757610100808354040283529160200191610f02565b820191906000526020600020905b815481529060010190602001808311610ee557829003601f168201915b5050505050815250509050919050565b60006002600083815260200190815260200160002090508060020160009054906101000a900460ff16610f7a576040517f08c379a0000000000000000000000000000000000000000000000000000000008152600401610f719061231d565b60405180910390fd5b80600101543414610fc0576040517f08c379a0000000000000000000000000000000000000000000000000000000008152600401610fb790612389565b60405180910390fd5b60008160000160009054906101000a900473ffffffffffffffffffffffffffffffffffffffff169050338260000160006101000a81548173ffffffffffffffffffffffffffffffffffffffff021916908373ffffffffffffffffffffffffffffffffffffffff16021790555060008260020160006101000a81548160ff0219169083151502179055508073ffffffffffffffffffffffffffffffffffffffff166108fc349081150290604051600060405180830381858888f1935050505015801561108f573d6000803e3d6000fd5b503373ffffffffffffffffffffffffffffffffffffffff16837f6011b33359ac565ce9d08448bbbe206f571e89b9b656defae19749f7b834b208346040516110d79190611aef565b60405180910390a3505050565b7fc26554f5cc55c6945cc31311752c695e2234279b2b755e63a89537636bd3c10b81565b60007f01ffc9a7000000000000000000000000000000000000000000000000000000007bffffffffffffffffffffffffffffffffffffffffffffffffffffffff1916827bffffffffffffffffffffffffffffffffffffffffffffffffffffffff1916149050919050565b61117c828261082b565b61124e57600160008084815260200190815260200160002060000160008373ffffffffffffffffffffffffffffffffffffffff1673ffffffffffffffffffffffffffffffffffffffff16815260200190815260200160002060006101000a81548160ff0219169083151502179055506111f3611266565b73ffffffffffffffffffffffffffffffffffffffff168173ffffffffffffffffffffffffffffffffffffffff16837f2f8788117e7eff1d82e926ec794901d17c78024a50270940304540a733656f0d60405160405180910390a45b5050565b6112638161125e611266565b611373565b50565b600033905090565b611278828261082b565b1561134b57600080600084815260200190815260200160002060000160008373ffffffffffffffffffffffffffffffffffffffff1673ffffffffffffffffffffffffffffffffffffffff16815260200190815260200160002060006101000a81548160ff0219169083151502179055506112f0611266565b73ffffffffffffffffffffffffffffffffffffffff168173ffffffffffffffffffffffffffffffffffffffff16837ff6391f5c32d9c69d2a47ea670b442974b53935d1edc7fd64eb21e047a839171b60405160405180910390a45b5050565b6001816000016000828254019250508190555050565b600081600001549050919050565b61137d828261082b565b6113f45761138a816113f8565b6113988360001c6020611425565b6040516020016113a992919061247d565b6040516020818303038152906040526040517f08c379a00000000000000000000000000000000000000000000000000000000081526004016113eb91906122af565b60405180910390fd5b5050565b606061141e8273ffffffffffffffffffffffffffffffffffffffff16601460ff16611425565b9050919050565b60606000600283600261143891906124e6565b6114429190612528565b67ffffffffffffffff81111561145b5761145a611959565b5b6040519080825280601f01601f19166020018201604052801561148d5781602001600182028036833780820191505090505b5090507f3000000000000000000000000000000000000000000000000000000000000000816000815181106114c5576114c461255c565b5b60200101907effffffffffffffffffffffffffffffffffffffffffffffffffffffffffffff1916908160001a9053507f7800000000000000000000000000000000000000000000000000000000000000816001815181106115295761152861255c565b5b60200101907effffffffffffffffffffffffffffffffffffffffffffffffffffffffffffff1916908160001a9053506000600184600261156991906124e6565b6115739190612528565b90505b6001811115611613577f3031323334353637383961626364656600000000000000000000000000000000600f8616601081106115b5576115b461255c565b5b1a60f81b8282815181106115cc576115cb61255c565b5b60200101907effffffffffffffffffffffffffffffffffffffffffffffffffffffffffffff1916908160001a905350600485901c94508061160c9061258b565b9050611576565b5060008414611657576040517f08c379a000000000000000000000000000000000000000000000000000000000815260040161164e90612600565b60405180910390fd5b8091505092915050565b6040518060800160405280600073ffffffffffffffffffffffffffffffffffffffff16815260200160008152602001600015158152602001606081525090565b6000604051905090565b600080fd5b600080fd5b60007fffffffff0000000000000000000000000000000000000000000000000000000082169050919050565b6116ea816116b5565b81146116f557600080fd5b50565b600081359050611707816116e1565b92915050565b600060208284031215611723576117226116ab565b5b6000611731848285016116f8565b91505092915050565b60008115159050919050565b61174f8161173a565b82525050565b600060208201905061176a6000830184611746565b92915050565b6000819050919050565b61178381611770565b811461178e57600080fd5b50565b6000813590506117a08161177a565b92915050565b6000602082840312156117bc576117bb6116ab565b5b60006117ca84828501611791565b91505092915050565b6117dc81611770565b82525050565b60006020820190506117f760008301846117d3565b92915050565b600073ffffffffffffffffffffffffffffffffffffffff82169050919050565b6000611828826117fd565b9050919050565b6118388161181d565b811461184357600080fd5b50565b6000813590506118558161182f565b92915050565b600060208284031215611871576118706116ab565b5b600061187f84828501611846565b91505092915050565b6000806040838503121561189f5761189e6116ab565b5b60006118ad85828601611791565b92505060206118be85828601611846565b9150509250929050565b6000819050919050565b6118db816118c8565b81146118e657600080fd5b50565b6000813590506118f8816118d2565b92915050565b60008060408385031215611915576119146116ab565b5b6000611923858286016118e9565b9250506020611934858286016118e9565b9150509250929050565b600080fd5b600080fd5b6000601f19601f8301169050919050565b7f4e487b7100000000000000000000000000000000000000000000000000000000600052604160045260246000fd5b61199182611948565b810181811067ffffffffffffffff821117156119b0576119af611959565b5b80604052505050565b60006119c36116a1565b90506119cf8282611988565b919050565b600067ffffffffffffffff8211156119ef576119ee611959565b5b6119f882611948565b9050602081019050919050565b82818337600083830152505050565b6000611a27611a22846119d4565b6119b9565b905082815260208101848484011115611a4357611a42611943565b5b611a4e848285611a05565b509392505050565b600082601f830112611a6b57611a6a61193e565b5b8135611a7b848260208601611a14565b91505092915050565b60008060408385031215611a9b57611a9a6116ab565b5b600083013567ffffffffffffffff811115611ab957611ab86116b0565b5b611ac585828601611a56565b9250506020611ad6858286016118e9565b9150509250929050565b611ae9816118c8565b82525050565b6000602082019050611b046000830184611ae0565b92915050565b60008060408385031215611b2157611b206116ab565b5b6000611b2f858286016118e9565b925050602083013567ffffffffffffffff811115611b5057611b4f6116b0565b5b611b5c85828601611a56565b9150509250929050565b600060208284031215611b7c57611b7b6116ab565b5b6000611b8a848285016118e9565b91505092915050565b611b9c8161181d565b82525050565b600081519050919050565b600082825260208201905092915050565b60005b83811015611bdc578082015181840152602081019050611bc1565b60008484015250505050565b6000611bf382611ba2565b611bfd8185611bad565b9350611c0d818560208601611bbe565b611c1681611948565b840191505092915050565b6000608082019050611c366000830187611b93565b611c436020830186611ae0565b611c506040830185611746565b8181036060830152611c628184611be8565b905095945050505050565b611c768161181d565b82525050565b611c85816118c8565b82525050565b611c948161173a565b82525050565b600082825260208201905092915050565b6000611cb682611ba2565b611cc08185611c9a565b9350611cd0818560208601611bbe565b611cd981611948565b840191505092915050565b6000608083016000830151611cfc6000860182611c6d565b506020830151611d0f6020860182611c7c565b506040830151611d226040860182611c8b565b5060608301518482036060860152611d3a8282611cab565b9150508091505092915050565b60006020820190508181036000830152611d618184611ce4565b905092915050565b7fe29b9420556e617574686f72697a65643a2041646d696e206f722044414f206f60008201527f6e6c790000000000000000000000000000000000000000000000000000000000602082015250565b6000611dc5602383611bad565b9150611dd082611d69565b604082019050919050565b60006020820190508181036000830152611df481611db8565b9050919050565b7f416363657373436f6e74726f6c3a2063616e206f6e6c792072656e6f756e636560008201527f20726f6c657320666f722073656c660000000000000000000000000000000000602082015250565b6000611e57602f83611bad565b9150611e6282611dfb565b604082019050919050565b60006020820190508181036000830152611e8681611e4a565b9050919050565b7f4f6e6c79206f776e65722063616e2072656c6973740000000000000000000000600082015250565b6000611ec3601583611bad565b9150611ece82611e8d565b602082019050919050565b60006020820190508181036000830152611ef281611eb6565b9050919050565b7f496e76616c696420707269636500000000000000000000000000000000000000600082015250565b6000611f2f600d83611bad565b9150611f3a82611ef9565b602082019050919050565b60006020820190508181036000830152611f5e81611f22565b9050919050565b7f5072696365206d7573742062652067726561746572207468616e207a65726f00600082015250565b6000611f9b601f83611bad565b9150611fa682611f65565b602082019050919050565b60006020820190508181036000830152611fca81611f8e565b9050919050565b7f4e487b7100000000000000000000000000000000000000000000000000000000600052602260045260246000fd5b6000600282049050600182168061201857607f821691505b60208210810361202b5761202a611fd1565b5b50919050565b60008190508160005260206000209050919050565b60006020601f8301049050919050565b600082821b905092915050565b6000600883026120937fffffffffffffffffffffffffffffffffffffffffffffffffffffffffffffffff82612056565b61209d8683612056565b95508019841693508086168417925050509392505050565b6000819050919050565b60006120da6120d56120d0846118c8565b6120b5565b6118c8565b9050919050565b6000819050919050565b6120f4836120bf565b612108612100826120e1565b848454612063565b825550505050565b600090565b61211d612110565b6121288184846120eb565b505050565b5b8181101561214c57612141600082612115565b60018101905061212e565b5050565b601f8211156121915761216281612031565b61216b84612046565b8101602085101561217a578190505b61218e61218685612046565b83018261212d565b50505b505050565b600082821c905092915050565b60006121b460001984600802612196565b1980831691505092915050565b60006121cd83836121a3565b9150826002028217905092915050565b6121e682611ba2565b67ffffffffffffffff8111156121ff576121fe611959565b5b6122098254612000565b612214828285612150565b600060209050601f8311600181146122475760008415612235578287015190505b61223f85826121c1565b8655506122a7565b601f19841661225586612031565b60005b8281101561227d57848901518255600182019150602085019450602081019050612258565b8683101561229a5784890151612296601f8916826121a3565b8355505b6001600288020188555050505b505050505050565b600060208201905081810360008301526122c98184611be8565b905092915050565b7f4173736574206e6f7420666f722073616c650000000000000000000000000000600082015250565b6000612307601283611bad565b9150612312826122d1565b602082019050919050565b60006020820190508181036000830152612336816122fa565b9050919050565b7f496e636f7272656374204554482073656e740000000000000000000000000000600082015250565b6000612373601283611bad565b915061237e8261233d565b602082019050919050565b600060208201905081810360008301526123a281612366565b9050919050565b600081905092915050565b7f416363657373436f6e74726f6c3a206163636f756e7420000000000000000000600082015250565b60006123ea6017836123a9565b91506123f5826123b4565b601782019050919050565b600061240b82611ba2565b61241581856123a9565b9350612425818560208601611bbe565b80840191505092915050565b7f206973206d697373696e6720726f6c6520000000000000000000000000000000600082015250565b60006124676011836123a9565b915061247282612431565b601182019050919050565b6000612488826123dd565b91506124948285612400565b915061249f8261245a565b91506124ab8284612400565b91508190509392505050565b7f4e487b7100000000000000000000000000000000000000000000000000000000600052601160045260246000fd5b60006124f1826118c8565b91506124fc836118c8565b925082820261250a816118c8565b91508282048414831517612521576125206124b7565b5b5092915050565b6000612533826118c8565b915061253e836118c8565b9250828201905080821115612556576125556124b7565b5b92915050565b7f4e487b7100000000000000000000000000000000000000000000000000000000600052603260045260246000fd5b6000612596826118c8565b9150600082036125a9576125a86124b7565b5b600182039050919050565b7f537472696e67733a20686578206c656e67746820696e73756666696369656e74600082015250565b60006125ea602083611bad565b91506125f5826125b4565b602082019050919050565b60006020820190508181036000830152612619816125dd565b905091905056fea2646970667358221220bb7eafd4ead038c609a35b27b0838fbb6baa0295de4b5b1408be9486d28cbd7f64736f6c63430008140033",
  "linkReferences": {},
  "deployedLinkReferences": {}
}