{
  "_format": "hh-sol-artifact-1",
  "contractName": "EscrowManager",
  "sourceName": "contracts/EscrowManager.sol",
  "abi": [
    {
      "anonymous": false,
      "inputs": [
        {
          "indexed": true,
          "internalType": "uint256",
          "name": "escrowId",
          "type": "uint256"
        }
      ],
      "name": "EscrowCancelled",
      "type": "event"
    },
    {
      "anonymous": false,
      "inputs": [
        {
          "indexed": true,
          "internalType": "uint256",
          "name": "escrowId",
          "type": "uint256"
        },
        {
          "indexed": false,
          "internalType": "address",
          "name": "depositor",
          "type": "address"
        },
        {
          "indexed": false,
          "internalType": "address",
          "name": "recipient",
          "type": "address"
        },
        {
          "indexed": false,
          "internalType": "uint256",
          "name": "amount",
          "type": "uint256"
        }
      ],
      "name": "EscrowCreated",
      "type": "event"
    },
    {
      "anonymous": false,
      "inputs": [
        {
          "indexed": true,
          "internalType": "uint256",
          "name": "escrowId",
          "type": "uint256"
        }
      ],
      "name": "EscrowReleased",
      "type": "event"
    },
    {
      "inputs": [
        {
          "internalType": "uint256",
          "name": "escrowId",
          "type": "uint256"
        }
      ],
      "name": "cancelEscrow",
      "outputs": [],
      "stateMutability": "nonpayable",
      "type": "function"
    },
    {
      "inputs": [
        {
          "internalType": "address payable",
          "name": "recipient",
          "type": "address"
        }
      ],
      "name": "createEscrow",
      "outputs": [
        {
          "internalType": "uint256",
          "name": "",
          "type": "uint256"
        }
      ],
      "stateMutability": "payable",
      "type": "function"
    },
    {
      "inputs": [],
      "name": "escrowCount",
      "outputs": [
        {
          "internalType": "uint256",
          "name": "",
          "type": "uint256"
        }
      ],
      "stateMutability": "view",
      "type": "function"
    },
    {
      "inputs": [
        {
          "internalType": "uint256",
          "name": "",
          "type": "uint256"
        }
      ],
      "name": "escrows",
      "outputs": [
        {
          "internalType": "address payable",
          "name": "depositor",
          "type": "address"
        },
        {
          "internalType": "address payable",
          "name": "recipient",
          "type": "address"
        },
        {
          "internalType": "uint256",
          "name": "amount",
          "type": "uint256"
        },
        {
          "internalType": "enum EscrowManager.EscrowStatus",
          "name": "status",
          "type": "uint8"
        }
      ],
      "stateMutability": "view",
      "type": "function"
    },
    {
      "inputs": [
        {
          "internalType": "uint256",
          "name": "escrowId",
          "type": "uint256"
        }
      ],
      "name": "getEscrow",
      "outputs": [
        {
          "internalType": "address",
          "name": "depositor",
          "type": "address"
        },
        {
          "internalType": "address",
          "name": "recipient",
          "type": "address"
        },
        {
          "internalType": "uint256",
          "name": "amount",
          "type": "uint256"
        },
        {
          "internalType": "enum EscrowManager.EscrowStatus",
          "name": "status",
          "type": "uint8"
        }
      ],
      "stateMutability": "view",
      "type": "function"
    },
    {
      "inputs": [
        {
          "internalType": "uint256",
          "name": "escrowId",
          "type": "uint256"
        }
      ],
      "name": "releaseEscrow",
      "outputs": [],
      "stateMutability": "nonpayable",
      "type": "function"
    }
  ],
  "bytecode": "0x608060405234801561001057600080fd5b50610e51806100206000396000f3fe6080604052600436106100555760003560e01c8063012f52ee1461005a578063675ac67a1461009a5780637d19e596146100c5578063e018243614610105578063ed6531641461012e578063f6a8419e14610157575b600080fd5b34801561006657600080fd5b50610081600480360381019061007c919061093a565b610187565b6040516100919493929190610a2e565b60405180910390f35b3480156100a657600080fd5b506100af610204565b6040516100bc9190610a73565b60405180910390f35b3480156100d157600080fd5b506100ec60048036038101906100e7919061093a565b61020a565b6040516100fc9493929190610aaf565b60405180910390f35b34801561011157600080fd5b5061012c6004803603810190610127919061093a565b610346565b005b34801561013a57600080fd5b506101556004803603810190610150919061093a565b610533565b005b610171600480360381019061016c9190610b20565b610720565b60405161017e9190610a73565b60405180910390f35b60006020528060005260406000206000915090508060000160009054906101000a900473ffffffffffffffffffffffffffffffffffffffff16908060010160009054906101000a900473ffffffffffffffffffffffffffffffffffffffff16908060020154908060030160009054906101000a900460ff16905084565b60015481565b60008060008060008060008781526020019081526020016000206040518060800160405290816000820160009054906101000a900473ffffffffffffffffffffffffffffffffffffffff1673ffffffffffffffffffffffffffffffffffffffff1673ffffffffffffffffffffffffffffffffffffffff1681526020016001820160009054906101000a900473ffffffffffffffffffffffffffffffffffffffff1673ffffffffffffffffffffffffffffffffffffffff1673ffffffffffffffffffffffffffffffffffffffff168152602001600282015481526020016003820160009054906101000a900460ff16600281111561030a576103096109b7565b5b600281111561031c5761031b6109b7565b5b81525050905080600001518160200151826040015183606001519450945094509450509193509193565b600080600083815260200190815260200160002090508060000160009054906101000a900473ffffffffffffffffffffffffffffffffffffffff1673ffffffffffffffffffffffffffffffffffffffff163373ffffffffffffffffffffffffffffffffffffffff16146103ee576040517f08c379a00000000000000000000000000000000000000000000000000000000081526004016103e590610baa565b60405180910390fd5b60006002811115610402576104016109b7565b5b8160030160009054906101000a900460ff166002811115610426576104256109b7565b5b14610466576040517f08c379a000000000000000000000000000000000000000000000000000000000815260040161045d90610c16565b60405180910390fd5b8060000160009054906101000a900473ffffffffffffffffffffffffffffffffffffffff1673ffffffffffffffffffffffffffffffffffffffff166108fc82600201549081150290604051600060405180830381858888f193505050501580156104d4573d6000803e3d6000fd5b5060028160030160006101000a81548160ff021916908360028111156104fd576104fc6109b7565b5b0217905550817f0d977c6b1a383ac5ce532b4a668d0ef9ad38478e1a5ff28abb221f4b682b264360405160405180910390a25050565b600080600083815260200190815260200160002090508060000160009054906101000a900473ffffffffffffffffffffffffffffffffffffffff1673ffffffffffffffffffffffffffffffffffffffff163373ffffffffffffffffffffffffffffffffffffffff16146105db576040517f08c379a00000000000000000000000000000000000000000000000000000000081526004016105d290610c82565b60405180910390fd5b600060028111156105ef576105ee6109b7565b5b8160030160009054906101000a900460ff166002811115610613576106126109b7565b5b14610653576040517f08c379a000000000000000000000000000000000000000000000000000000000815260040161064a90610c16565b60405180910390fd5b8060010160009054906101000a900473ffffffffffffffffffffffffffffffffffffffff1673ffffffffffffffffffffffffffffffffffffffff166108fc82600201549081150290604051600060405180830381858888f193505050501580156106c1573d6000803e3d6000fd5b5060018160030160006101000a81548160ff021916908360028111156106ea576106e96109b7565b5b0217905550817f69833829d5691ae09424af7d16f73adf033451149ea9c2fc6fcb4c44108eef6760405160405180910390a25050565b6000803411610764576040517f08c379a000000000000000000000000000000000000000000000000000000000815260040161075b90610cee565b60405180910390fd5b60405180608001604052803373ffffffffffffffffffffffffffffffffffffffff1681526020018373ffffffffffffffffffffffffffffffffffffffff168152602001348152602001600060028111156107c1576107c06109b7565b5b815250600080600154815260200190815260200160002060008201518160000160006101000a81548173ffffffffffffffffffffffffffffffffffffffff021916908373ffffffffffffffffffffffffffffffffffffffff16021790555060208201518160010160006101000a81548173ffffffffffffffffffffffffffffffffffffffff021916908373ffffffffffffffffffffffffffffffffffffffff1602179055506040820151816002015560608201518160030160006101000a81548160ff0219169083600281111561089b5761089a6109b7565b5b02179055509050506001547f9405ad0a6208539879349284d71265479b1623846f70303da1f9890d6e8c10a73384346040516108d993929190610d6d565b60405180910390a2600160008154809291906108f490610dd3565b919050559050919050565b600080fd5b6000819050919050565b61091781610904565b811461092257600080fd5b50565b6000813590506109348161090e565b92915050565b6000602082840312156109505761094f6108ff565b5b600061095e84828501610925565b91505092915050565b600073ffffffffffffffffffffffffffffffffffffffff82169050919050565b600061099282610967565b9050919050565b6109a281610987565b82525050565b6109b181610904565b82525050565b7f4e487b7100000000000000000000000000000000000000000000000000000000600052602160045260246000fd5b600381106109f7576109f66109b7565b5b50565b6000819050610a08826109e6565b919050565b6000610a18826109fa565b9050919050565b610a2881610a0d565b82525050565b6000608082019050610a436000830187610999565b610a506020830186610999565b610a5d60408301856109a8565b610a6a6060830184610a1f565b95945050505050565b6000602082019050610a8860008301846109a8565b92915050565b6000610a9982610967565b9050919050565b610aa981610a8e565b82525050565b6000608082019050610ac46000830187610aa0565b610ad16020830186610aa0565b610ade60408301856109a8565b610aeb6060830184610a1f565b95945050505050565b610afd81610987565b8114610b0857600080fd5b50565b600081359050610b1a81610af4565b92915050565b600060208284031215610b3657610b356108ff565b5b6000610b4484828501610b0b565b91505092915050565b600082825260208201905092915050565b7f4f6e6c79206465706f7369746f722063616e2063616e63656c00000000000000600082015250565b6000610b94601983610b4d565b9150610b9f82610b5e565b602082019050919050565b60006020820190508181036000830152610bc381610b87565b9050919050565b7f496e76616c696420737461747573000000000000000000000000000000000000600082015250565b6000610c00600e83610b4d565b9150610c0b82610bca565b602082019050919050565b60006020820190508181036000830152610c2f81610bf3565b9050919050565b7f4f6e6c79206465706f7369746f722063616e2072656c65617365000000000000600082015250565b6000610c6c601a83610b4d565b9150610c7782610c36565b602082019050919050565b60006020820190508181036000830152610c9b81610c5f565b9050919050565b7f4d7573742073656e642066756e64730000000000000000000000000000000000600082015250565b6000610cd8600f83610b4d565b9150610ce382610ca2565b602082019050919050565b60006020820190508181036000830152610d0781610ccb565b9050919050565b6000819050919050565b6000610d33610d2e610d2984610967565b610d0e565b610967565b9050919050565b6000610d4582610d18565b9050919050565b6000610d5782610d3a565b9050919050565b610d6781610d4c565b82525050565b6000606082019050610d826000830186610aa0565b610d8f6020830185610d5e565b610d9c60408301846109a8565b949350505050565b7f4e487b7100000000000000000000000000000000000000000000000000000000600052601160045260246000fd5b6000610dde82610904565b91507fffffffffffffffffffffffffffffffffffffffffffffffffffffffffffffffff8203610e1057610e0f610da4565b5b60018201905091905056fea2646970667358221220e4c3535c51c7b929857fd323ad12dfe77bb0b2c11bb498d60bc5bc8b2786d59e64736f6c63430008140033",
  "linkReferences": {},
  "deployedLinkReferences": {}
}