{
  "_format": "hh-sol-artifact-1",
  "contractName": "HyperCoinDAO",
  "sourceName": "contracts/HyperCoinDAO.sol",
  "abi": [
    {
      "inputs": [
        {
          "internalType": "address",
          "name": "initialOwner",
          "type": "address"
        }
      ],
      "stateMutability": "nonpayable",
      "type": "constructor"
    },
    {
      "inputs": [
        {
          "internalType": "address",
          "name": "owner",
          "type": "address"
        }
      ],
      "name": "OwnableInvalidOwner",
      "type": "error"
    },
    {
      "inputs": [
        {
          "internalType": "address",
          "name": "account",
          "type": "address"
        }
      ],
      "name": "OwnableUnauthorizedAccount",
      "type": "error"
    },
    {
      "anonymous": false,
      "inputs": [
        {
          "indexed": true,
          "internalType": "address",
          "name": "previousOwner",
          "type": "address"
        },
        {
          "indexed": true,
          "internalType": "address",
          "name": "newOwner",
          "type": "address"
        }
      ],
      "name": "OwnershipTransferred",
      "type": "event"
    },
    {
      "inputs": [],
      "name": "deployProposal",
      "outputs": [
        {
          "internalType": "string",
          "name": "",
          "type": "string"
        }
      ],
      "stateMutability": "nonpayable",
      "type": "function"
    },
    {
      "inputs": [],
      "name": "owner",
      "outputs": [
        {
          "internalType": "address",
          "name": "",
          "type": "address"
        }
      ],
      "stateMutability": "view",
      "type": "function"
    },
    {
      "inputs": [],
      "name": "renounceOwnership",
      "outputs": [],
      "stateMutability": "nonpayable",
      "type": "function"
    },
    {
      "inputs": [
        {
          "internalType": "address",
          "name": "newOwner",
          "type": "address"
        }
      ],
      "name": "transferOwnership",
      "outputs": [],
      "stateMutability": "nonpayable",
      "type": "function"
    },
    {
      "inputs": [],
      "name": "treasuryStatus",
      "outputs": [
        {
          "internalType": "string",
          "name": "",
          "type": "string"
        }
      ],
      "stateMutability": "pure",
      "type": "function"
    }
  ],
  "bytecode": "0x608060405234801561001057600080fd5b5060405161075e38038061075e833981810160405281019061003291906101e2565b80600073ffffffffffffffffffffffffffffffffffffffff168173ffffffffffffffffffffffffffffffffffffffff16036100a55760006040517f1e4fbdf700000000000000000000000000000000000000000000000000000000815260040161009c919061021e565b60405180910390fd5b6100b4816100bb60201b60201c565b5050610239565b60008060009054906101000a900473ffffffffffffffffffffffffffffffffffffffff169050816000806101000a81548173ffffffffffffffffffffffffffffffffffffffff021916908373ffffffffffffffffffffffffffffffffffffffff1602179055508173ffffffffffffffffffffffffffffffffffffffff168173ffffffffffffffffffffffffffffffffffffffff167f8be0079c531659141344cd1fd0a4f28419497f9722a3daafe3b4186f6b6457e060405160405180910390a35050565b600080fd5b600073ffffffffffffffffffffffffffffffffffffffff82169050919050565b60006101af82610184565b9050919050565b6101bf816101a4565b81146101ca57600080fd5b50565b6000815190506101dc816101b6565b92915050565b6000602082840312156101f8576101f761017f565b5b6000610206848285016101cd565b91505092915050565b610218816101a4565b82525050565b6000602082019050610233600083018461020f565b92915050565b610516806102486000396000f3fe608060405234801561001057600080fd5b50600436106100575760003560e01c8063715018a61461005c5780638da5cb5b14610066578063a9cfd2ee14610084578063f2fde38b146100a2578063f48fd0e0146100be575b600080fd5b6100646100dc565b005b61006e6100f0565b60405161007b91906103b5565b60405180910390f35b61008c610119565b6040516100999190610460565b60405180910390f35b6100bc60048036038101906100b791906104b3565b61015e565b005b6100c66101e4565b6040516100d39190610460565b60405180910390f35b6100e4610221565b6100ee60006102a8565b565b60008060009054906101000a900473ffffffffffffffffffffffffffffffffffffffff16905090565b6060610123610221565b6040518060400160405280601581526020017f44414f2050726f706f73616c204465706c6f7965640000000000000000000000815250905090565b610166610221565b600073ffffffffffffffffffffffffffffffffffffffff168173ffffffffffffffffffffffffffffffffffffffff16036101d85760006040517f1e4fbdf70000000000000000000000000000000000000000000000000000000081526004016101cf91906103b5565b60405180910390fd5b6101e1816102a8565b50565b60606040518060400160405280601b81526020017f54726561737572792073656375726520616e64206163746976652e0000000000815250905090565b61022961036c565b73ffffffffffffffffffffffffffffffffffffffff166102476100f0565b73ffffffffffffffffffffffffffffffffffffffff16146102a65761026a61036c565b6040517f118cdaa700000000000000000000000000000000000000000000000000000000815260040161029d91906103b5565b60405180910390fd5b565b60008060009054906101000a900473ffffffffffffffffffffffffffffffffffffffff169050816000806101000a81548173ffffffffffffffffffffffffffffffffffffffff021916908373ffffffffffffffffffffffffffffffffffffffff1602179055508173ffffffffffffffffffffffffffffffffffffffff168173ffffffffffffffffffffffffffffffffffffffff167f8be0079c531659141344cd1fd0a4f28419497f9722a3daafe3b4186f6b6457e060405160405180910390a35050565b600033905090565b600073ffffffffffffffffffffffffffffffffffffffff82169050919050565b600061039f82610374565b9050919050565b6103af81610394565b82525050565b60006020820190506103ca60008301846103a6565b92915050565b600081519050919050565b600082825260208201905092915050565b60005b8381101561040a5780820151818401526020810190506103ef565b60008484015250505050565b6000601f19601f8301169050919050565b6000610432826103d0565b61043c81856103db565b935061044c8185602086016103ec565b61045581610416565b840191505092915050565b6000602082019050818103600083015261047a8184610427565b905092915050565b600080fd5b61049081610394565b811461049b57600080fd5b50565b6000813590506104ad81610487565b92915050565b6000602082840312156104c9576104c8610482565b5b60006104d78482850161049e565b9150509291505056fea2646970667358221220ed75e8ce0284d5ee7d4907f7281fd6448e5b03e9d8e5ccbe149d3bb3456f425f64736f6c63430008140033",
  "linkReferences": {},
  "deployedLinkReferences": {}
}