{
  "_format": "hh-sol-artifact-1",
  "contractName": "HyperCoinGovernance",
  "sourceName": "contracts/HyperCoinGovernance.sol",
  "abi": [
    {
      "inputs": [
        {
          "internalType": "address",
          "name": "initialOwner",
          "type": "address"
        },
        {
          "internalType": "address",
          "name": "tokenAddress",
          "type": "address"
        }
      ],
      "stateMutability": "nonpayable",
      "type": "constructor"
    },
    {
      "anonymous": false,
      "inputs": [
        {
          "indexed": true,
          "internalType": "address",
          "name": "previousOwner",
          "type": "address"
        },
        {
          "indexed": true,
          "internalType": "address",
          "name": "newOwner",
          "type": "address"
        }
      ],
      "name": "OwnershipTransferred",
      "type": "event"
    },
    {
      "inputs": [
        {
          "internalType": "address",
          "name": "action",
          "type": "address"
        }
      ],
      "name": "isApproved",
      "outputs": [
        {
          "internalType": "bool",
          "name": "",
          "type": "bool"
        }
      ],
      "stateMutability": "view",
      "type": "function"
    },
    {
      "inputs": [],
      "name": "owner",
      "outputs": [
        {
          "internalType": "address",
          "name": "",
          "type": "address"
        }
      ],
      "stateMutability": "view",
      "type": "function"
    },
    {
      "inputs": [
        {
          "internalType": "address",
          "name": "",
          "type": "address"
        }
      ],
      "name": "proposals",
      "outputs": [
        {
          "internalType": "bool",
          "name": "",
          "type": "bool"
        }
      ],
      "stateMutability": "view",
      "type": "function"
    },
    {
      "inputs": [
        {
          "internalType": "address",
          "name": "action",
          "type": "address"
        }
      ],
      "name": "propose",
      "outputs": [],
      "stateMutability": "nonpayable",
      "type": "function"
    },
    {
      "inputs": [],
      "name": "quorum",
      "outputs": [
        {
          "internalType": "uint256",
          "name": "",
          "type": "uint256"
        }
      ],
      "stateMutability": "view",
      "type": "function"
    },
    {
      "inputs": [],
      "name": "renounceOwnership",
      "outputs": [],
      "stateMutability": "nonpayable",
      "type": "function"
    },
    {
      "inputs": [
        {
          "internalType": "address",
          "name": "action",
          "type": "address"
        }
      ],
      "name": "revokeProposal",
      "outputs": [],
      "stateMutability": "nonpayable",
      "type": "function"
    },
    {
      "inputs": [],
      "name": "token",
      "outputs": [
        {
          "internalType": "address",
          "name": "",
          "type": "address"
        }
      ],
      "stateMutability": "view",
      "type": "function"
    },
    {
      "inputs": [
        {
          "internalType": "address",
          "name": "newOwner",
          "type": "address"
        }
      ],
      "name": "transferOwnership",
      "outputs": [],
      "stateMutability": "nonpayable",
      "type": "function"
    },
    {
      "inputs": [
        {
          "internalType": "uint256",
          "name": "newQuorum",
          "type": "uint256"
        }
      ],
      "name": "updateQuorum",
      "outputs": [],
      "stateMutability": "nonpayable",
      "type": "function"
    }
  ],
  "bytecode": "0x608060405234801561001057600080fd5b50604051610b21380380610b21833981810160405281019061003291906101dc565b61004e6100436100ad60201b60201c565b6100b560201b60201c565b61005d826100b560201b60201c565b80600160006101000a81548173ffffffffffffffffffffffffffffffffffffffff021916908373ffffffffffffffffffffffffffffffffffffffff160217905550600a600281905550505061021c565b600033905090565b60008060009054906101000a900473ffffffffffffffffffffffffffffffffffffffff169050816000806101000a81548173ffffffffffffffffffffffffffffffffffffffff021916908373ffffffffffffffffffffffffffffffffffffffff1602179055508173ffffffffffffffffffffffffffffffffffffffff168173ffffffffffffffffffffffffffffffffffffffff167f8be0079c531659141344cd1fd0a4f28419497f9722a3daafe3b4186f6b6457e060405160405180910390a35050565b600080fd5b600073ffffffffffffffffffffffffffffffffffffffff82169050919050565b60006101a98261017e565b9050919050565b6101b98161019e565b81146101c457600080fd5b50565b6000815190506101d6816101b0565b92915050565b600080604083850312156101f3576101f2610179565b5b6000610201858286016101c7565b9250506020610212858286016101c7565b9150509250929050565b6108f68061022b6000396000f3fe608060405234801561001057600080fd5b506004361061009e5760003560e01c8063673448dd11610066578063673448dd14610145578063715018a6146101755780638da5cb5b1461017f578063f2fde38b1461019d578063fc0c546a146101b95761009e565b806301267951146100a35780631703a018146100bf5780632a7736ad146100dd5780633341b445146100f957806335680dc214610129575b600080fd5b6100bd60048036038101906100b8919061062b565b6101d7565b005b6100c76102a7565b6040516100d49190610671565b60405180910390f35b6100f760048036038101906100f2919061062b565b6102ad565b005b610113600480360381019061010e919061062b565b610310565b60405161012091906106a7565b60405180910390f35b610143600480360381019061013e91906106ee565b610330565b005b61015f600480360381019061015a919061062b565b610342565b60405161016c91906106a7565b60405180910390f35b61017d610398565b005b6101876103ac565b604051610194919061072a565b60405180910390f35b6101b760048036038101906101b2919061062b565b6103d5565b005b6101c1610458565b6040516101ce919061072a565b60405180910390f35b6101df6103ac565b73ffffffffffffffffffffffffffffffffffffffff163373ffffffffffffffffffffffffffffffffffffffff161461024c576040517f08c379a0000000000000000000000000000000000000000000000000000000008152600401610243906107a2565b60405180910390fd5b6001600360008373ffffffffffffffffffffffffffffffffffffffff1673ffffffffffffffffffffffffffffffffffffffff16815260200190815260200160002060006101000a81548160ff02191690831515021790555050565b60025481565b6102b561047e565b6000600360008373ffffffffffffffffffffffffffffffffffffffff1673ffffffffffffffffffffffffffffffffffffffff16815260200190815260200160002060006101000a81548160ff02191690831515021790555050565b60036020528060005260406000206000915054906101000a900460ff1681565b61033861047e565b8060028190555050565b6000600360008373ffffffffffffffffffffffffffffffffffffffff1673ffffffffffffffffffffffffffffffffffffffff16815260200190815260200160002060009054906101000a900460ff169050919050565b6103a061047e565b6103aa60006104fc565b565b60008060009054906101000a900473ffffffffffffffffffffffffffffffffffffffff16905090565b6103dd61047e565b600073ffffffffffffffffffffffffffffffffffffffff168173ffffffffffffffffffffffffffffffffffffffff160361044c576040517f08c379a000000000000000000000000000000000000000000000000000000000815260040161044390610834565b60405180910390fd5b610455816104fc565b50565b600160009054906101000a900473ffffffffffffffffffffffffffffffffffffffff1681565b6104866105c0565b73ffffffffffffffffffffffffffffffffffffffff166104a46103ac565b73ffffffffffffffffffffffffffffffffffffffff16146104fa576040517f08c379a00000000000000000000000000000000000000000000000000000000081526004016104f1906108a0565b60405180910390fd5b565b60008060009054906101000a900473ffffffffffffffffffffffffffffffffffffffff169050816000806101000a81548173ffffffffffffffffffffffffffffffffffffffff021916908373ffffffffffffffffffffffffffffffffffffffff1602179055508173ffffffffffffffffffffffffffffffffffffffff168173ffffffffffffffffffffffffffffffffffffffff167f8be0079c531659141344cd1fd0a4f28419497f9722a3daafe3b4186f6b6457e060405160405180910390a35050565b600033905090565b600080fd5b600073ffffffffffffffffffffffffffffffffffffffff82169050919050565b60006105f8826105cd565b9050919050565b610608816105ed565b811461061357600080fd5b50565b600081359050610625816105ff565b92915050565b600060208284031215610641576106406105c8565b5b600061064f84828501610616565b91505092915050565b6000819050919050565b61066b81610658565b82525050565b60006020820190506106866000830184610662565b92915050565b60008115159050919050565b6106a18161068c565b82525050565b60006020820190506106bc6000830184610698565b92915050565b6106cb81610658565b81146106d657600080fd5b50565b6000813590506106e8816106c2565b92915050565b600060208284031215610704576107036105c8565b5b6000610712848285016106d9565b91505092915050565b610724816105ed565b82525050565b600060208201905061073f600083018461071b565b92915050565b600082825260208201905092915050565b7f4f6e6c7920676f7665726e616e63650000000000000000000000000000000000600082015250565b600061078c600f83610745565b915061079782610756565b602082019050919050565b600060208201905081810360008301526107bb8161077f565b9050919050565b7f4f776e61626c653a206e6577206f776e657220697320746865207a65726f206160008201527f6464726573730000000000000000000000000000000000000000000000000000602082015250565b600061081e602683610745565b9150610829826107c2565b604082019050919050565b6000602082019050818103600083015261084d81610811565b9050919050565b7f4f776e61626c653a2063616c6c6572206973206e6f7420746865206f776e6572600082015250565b600061088a602083610745565b915061089582610854565b602082019050919050565b600060208201905081810360008301526108b98161087d565b905091905056fea26469706673582212206e83b3b8a2cdabc5027244303f5415250bcf4118fb37179c20b10ca74ce4d72564736f6c63430008140033",
  "linkReferences": {},
  "deployedLinkReferences": {}
}