{
  "_format": "hh-sol-artifact-1",
  "contractName": "HyperCoinDAO",
  "sourceName": "contracts/HyperCoinDAO.sol",
  "abi": [
    {
      "inputs": [
        {
          "internalType": "address",
          "name": "initialOwner",
          "type": "address"
        }
      ],
      "stateMutability": "nonpayable",
      "type": "constructor"
    },
    {
      "anonymous": false,
      "inputs": [
        {
          "indexed": false,
          "internalType": "uint256",
          "name": "id",
          "type": "uint256"
        },
        {
          "indexed": false,
          "internalType": "string",
          "name": "title",
          "type": "string"
        }
      ],
      "name": "ProposalCreated",
      "type": "event"
    },
    {
      "anonymous": false,
      "inputs": [
        {
          "indexed": false,
          "internalType": "uint256",
          "name": "id",
          "type": "uint256"
        }
      ],
      "name": "ProposalExecuted",
      "type": "event"
    },
    {
      "anonymous": false,
      "inputs": [
        {
          "indexed": false,
          "internalType": "uint256",
          "name": "id",
          "type": "uint256"
        },
        {
          "indexed": false,
          "internalType": "address",
          "name": "voter",
          "type": "address"
        }
      ],
      "name": "Voted",
      "type": "event"
    },
    {
      "inputs": [
        {
          "internalType": "string",
          "name": "_title",
          "type": "string"
        },
        {
          "internalType": "string",
          "name": "_description",
          "type": "string"
        },
        {
          "internalType": "address",
          "name": "_target",
          "type": "address"
        },
        {
          "internalType": "bytes",
          "name": "_action",
          "type": "bytes"
        }
      ],
      "name": "createProposal",
      "outputs": [],
      "stateMutability": "nonpayable",
      "type": "function"
    },
    {
      "inputs": [
        {
          "internalType": "uint256",
          "name": "id",
          "type": "uint256"
        }
      ],
      "name": "executeProposal",
      "outputs": [],
      "stateMutability": "nonpayable",
      "type": "function"
    },
    {
      "inputs": [],
      "name": "getAllProposals",
      "outputs": [
        {
          "components": [
            {
              "internalType": "string",
              "name": "title",
              "type": "string"
            },
            {
              "internalType": "string",
              "name": "description",
              "type": "string"
            },
            {
              "internalType": "address",
              "name": "target",
              "type": "address"
            },
            {
              "internalType": "bytes",
              "name": "action",
              "type": "bytes"
            },
            {
              "internalType": "uint256",
              "name": "votes",
              "type": "uint256"
            },
            {
              "internalType": "bool",
              "name": "executed",
              "type": "bool"
            },
            {
              "internalType": "uint256",
              "name": "createdAt",
              "type": "uint256"
            }
          ],
          "internalType": "struct HyperCoinDAO.Proposal[]",
          "name": "",
          "type": "tuple[]"
        }
      ],
      "stateMutability": "view",
      "type": "function"
    },
    {
      "inputs": [],
      "name": "getProposalCount",
      "outputs": [
        {
          "internalType": "uint256",
          "name": "",
          "type": "uint256"
        }
      ],
      "stateMutability": "view",
      "type": "function"
    },
    {
      "inputs": [
        {
          "internalType": "uint256",
          "name": "",
          "type": "uint256"
        },
        {
          "internalType": "address",
          "name": "",
          "type": "address"
        }
      ],
      "name": "hasVoted",
      "outputs": [
        {
          "internalType": "bool",
          "name": "",
          "type": "bool"
        }
      ],
      "stateMutability": "view",
      "type": "function"
    },
    {
      "inputs": [],
      "name": "owner",
      "outputs": [
        {
          "internalType": "address",
          "name": "",
          "type": "address"
        }
      ],
      "stateMutability": "view",
      "type": "function"
    },
    {
      "inputs": [
        {
          "internalType": "uint256",
          "name": "",
          "type": "uint256"
        }
      ],
      "name": "proposals",
      "outputs": [
        {
          "internalType": "string",
          "name": "title",
          "type": "string"
        },
        {
          "internalType": "string",
          "name": "description",
          "type": "string"
        },
        {
          "internalType": "address",
          "name": "target",
          "type": "address"
        },
        {
          "internalType": "bytes",
          "name": "action",
          "type": "bytes"
        },
        {
          "internalType": "uint256",
          "name": "votes",
          "type": "uint256"
        },
        {
          "internalType": "bool",
          "name": "executed",
          "type": "bool"
        },
        {
          "internalType": "uint256",
          "name": "createdAt",
          "type": "uint256"
        }
      ],
      "stateMutability": "view",
      "type": "function"
    },
    {
      "inputs": [
        {
          "internalType": "uint256",
          "name": "id",
          "type": "uint256"
        },
        {
          "internalType": "bool",
          "name": "support",
          "type": "bool"
        }
      ],
      "name": "vote",
      "outputs": [],
      "stateMutability": "nonpayable",
      "type": "function"
    }
  ],
  "bytecode": "0x60806040523480156200001157600080fd5b5060405162002067380380620020678339818101604052810190620000379190620000e8565b806000806101000a81548173ffffffffffffffffffffffffffffffffffffffff021916908373ffffffffffffffffffffffffffffffffffffffff160217905550506200011a565b600080fd5b600073ffffffffffffffffffffffffffffffffffffffff82169050919050565b6000620000b08262000083565b9050919050565b620000c281620000a3565b8114620000ce57600080fd5b50565b600081519050620000e281620000b7565b92915050565b6000602082840312156200010157620001006200007e565b5b60006200011184828501620000d1565b91505092915050565b611f3d806200012a6000396000f3fe608060405234801561001057600080fd5b50600436106100885760003560e01c8063c08cc02d1161005b578063c08cc02d1461012d578063c26493f71461014b578063c9d27afe14610167578063cceb68f51461018357610088565b8063013cf08b1461008d5780630d61b519146100c357806343859632146100df5780638da5cb5b1461010f575b600080fd5b6100a760048036038101906100a29190610e3a565b6101a1565b6040516100ba9796959493929190610fb7565b60405180910390f35b6100dd60048036038101906100d89190610e3a565b6103b8565b005b6100f960048036038101906100f49190611067565b610632565b60405161010691906110a7565b60405180910390f35b610117610661565b60405161012491906110c2565b60405180910390f35b610135610685565b60405161014291906110dd565b60405180910390f35b610165600480360381019061016091906112ce565b610692565b005b610181600480360381019061017c91906113b5565b6108a6565b005b61018b610b56565b6040516101989190611622565b60405180910390f35b600181815481106101b157600080fd5b90600052602060002090600702016000915090508060000180546101d490611673565b80601f016020809104026020016040519081016040528092919081815260200182805461020090611673565b801561024d5780601f106102225761010080835404028352916020019161024d565b820191906000526020600020905b81548152906001019060200180831161023057829003601f168201915b50505050509080600101805461026290611673565b80601f016020809104026020016040519081016040528092919081815260200182805461028e90611673565b80156102db5780601f106102b0576101008083540402835291602001916102db565b820191906000526020600020905b8154815290600101906020018083116102be57829003601f168201915b5050505050908060020160009054906101000a900473ffffffffffffffffffffffffffffffffffffffff169080600301805461031690611673565b80601f016020809104026020016040519081016040528092919081815260200182805461034290611673565b801561038f5780601f106103645761010080835404028352916020019161038f565b820191906000526020600020905b81548152906001019060200180831161037257829003601f168201915b5050505050908060040154908060050160009054906101000a900460ff16908060060154905087565b60008054906101000a900473ffffffffffffffffffffffffffffffffffffffff1673ffffffffffffffffffffffffffffffffffffffff163373ffffffffffffffffffffffffffffffffffffffff1614610446576040517f08c379a000000000000000000000000000000000000000000000000000000000815260040161043d906116f0565b60405180910390fd5b600180549050811061048d576040517f08c379a00000000000000000000000000000000000000000000000000000000081526004016104849061175c565b60405180910390fd5b6000600182815481106104a3576104a261177c565b5b906000526020600020906007020190508060050160009054906101000a900460ff1615610505576040517f08c379a00000000000000000000000000000000000000000000000000000000081526004016104fc906117f7565b60405180910390fd5b60008160020160009054906101000a900473ffffffffffffffffffffffffffffffffffffffff1673ffffffffffffffffffffffffffffffffffffffff168260030160405161055391906118ba565b6000604051808303816000865af19150503d8060008114610590576040519150601f19603f3d011682016040523d82523d6000602084013e610595565b606091505b50509050806105d9576040517f08c379a00000000000000000000000000000000000000000000000000000000081526004016105d09061191d565b60405180910390fd5b60018260050160006101000a81548160ff0219169083151502179055507f712ae1383f79ac853f8d882153778e0260ef8f03b504e2866e0593e04d2b291f8360405161062591906110dd565b60405180910390a1505050565b60026020528160005260406000206020528060005260406000206000915091509054906101000a900460ff1681565b60008054906101000a900473ffffffffffffffffffffffffffffffffffffffff1681565b6000600180549050905090565b60008054906101000a900473ffffffffffffffffffffffffffffffffffffffff1673ffffffffffffffffffffffffffffffffffffffff163373ffffffffffffffffffffffffffffffffffffffff1614610720576040517f08c379a0000000000000000000000000000000000000000000000000000000008152600401610717906116f0565b60405180910390fd5b60016040518060e001604052808681526020018581526020018473ffffffffffffffffffffffffffffffffffffffff1681526020018381526020016000815260200160001515815260200142815250908060018154018082558091505060019003906000526020600020906007020160009091909190915060008201518160000190816107ad9190611ae9565b5060208201518160010190816107c39190611ae9565b5060408201518160020160006101000a81548173ffffffffffffffffffffffffffffffffffffffff021916908373ffffffffffffffffffffffffffffffffffffffff16021790555060608201518160030190816108209190611c01565b506080820151816004015560a08201518160050160006101000a81548160ff02191690831515021790555060c0820151816006015550507f9c770c289ab5bf7e57cb1d23c8ceae993aea46eb64847072fd3d78ca60d3e432600180805490506108899190611d02565b85604051610898929190611d36565b60405180910390a150505050565b600073ffffffffffffffffffffffffffffffffffffffff163373ffffffffffffffffffffffffffffffffffffffff1603610915576040517f08c379a000000000000000000000000000000000000000000000000000000000815260040161090c90611db2565b60405180910390fd5b6002600083815260200190815260200160002060003373ffffffffffffffffffffffffffffffffffffffff1673ffffffffffffffffffffffffffffffffffffffff16815260200190815260200160002060009054906101000a900460ff16156109b3576040517f08c379a00000000000000000000000000000000000000000000000000000000081526004016109aa90611e1e565b60405180910390fd5b60018054905082106109fa576040517f08c379a00000000000000000000000000000000000000000000000000000000081526004016109f190611e8a565b60405180910390fd5b60018281548110610a0e57610a0d61177c565b5b906000526020600020906007020160050160009054906101000a900460ff1615610a6d576040517f08c379a0000000000000000000000000000000000000000000000000000000008152600401610a64906117f7565b60405180910390fd5b60016002600084815260200190815260200160002060003373ffffffffffffffffffffffffffffffffffffffff1673ffffffffffffffffffffffffffffffffffffffff16815260200190815260200160002060006101000a81548160ff0219169083151502179055508015610b19576001808381548110610af157610af061177c565b5b90600052602060002090600702016004016000828254610b119190611eaa565b925050819055505b7f030b0f8dcd86a031eddb071f91882edeac8173663ba775713b677b42b51be44b8233604051610b4a929190611ede565b60405180910390a15050565b60606001805480602002602001604051908101604052809291908181526020016000905b82821015610de757838290600052602060002090600702016040518060e0016040529081600082018054610bad90611673565b80601f0160208091040260200160405190810160405280929190818152602001828054610bd990611673565b8015610c265780601f10610bfb57610100808354040283529160200191610c26565b820191906000526020600020905b815481529060010190602001808311610c0957829003601f168201915b50505050508152602001600182018054610c3f90611673565b80601f0160208091040260200160405190810160405280929190818152602001828054610c6b90611673565b8015610cb85780601f10610c8d57610100808354040283529160200191610cb8565b820191906000526020600020905b815481529060010190602001808311610c9b57829003601f168201915b505050505081526020016002820160009054906101000a900473ffffffffffffffffffffffffffffffffffffffff1673ffffffffffffffffffffffffffffffffffffffff1673ffffffffffffffffffffffffffffffffffffffff168152602001600382018054610d2790611673565b80601f0160208091040260200160405190810160405280929190818152602001828054610d5390611673565b8015610da05780601f10610d7557610100808354040283529160200191610da0565b820191906000526020600020905b815481529060010190602001808311610d8357829003601f168201915b50505050508152602001600482015481526020016005820160009054906101000a900460ff1615151515815260200160068201548152505081526020019060010190610b7a565b50505050905090565b6000604051905090565b600080fd5b600080fd5b6000819050919050565b610e1781610e04565b8114610e2257600080fd5b50565b600081359050610e3481610e0e565b92915050565b600060208284031215610e5057610e4f610dfa565b5b6000610e5e84828501610e25565b91505092915050565b600081519050919050565b600082825260208201905092915050565b60005b83811015610ea1578082015181840152602081019050610e86565b60008484015250505050565b6000601f19601f8301169050919050565b6000610ec982610e67565b610ed38185610e72565b9350610ee3818560208601610e83565b610eec81610ead565b840191505092915050565b600073ffffffffffffffffffffffffffffffffffffffff82169050919050565b6000610f2282610ef7565b9050919050565b610f3281610f17565b82525050565b600081519050919050565b600082825260208201905092915050565b6000610f5f82610f38565b610f698185610f43565b9350610f79818560208601610e83565b610f8281610ead565b840191505092915050565b610f9681610e04565b82525050565b60008115159050919050565b610fb181610f9c565b82525050565b600060e0820190508181036000830152610fd1818a610ebe565b90508181036020830152610fe58189610ebe565b9050610ff46040830188610f29565b81810360608301526110068187610f54565b90506110156080830186610f8d565b61102260a0830185610fa8565b61102f60c0830184610f8d565b98975050505050505050565b61104481610f17565b811461104f57600080fd5b50565b6000813590506110618161103b565b92915050565b6000806040838503121561107e5761107d610dfa565b5b600061108c85828601610e25565b925050602061109d85828601611052565b9150509250929050565b60006020820190506110bc6000830184610fa8565b92915050565b60006020820190506110d76000830184610f29565b92915050565b60006020820190506110f26000830184610f8d565b92915050565b600080fd5b600080fd5b7f4e487b7100000000000000000000000000000000000000000000000000000000600052604160045260246000fd5b61113a82610ead565b810181811067ffffffffffffffff8211171561115957611158611102565b5b80604052505050565b600061116c610df0565b90506111788282611131565b919050565b600067ffffffffffffffff82111561119857611197611102565b5b6111a182610ead565b9050602081019050919050565b82818337600083830152505050565b60006111d06111cb8461117d565b611162565b9050828152602081018484840111156111ec576111eb6110fd565b5b6111f78482856111ae565b509392505050565b600082601f830112611214576112136110f8565b5b81356112248482602086016111bd565b91505092915050565b600067ffffffffffffffff82111561124857611247611102565b5b61125182610ead565b9050602081019050919050565b600061127161126c8461122d565b611162565b90508281526020810184848401111561128d5761128c6110fd565b5b6112988482856111ae565b509392505050565b600082601f8301126112b5576112b46110f8565b5b81356112c584826020860161125e565b91505092915050565b600080600080608085870312156112e8576112e7610dfa565b5b600085013567ffffffffffffffff81111561130657611305610dff565b5b611312878288016111ff565b945050602085013567ffffffffffffffff81111561133357611332610dff565b5b61133f878288016111ff565b935050604061135087828801611052565b925050606085013567ffffffffffffffff81111561137157611370610dff565b5b61137d878288016112a0565b91505092959194509250565b61139281610f9c565b811461139d57600080fd5b50565b6000813590506113af81611389565b92915050565b600080604083850312156113cc576113cb610dfa565b5b60006113da85828601610e25565b92505060206113eb858286016113a0565b9150509250929050565b600081519050919050565b600082825260208201905092915050565b6000819050602082019050919050565b600082825260208201905092915050565b600061143d82610e67565b6114478185611421565b9350611457818560208601610e83565b61146081610ead565b840191505092915050565b61147481610f17565b82525050565b600082825260208201905092915050565b600061149682610f38565b6114a0818561147a565b93506114b0818560208601610e83565b6114b981610ead565b840191505092915050565b6114cd81610e04565b82525050565b6114dc81610f9c565b82525050565b600060e08301600083015184820360008601526114ff8282611432565b915050602083015184820360208601526115198282611432565b915050604083015161152e604086018261146b565b5060608301518482036060860152611546828261148b565b915050608083015161155b60808601826114c4565b5060a083015161156e60a08601826114d3565b5060c083015161158160c08601826114c4565b508091505092915050565b600061159883836114e2565b905092915050565b6000602082019050919050565b60006115b8826113f5565b6115c28185611400565b9350836020820285016115d485611411565b8060005b8581101561161057848403895281516115f1858261158c565b94506115fc836115a0565b925060208a019950506001810190506115d8565b50829750879550505050505092915050565b6000602082019050818103600083015261163c81846115ad565b905092915050565b7f4e487b7100000000000000000000000000000000000000000000000000000000600052602260045260246000fd5b6000600282049050600182168061168b57607f821691505b60208210810361169e5761169d611644565b5b50919050565b7f4e6f74206f776e65720000000000000000000000000000000000000000000000600082015250565b60006116da600983610e72565b91506116e5826116a4565b602082019050919050565b60006020820190508181036000830152611709816116cd565b9050919050565b7f496e76616c696420494400000000000000000000000000000000000000000000600082015250565b6000611746600a83610e72565b915061175182611710565b602082019050919050565b6000602082019050818103600083015261177581611739565b9050919050565b7f4e487b7100000000000000000000000000000000000000000000000000000000600052603260045260246000fd5b7f416c726561647920657865637574656400000000000000000000000000000000600082015250565b60006117e1601083610e72565b91506117ec826117ab565b602082019050919050565b60006020820190508181036000830152611810816117d4565b9050919050565b600081905092915050565b60008190508160005260206000209050919050565b6000815461184481611673565b61184e8186611817565b94506001821660008114611869576001811461187e576118b1565b60ff19831686528115158202860193506118b1565b61188785611822565b60005b838110156118a95781548189015260018201915060208101905061188a565b838801955050505b50505092915050565b60006118c68284611837565b915081905092915050565b7f457865637574696f6e206661696c656400000000000000000000000000000000600082015250565b6000611907601083610e72565b9150611912826118d1565b602082019050919050565b60006020820190508181036000830152611936816118fa565b9050919050565b60008190508160005260206000209050919050565b60006020601f8301049050919050565b600082821b905092915050565b60006008830261199f7fffffffffffffffffffffffffffffffffffffffffffffffffffffffffffffffff82611962565b6119a98683611962565b95508019841693508086168417925050509392505050565b6000819050919050565b60006119e66119e16119dc84610e04565b6119c1565b610e04565b9050919050565b6000819050919050565b611a00836119cb565b611a14611a0c826119ed565b84845461196f565b825550505050565b600090565b611a29611a1c565b611a348184846119f7565b505050565b5b81811015611a5857611a4d600082611a21565b600181019050611a3a565b5050565b601f821115611a9d57611a6e8161193d565b611a7784611952565b81016020851015611a86578190505b611a9a611a9285611952565b830182611a39565b50505b505050565b600082821c905092915050565b6000611ac060001984600802611aa2565b1980831691505092915050565b6000611ad98383611aaf565b9150826002028217905092915050565b611af282610e67565b67ffffffffffffffff811115611b0b57611b0a611102565b5b611b158254611673565b611b20828285611a5c565b600060209050601f831160018114611b535760008415611b41578287015190505b611b4b8582611acd565b865550611bb3565b601f198416611b618661193d565b60005b82811015611b8957848901518255600182019150602085019450602081019050611b64565b86831015611ba65784890151611ba2601f891682611aaf565b8355505b6001600288020188555050505b505050505050565b601f821115611bfc57611bcd81611822565b611bd684611952565b81016020851015611be5578190505b611bf9611bf185611952565b830182611a39565b50505b505050565b611c0a82610f38565b67ffffffffffffffff811115611c2357611c22611102565b5b611c2d8254611673565b611c38828285611bbb565b600060209050601f831160018114611c6b5760008415611c59578287015190505b611c638582611acd565b865550611ccb565b601f198416611c7986611822565b60005b82811015611ca157848901518255600182019150602085019450602081019050611c7c565b86831015611cbe5784890151611cba601f891682611aaf565b8355505b6001600288020188555050505b505050505050565b7f4e487b7100000000000000000000000000000000000000000000000000000000600052601160045260246000fd5b6000611d0d82610e04565b9150611d1883610e04565b9250828203905081811115611d3057611d2f611cd3565b5b92915050565b6000604082019050611d4b6000830185610f8d565b8181036020830152611d5d8184610ebe565b90509392505050565b7f496e76616c6964206d656d626572000000000000000000000000000000000000600082015250565b6000611d9c600e83610e72565b9150611da782611d66565b602082019050919050565b60006020820190508181036000830152611dcb81611d8f565b9050919050565b7f416c726561647920766f74656400000000000000000000000000000000000000600082015250565b6000611e08600d83610e72565b9150611e1382611dd2565b602082019050919050565b60006020820190508181036000830152611e3781611dfb565b9050919050565b7f496e76616c69642070726f706f73616c20494400000000000000000000000000600082015250565b6000611e74601383610e72565b9150611e7f82611e3e565b602082019050919050565b60006020820190508181036000830152611ea381611e67565b9050919050565b6000611eb582610e04565b9150611ec083610e04565b9250828201905080821115611ed857611ed7611cd3565b5b92915050565b6000604082019050611ef36000830185610f8d565b611f006020830184610f29565b939250505056fea264697066735822122095afd022d41ea434296feb22f8aa1284c0c5d41b22c806b12b931de1b1184b9164736f6c63430008140033",
  "linkReferences": {},
  "deployedLinkReferences": {}
}