{
  "_format": "hh-sol-artifact-1",
  "contractName": "HyperCoinEcoSystem",
  "sourceName": "contracts/HyperCoinEcosystem.sol",
  "abi": [
    {
      "inputs": [
        {
          "internalType": "address",
          "name": "_inTax",
          "type": "address"
        },
        {
          "internalType": "address",
          "name": "_treasury",
          "type": "address"
        }
      ],
      "stateMutability": "nonpayable",
      "type": "constructor"
    },
    {
      "anonymous": false,
      "inputs": [
        {
          "indexed": true,
          "internalType": "address",
          "name": "previousOwner",
          "type": "address"
        },
        {
          "indexed": true,
          "internalType": "address",
          "name": "newOwner",
          "type": "address"
        }
      ],
      "name": "OwnershipTransferred",
      "type": "event"
    },
    {
      "anonymous": false,
      "inputs": [
        {
          "indexed": false,
          "internalType": "string",
          "name": "reason",
          "type": "string"
        },
        {
          "indexed": false,
          "internalType": "uint256",
          "name": "timestamp",
          "type": "uint256"
        }
      ],
      "name": "TriggeredRebalance",
      "type": "event"
    },
    {
      "anonymous": false,
      "inputs": [
        {
          "indexed": true,
          "internalType": "address",
          "name": "newAddress",
          "type": "address"
        }
      ],
      "name": "UpdatedInTax",
      "type": "event"
    },
    {
      "anonymous": false,
      "inputs": [
        {
          "indexed": true,
          "internalType": "address",
          "name": "newAddress",
          "type": "address"
        }
      ],
      "name": "UpdatedTreasury",
      "type": "event"
    },
    {
      "inputs": [],
      "name": "forwardToTreasury",
      "outputs": [],
      "stateMutability": "payable",
      "type": "function"
    },
    {
      "inputs": [],
      "name": "getSystemBalance",
      "outputs": [
        {
          "internalType": "uint256",
          "name": "",
          "type": "uint256"
        }
      ],
      "stateMutability": "view",
      "type": "function"
    },
    {
      "inputs": [],
      "name": "getSystemTaxRate",
      "outputs": [
        {
          "internalType": "uint256",
          "name": "",
          "type": "uint256"
        }
      ],
      "stateMutability": "view",
      "type": "function"
    },
    {
      "inputs": [],
      "name": "inTaxContract",
      "outputs": [
        {
          "internalType": "address",
          "name": "",
          "type": "address"
        }
      ],
      "stateMutability": "view",
      "type": "function"
    },
    {
      "inputs": [],
      "name": "owner",
      "outputs": [
        {
          "internalType": "address",
          "name": "",
          "type": "address"
        }
      ],
      "stateMutability": "view",
      "type": "function"
    },
    {
      "inputs": [
        {
          "internalType": "string",
          "name": "reason",
          "type": "string"
        }
      ],
      "name": "performEconomicRebalance",
      "outputs": [],
      "stateMutability": "nonpayable",
      "type": "function"
    },
    {
      "inputs": [],
      "name": "renounceOwnership",
      "outputs": [],
      "stateMutability": "nonpayable",
      "type": "function"
    },
    {
      "inputs": [
        {
          "internalType": "address",
          "name": "newOwner",
          "type": "address"
        }
      ],
      "name": "transferOwnership",
      "outputs": [],
      "stateMutability": "nonpayable",
      "type": "function"
    },
    {
      "inputs": [],
      "name": "treasuryContract",
      "outputs": [
        {
          "internalType": "address",
          "name": "",
          "type": "address"
        }
      ],
      "stateMutability": "view",
      "type": "function"
    },
    {
      "inputs": [
        {
          "internalType": "address",
          "name": "_newAddress",
          "type": "address"
        }
      ],
      "name": "updateInTaxContract",
      "outputs": [],
      "stateMutability": "nonpayable",
      "type": "function"
    },
    {
      "inputs": [
        {
          "internalType": "address",
          "name": "_newAddress",
          "type": "address"
        }
      ],
      "name": "updateTreasuryContract",
      "outputs": [],
      "stateMutability": "nonpayable",
      "type": "function"
    },
    {
      "inputs": [
        {
          "internalType": "address payable",
          "name": "to",
          "type": "address"
        },
        {
          "internalType": "uint256",
          "name": "amount",
          "type": "uint256"
        }
      ],
      "name": "withdrawFromTreasury",
      "outputs": [],
      "stateMutability": "nonpayable",
      "type": "function"
    },
    {
      "stateMutability": "payable",
      "type": "receive"
    }
  ],
  "bytecode": "0x60806040523480156200001157600080fd5b506040516200117438038062001174833981810160405281019062000037919062000217565b620000576200004b620000e160201b60201c565b620000e960201b60201c565b81600160006101000a81548173ffffffffffffffffffffffffffffffffffffffff021916908373ffffffffffffffffffffffffffffffffffffffff16021790555080600260006101000a81548173ffffffffffffffffffffffffffffffffffffffff021916908373ffffffffffffffffffffffffffffffffffffffff16021790555050506200025e565b600033905090565b60008060009054906101000a900473ffffffffffffffffffffffffffffffffffffffff169050816000806101000a81548173ffffffffffffffffffffffffffffffffffffffff021916908373ffffffffffffffffffffffffffffffffffffffff1602179055508173ffffffffffffffffffffffffffffffffffffffff168173ffffffffffffffffffffffffffffffffffffffff167f8be0079c531659141344cd1fd0a4f28419497f9722a3daafe3b4186f6b6457e060405160405180910390a35050565b600080fd5b600073ffffffffffffffffffffffffffffffffffffffff82169050919050565b6000620001df82620001b2565b9050919050565b620001f181620001d2565b8114620001fd57600080fd5b50565b6000815190506200021181620001e6565b92915050565b60008060408385031215620002315762000230620001ad565b5b6000620002418582860162000200565b9250506020620002548582860162000200565b9150509250929050565b610f06806200026e6000396000f3fe6080604052600436106100ab5760003560e01c806345430fa01161006457806345430fa014610192578063715018a6146101bd5780638da5cb5b146101d4578063f2fde38b146101ff578063f9820ae314610228578063ff845aca14610253576100b2565b8063045f7975146100b75780630663af08146100e057806318da00111461010957806321f4ae14146101345780632a2b97d71461015f5780633dd41e1214610188576100b2565b366100b257005b600080fd5b3480156100c357600080fd5b506100de60048036038101906100d99190610a6d565b61027c565b005b3480156100ec57600080fd5b5061010760048036038101906101029190610b4a565b61034f565b005b34801561011557600080fd5b5061011e6103ea565b60405161012b9190610bab565b60405180910390f35b34801561014057600080fd5b50610149610410565b6040516101569190610bd5565b60405180910390f35b34801561016b57600080fd5b5061018660048036038101906101819190610c1c565b6104a8565b005b610190610537565b005b34801561019e57600080fd5b506101a76105bc565b6040516101b49190610bab565b60405180910390f35b3480156101c957600080fd5b506101d26105e2565b005b3480156101e057600080fd5b506101e96105f6565b6040516101f69190610bab565b60405180910390f35b34801561020b57600080fd5b5061022660048036038101906102219190610c1c565b61061f565b005b34801561023457600080fd5b5061023d6106a2565b60405161024a9190610bd5565b60405180910390f35b34801561025f57600080fd5b5061027a60048036038101906102759190610c1c565b61073a565b005b6102846107c9565b600160009054906101000a900473ffffffffffffffffffffffffffffffffffffffff1673ffffffffffffffffffffffffffffffffffffffff1663c6d69a3061012c6040518263ffffffff1660e01b81526004016102e19190610c8e565b600060405180830381600087803b1580156102fb57600080fd5b505af115801561030f573d6000803e3d6000fd5b505050507f27dbbab69a23e125ee94702e555911c2087af8b095ad759df1f09dab7dc4cee98142604051610344929190610d28565b60405180910390a150565b6103576107c9565b600260009054906101000a900473ffffffffffffffffffffffffffffffffffffffff1673ffffffffffffffffffffffffffffffffffffffff1663f3fef3a383836040518363ffffffff1660e01b81526004016103b4929190610d67565b600060405180830381600087803b1580156103ce57600080fd5b505af11580156103e2573d6000803e3d6000fd5b505050505050565b600260009054906101000a900473ffffffffffffffffffffffffffffffffffffffff1681565b6000600260009054906101000a900473ffffffffffffffffffffffffffffffffffffffff1673ffffffffffffffffffffffffffffffffffffffff166312065fe06040518163ffffffff1660e01b8152600401602060405180830381865afa15801561047f573d6000803e3d6000fd5b505050506040513d601f19601f820116820180604052508101906104a39190610da5565b905090565b6104b06107c9565b80600260006101000a81548173ffffffffffffffffffffffffffffffffffffffff021916908373ffffffffffffffffffffffffffffffffffffffff1602179055508073ffffffffffffffffffffffffffffffffffffffff167fa6df481f77da1f4c92eb330341e03585d46106fcf522f8e6b6b2afbea56eefdc60405160405180910390a250565b600260009054906101000a900473ffffffffffffffffffffffffffffffffffffffff1673ffffffffffffffffffffffffffffffffffffffff1663d0e30db0346040518263ffffffff1660e01b81526004016000604051808303818588803b1580156105a157600080fd5b505af11580156105b5573d6000803e3d6000fd5b5050505050565b600160009054906101000a900473ffffffffffffffffffffffffffffffffffffffff1681565b6105ea6107c9565b6105f46000610847565b565b60008060009054906101000a900473ffffffffffffffffffffffffffffffffffffffff16905090565b6106276107c9565b600073ffffffffffffffffffffffffffffffffffffffff168173ffffffffffffffffffffffffffffffffffffffff1603610696576040517f08c379a000000000000000000000000000000000000000000000000000000000815260040161068d90610e44565b60405180910390fd5b61069f81610847565b50565b6000600160009054906101000a900473ffffffffffffffffffffffffffffffffffffffff1673ffffffffffffffffffffffffffffffffffffffff1663cb66667f6040518163ffffffff1660e01b8152600401602060405180830381865afa158015610711573d6000803e3d6000fd5b505050506040513d601f19601f820116820180604052508101906107359190610da5565b905090565b6107426107c9565b80600160006101000a81548173ffffffffffffffffffffffffffffffffffffffff021916908373ffffffffffffffffffffffffffffffffffffffff1602179055508073ffffffffffffffffffffffffffffffffffffffff167ff3bce77a2d0c5efdfdda089c1d23393e797d1bb2b48f08d85a3d1a1218b6361860405160405180910390a250565b6107d161090b565b73ffffffffffffffffffffffffffffffffffffffff166107ef6105f6565b73ffffffffffffffffffffffffffffffffffffffff1614610845576040517f08c379a000000000000000000000000000000000000000000000000000000000815260040161083c90610eb0565b60405180910390fd5b565b60008060009054906101000a900473ffffffffffffffffffffffffffffffffffffffff169050816000806101000a81548173ffffffffffffffffffffffffffffffffffffffff021916908373ffffffffffffffffffffffffffffffffffffffff1602179055508173ffffffffffffffffffffffffffffffffffffffff168173ffffffffffffffffffffffffffffffffffffffff167f8be0079c531659141344cd1fd0a4f28419497f9722a3daafe3b4186f6b6457e060405160405180910390a35050565b600033905090565b6000604051905090565b600080fd5b600080fd5b600080fd5b600080fd5b6000601f19601f8301169050919050565b7f4e487b7100000000000000000000000000000000000000000000000000000000600052604160045260246000fd5b61097a82610931565b810181811067ffffffffffffffff8211171561099957610998610942565b5b80604052505050565b60006109ac610913565b90506109b88282610971565b919050565b600067ffffffffffffffff8211156109d8576109d7610942565b5b6109e182610931565b9050602081019050919050565b82818337600083830152505050565b6000610a10610a0b846109bd565b6109a2565b905082815260208101848484011115610a2c57610a2b61092c565b5b610a378482856109ee565b509392505050565b600082601f830112610a5457610a53610927565b5b8135610a648482602086016109fd565b91505092915050565b600060208284031215610a8357610a8261091d565b5b600082013567ffffffffffffffff811115610aa157610aa0610922565b5b610aad84828501610a3f565b91505092915050565b600073ffffffffffffffffffffffffffffffffffffffff82169050919050565b6000610ae182610ab6565b9050919050565b610af181610ad6565b8114610afc57600080fd5b50565b600081359050610b0e81610ae8565b92915050565b6000819050919050565b610b2781610b14565b8114610b3257600080fd5b50565b600081359050610b4481610b1e565b92915050565b60008060408385031215610b6157610b6061091d565b5b6000610b6f85828601610aff565b9250506020610b8085828601610b35565b9150509250929050565b6000610b9582610ab6565b9050919050565b610ba581610b8a565b82525050565b6000602082019050610bc06000830184610b9c565b92915050565b610bcf81610b14565b82525050565b6000602082019050610bea6000830184610bc6565b92915050565b610bf981610b8a565b8114610c0457600080fd5b50565b600081359050610c1681610bf0565b92915050565b600060208284031215610c3257610c3161091d565b5b6000610c4084828501610c07565b91505092915050565b6000819050919050565b6000819050919050565b6000610c78610c73610c6e84610c49565b610c53565b610b14565b9050919050565b610c8881610c5d565b82525050565b6000602082019050610ca36000830184610c7f565b92915050565b600081519050919050565b600082825260208201905092915050565b60005b83811015610ce3578082015181840152602081019050610cc8565b60008484015250505050565b6000610cfa82610ca9565b610d048185610cb4565b9350610d14818560208601610cc5565b610d1d81610931565b840191505092915050565b60006040820190508181036000830152610d428185610cef565b9050610d516020830184610bc6565b9392505050565b610d6181610ad6565b82525050565b6000604082019050610d7c6000830185610d58565b610d896020830184610bc6565b9392505050565b600081519050610d9f81610b1e565b92915050565b600060208284031215610dbb57610dba61091d565b5b6000610dc984828501610d90565b91505092915050565b7f4f776e61626c653a206e6577206f776e657220697320746865207a65726f206160008201527f6464726573730000000000000000000000000000000000000000000000000000602082015250565b6000610e2e602683610cb4565b9150610e3982610dd2565b604082019050919050565b60006020820190508181036000830152610e5d81610e21565b9050919050565b7f4f776e61626c653a2063616c6c6572206973206e6f7420746865206f776e6572600082015250565b6000610e9a602083610cb4565b9150610ea582610e64565b602082019050919050565b60006020820190508181036000830152610ec981610e8d565b905091905056fea2646970667358221220b80a87cc4ea335ee3a96a3d5f2d074010899b4bf371fc44774871209dd1a2d7564736f6c63430008140033",
  "linkReferences": {},
  "deployedLinkReferences": {}
}