{
  "_format": "hh-sol-artifact-1",
  "contractName": "HyperCoinSDSIS",
  "sourceName": "contracts/HyperCoinSDSIS.sol",
  "abi": [
    {
      "inputs": [],
      "stateMutability": "nonpayable",
      "type": "constructor"
    },
    {
      "inputs": [
        {
          "internalType": "uint256",
          "name": "",
          "type": "uint256"
        }
      ],
      "name": "applications",
      "outputs": [
        {
          "internalType": "address",
          "name": "government",
          "type": "address"
        },
        {
          "internalType": "uint256",
          "name": "stakedAmount",
          "type": "uint256"
        },
        {
          "internalType": "uint256",
          "name": "initialDebt",
          "type": "uint256"
        },
        {
          "internalType": "bool",
          "name": "approved",
          "type": "bool"
        }
      ],
      "stateMutability": "view",
      "type": "function"
    },
    {
      "inputs": [
        {
          "internalType": "uint256",
          "name": "debtAmount",
          "type": "uint256"
        }
      ],
      "name": "applyForSDSIS",
      "outputs": [],
      "stateMutability": "nonpayable",
      "type": "function"
    },
    {
      "inputs": [
        {
          "internalType": "address",
          "name": "_gov",
          "type": "address"
        }
      ],
      "name": "approveGovernment",
      "outputs": [],
      "stateMutability": "nonpayable",
      "type": "function"
    },
    {
      "inputs": [
        {
          "internalType": "address",
          "name": "",
          "type": "address"
        }
      ],
      "name": "citizenDistributions",
      "outputs": [
        {
          "internalType": "uint256",
          "name": "",
          "type": "uint256"
        }
      ],
      "stateMutability": "view",
      "type": "function"
    },
    {
      "inputs": [],
      "name": "citizenSharePercentage",
      "outputs": [
        {
          "internalType": "uint256",
          "name": "",
          "type": "uint256"
        }
      ],
      "stateMutability": "view",
      "type": "function"
    },
    {
      "inputs": [],
      "name": "distributeFunds",
      "outputs": [],
      "stateMutability": "nonpayable",
      "type": "function"
    },
    {
      "inputs": [
        {
          "internalType": "address",
          "name": "_wallet",
          "type": "address"
        }
      ],
      "name": "flagWallet",
      "outputs": [],
      "stateMutability": "nonpayable",
      "type": "function"
    },
    {
      "inputs": [
        {
          "internalType": "address",
          "name": "",
          "type": "address"
        }
      ],
      "name": "flaggedWallets",
      "outputs": [
        {
          "internalType": "bool",
          "name": "",
          "type": "bool"
        }
      ],
      "stateMutability": "view",
      "type": "function"
    },
    {
      "inputs": [],
      "name": "governance",
      "outputs": [
        {
          "internalType": "address",
          "name": "",
          "type": "address"
        }
      ],
      "stateMutability": "view",
      "type": "function"
    },
    {
      "inputs": [],
      "name": "governmentSharePercentage",
      "outputs": [
        {
          "internalType": "uint256",
          "name": "",
          "type": "uint256"
        }
      ],
      "stateMutability": "view",
      "type": "function"
    },
    {
      "inputs": [
        {
          "internalType": "uint256",
          "name": "amount",
          "type": "uint256"
        }
      ],
      "name": "stakeHyperCoin",
      "outputs": [],
      "stateMutability": "nonpayable",
      "type": "function"
    },
    {
      "inputs": [
        {
          "internalType": "address",
          "name": "",
          "type": "address"
        }
      ],
      "name": "stakes",
      "outputs": [
        {
          "internalType": "uint256",
          "name": "",
          "type": "uint256"
        }
      ],
      "stateMutability": "view",
      "type": "function"
    },
    {
      "inputs": [],
      "name": "totalLiquidityPool",
      "outputs": [
        {
          "internalType": "uint256",
          "name": "",
          "type": "uint256"
        }
      ],
      "stateMutability": "view",
      "type": "function"
    },
    {
      "inputs": [
        {
          "internalType": "address",
          "name": "_wallet",
          "type": "address"
        }
      ],
      "name": "unflagWallet",
      "outputs": [],
      "stateMutability": "nonpayable",
      "type": "function"
    },
    {
      "inputs": [
        {
          "internalType": "address",
          "name": "_gov",
          "type": "address"
        },
        {
          "internalType": "bool",
          "name": "isRestricted",
          "type": "bool"
        }
      ],
      "name": "updateWartimeRestrictions",
      "outputs": [],
      "stateMutability": "nonpayable",
      "type": "function"
    },
    {
      "inputs": [
        {
          "internalType": "address",
          "name": "",
          "type": "address"
        }
      ],
      "name": "verifiedGovernments",
      "outputs": [
        {
          "internalType": "bool",
          "name": "",
          "type": "bool"
        }
      ],
      "stateMutability": "view",
      "type": "function"
    }
  ],
  "bytecode": "0x6080604052601e600655604660075534801561001a57600080fd5b50336000806101000a81548173ffffffffffffffffffffffffffffffffffffffff021916908373ffffffffffffffffffffffffffffffffffffffff16021790555061127f8061006a6000396000f3fe608060405234801561001057600080fd5b50600436106101005760003560e01c80636fe075e911610097578063dfefadff11610066578063dfefadff14610285578063e0762629146102b8578063e93bdb2d146102d6578063eab0a3bc146102f257610100565b80636fe075e914610201578063921cbe0b1461021d578063d385012e14610239578063dcee8e881461025557610100565b80634d809425116100d35780634d809425146101795780635aa6e67514610197578063605f946d146101b55780636b97cfbe146101d157610100565b806316934fc4146101055780631ef7b430146101355780633a6a4d2e146101535780633be0f79b1461015d575b600080fd5b61011f600480360381019061011a9190610dad565b610322565b60405161012c9190610df3565b60405180910390f35b61013d61033a565b60405161014a9190610df3565b60405180910390f35b61015b610340565b005b61017760048036038101906101729190610dad565b6105ab565b005b610181610694565b60405161018e9190610df3565b60405180910390f35b61019f61069a565b6040516101ac9190610e1d565b60405180910390f35b6101cf60048036038101906101ca9190610dad565b6106be565b005b6101eb60048036038101906101e69190610dad565b610886565b6040516101f89190610e53565b60405180910390f35b61021b60048036038101906102169190610dad565b6108a6565b005b61023760048036038101906102329190610e9a565b61098f565b005b610253600480360381019061024e9190610e9a565b610a44565b005b61026f600480360381019061026a9190610dad565b610bf5565b60405161027c9190610e53565b60405180910390f35b61029f600480360381019061029a9190610e9a565b610c15565b6040516102af9493929190610ec7565b60405180910390f35b6102c0610c82565b6040516102cd9190610df3565b60405180910390f35b6102f060048036038101906102eb9190610f38565b610c88565b005b61030c60048036038101906103079190610dad565b610d32565b6040516103199190610df3565b60405180910390f35b60016020528060005260406000206000915090505481565b60055481565b60008054906101000a900473ffffffffffffffffffffffffffffffffffffffff1673ffffffffffffffffffffffffffffffffffffffff163373ffffffffffffffffffffffffffffffffffffffff16146103ce576040517f08c379a00000000000000000000000000000000000000000000000000000000081526004016103c590610fd5565b60405180910390fd5b600060646006546005546103e29190611024565b6103ec9190611095565b9050600060646007546005546104029190611024565b61040c9190611095565b905060005b6008805490508110156104f65760088181548110610432576104316110c6565b5b906000526020600020906004020160030160009054906101000a900460ff16156104e3576008818154811061046a576104696110c6565b5b906000526020600020906004020160000160009054906101000a900473ffffffffffffffffffffffffffffffffffffffff1673ffffffffffffffffffffffffffffffffffffffff166108fc849081150290604051600060405180830381858888f193505050501580156104e1573d6000803e3d6000fd5b505b80806104ee906110f5565b915050610411565b5060005b6008805490508110156105a6576008818154811061051b5761051a6110c6565b5b906000526020600020906004020160000160009054906101000a900473ffffffffffffffffffffffffffffffffffffffff1673ffffffffffffffffffffffffffffffffffffffff166108fc839081150290604051600060405180830381858888f19350505050158015610592573d6000803e3d6000fd5b50808061059e906110f5565b9150506104fa565b505050565b60008054906101000a900473ffffffffffffffffffffffffffffffffffffffff1673ffffffffffffffffffffffffffffffffffffffff163373ffffffffffffffffffffffffffffffffffffffff1614610639576040517f08c379a000000000000000000000000000000000000000000000000000000000815260040161063090610fd5565b60405180910390fd5b6000600460008373ffffffffffffffffffffffffffffffffffffffff1673ffffffffffffffffffffffffffffffffffffffff16815260200190815260200160002060006101000a81548160ff02191690831515021790555050565b60065481565b60008054906101000a900473ffffffffffffffffffffffffffffffffffffffff1681565b60008054906101000a900473ffffffffffffffffffffffffffffffffffffffff1673ffffffffffffffffffffffffffffffffffffffff163373ffffffffffffffffffffffffffffffffffffffff161461074c576040517f08c379a000000000000000000000000000000000000000000000000000000000815260040161074390610fd5565b60405180910390fd5b60005b600880549050811015610882578173ffffffffffffffffffffffffffffffffffffffff1660088281548110610787576107866110c6565b5b906000526020600020906004020160000160009054906101000a900473ffffffffffffffffffffffffffffffffffffffff1673ffffffffffffffffffffffffffffffffffffffff160361086f576001600882815481106107ea576107e96110c6565b5b906000526020600020906004020160030160006101000a81548160ff0219169083151502179055506001600260008473ffffffffffffffffffffffffffffffffffffffff1673ffffffffffffffffffffffffffffffffffffffff16815260200190815260200160002060006101000a81548160ff021916908315150217905550610882565b808061087a906110f5565b91505061074f565b5050565b60026020528060005260406000206000915054906101000a900460ff1681565b60008054906101000a900473ffffffffffffffffffffffffffffffffffffffff1673ffffffffffffffffffffffffffffffffffffffff163373ffffffffffffffffffffffffffffffffffffffff1614610934576040517f08c379a000000000000000000000000000000000000000000000000000000000815260040161092b90610fd5565b60405180910390fd5b6001600460008373ffffffffffffffffffffffffffffffffffffffff1673ffffffffffffffffffffffffffffffffffffffff16815260200190815260200160002060006101000a81548160ff02191690831515021790555050565b600081116109d2576040517f08c379a00000000000000000000000000000000000000000000000000000000081526004016109c990611189565b60405180910390fd5b80600160003373ffffffffffffffffffffffffffffffffffffffff1673ffffffffffffffffffffffffffffffffffffffff1681526020019081526020016000206000828254610a2191906111a9565b925050819055508060056000828254610a3a91906111a9565b9250508190555050565b600260003373ffffffffffffffffffffffffffffffffffffffff1673ffffffffffffffffffffffffffffffffffffffff16815260200190815260200160002060009054906101000a900460ff1615610ad1576040517f08c379a0000000000000000000000000000000000000000000000000000000008152600401610ac890611229565b60405180910390fd5b600860405180608001604052803373ffffffffffffffffffffffffffffffffffffffff168152602001600160003373ffffffffffffffffffffffffffffffffffffffff1673ffffffffffffffffffffffffffffffffffffffff16815260200190815260200160002054815260200183815260200160001515815250908060018154018082558091505060019003906000526020600020906004020160009091909190915060008201518160000160006101000a81548173ffffffffffffffffffffffffffffffffffffffff021916908373ffffffffffffffffffffffffffffffffffffffff160217905550602082015181600101556040820151816002015560608201518160030160006101000a81548160ff021916908315150217905550505050565b60046020528060005260406000206000915054906101000a900460ff1681565b60088181548110610c2557600080fd5b90600052602060002090600402016000915090508060000160009054906101000a900473ffffffffffffffffffffffffffffffffffffffff16908060010154908060020154908060030160009054906101000a900460ff16905084565b60075481565b60008054906101000a900473ffffffffffffffffffffffffffffffffffffffff1673ffffffffffffffffffffffffffffffffffffffff163373ffffffffffffffffffffffffffffffffffffffff1614610d16576040517f08c379a0000000000000000000000000000000000000000000000000000000008152600401610d0d90610fd5565b60405180910390fd5b80610d2257601e610d25565b600f5b60ff166006819055505050565b60036020528060005260406000206000915090505481565b600080fd5b600073ffffffffffffffffffffffffffffffffffffffff82169050919050565b6000610d7a82610d4f565b9050919050565b610d8a81610d6f565b8114610d9557600080fd5b50565b600081359050610da781610d81565b92915050565b600060208284031215610dc357610dc2610d4a565b5b6000610dd184828501610d98565b91505092915050565b6000819050919050565b610ded81610dda565b82525050565b6000602082019050610e086000830184610de4565b92915050565b610e1781610d6f565b82525050565b6000602082019050610e326000830184610e0e565b92915050565b60008115159050919050565b610e4d81610e38565b82525050565b6000602082019050610e686000830184610e44565b92915050565b610e7781610dda565b8114610e8257600080fd5b50565b600081359050610e9481610e6e565b92915050565b600060208284031215610eb057610eaf610d4a565b5b6000610ebe84828501610e85565b91505092915050565b6000608082019050610edc6000830187610e0e565b610ee96020830186610de4565b610ef66040830185610de4565b610f036060830184610e44565b95945050505050565b610f1581610e38565b8114610f2057600080fd5b50565b600081359050610f3281610f0c565b92915050565b60008060408385031215610f4f57610f4e610d4a565b5b6000610f5d85828601610d98565b9250506020610f6e85828601610f23565b9150509250929050565b600082825260208201905092915050565b7f4f6e6c7920676f7665726e616e63652063616e2063616c6c2074686973000000600082015250565b6000610fbf601d83610f78565b9150610fca82610f89565b602082019050919050565b60006020820190508181036000830152610fee81610fb2565b9050919050565b7f4e487b7100000000000000000000000000000000000000000000000000000000600052601160045260246000fd5b600061102f82610dda565b915061103a83610dda565b925082820261104881610dda565b9150828204841483151761105f5761105e610ff5565b5b5092915050565b7f4e487b7100000000000000000000000000000000000000000000000000000000600052601260045260246000fd5b60006110a082610dda565b91506110ab83610dda565b9250826110bb576110ba611066565b5b828204905092915050565b7f4e487b7100000000000000000000000000000000000000000000000000000000600052603260045260246000fd5b600061110082610dda565b91507fffffffffffffffffffffffffffffffffffffffffffffffffffffffffffffffff820361113257611131610ff5565b5b600182019050919050565b7f5374616b6520706f736974697665000000000000000000000000000000000000600082015250565b6000611173600e83610f78565b915061117e8261113d565b602082019050919050565b600060208201905081810360008301526111a281611166565b9050919050565b60006111b482610dda565b91506111bf83610dda565b92508282019050808211156111d7576111d6610ff5565b5b92915050565b7f416c72656164792070617274696369706174696e670000000000000000000000600082015250565b6000611213601583610f78565b915061121e826111dd565b602082019050919050565b6000602082019050818103600083015261124281611206565b905091905056fea2646970667358221220bcc4ef1caf35bc2a762902dae8a2d1afbe92833b9571d371a5837ca787fedd4864736f6c63430008140033",
  "linkReferences": {},
  "deployedLinkReferences": {}
}