{
  "_format": "hh-sol-artifact-1",
  "contractName": "InTax",
  "sourceName": "contracts/InTax.sol",
  "abi": [
    {
      "inputs": [
        {
          "internalType": "uint256",
          "name": "_initialRate",
          "type": "uint256"
        }
      ],
      "stateMutability": "nonpayable",
      "type": "constructor"
    },
    {
      "anonymous": false,
      "inputs": [
        {
          "indexed": true,
          "internalType": "address",
          "name": "from",
          "type": "address"
        },
        {
          "indexed": false,
          "internalType": "uint256",
          "name": "amount",
          "type": "uint256"
        }
      ],
      "name": "TaxCollected",
      "type": "event"
    },
    {
      "anonymous": false,
      "inputs": [
        {
          "indexed": false,
          "internalType": "uint256",
          "name": "newRate",
          "type": "uint256"
        }
      ],
      "name": "TaxUpdated",
      "type": "event"
    },
    {
      "anonymous": false,
      "inputs": [
        {
          "indexed": true,
          "internalType": "address",
          "name": "to",
          "type": "address"
        },
        {
          "indexed": false,
          "internalType": "uint256",
          "name": "amount",
          "type": "uint256"
        }
      ],
      "name": "TaxWithdrawn",
      "type": "event"
    },
    {
      "inputs": [],
      "name": "collectTax",
      "outputs": [],
      "stateMutability": "payable",
      "type": "function"
    },
    {
      "inputs": [],
      "name": "getBalance",
      "outputs": [
        {
          "internalType": "uint256",
          "name": "",
          "type": "uint256"
        }
      ],
      "stateMutability": "view",
      "type": "function"
    },
    {
      "inputs": [],
      "name": "getTaxRate",
      "outputs": [
        {
          "internalType": "uint256",
          "name": "",
          "type": "uint256"
        }
      ],
      "stateMutability": "view",
      "type": "function"
    },
    {
      "inputs": [],
      "name": "owner",
      "outputs": [
        {
          "internalType": "address",
          "name": "",
          "type": "address"
        }
      ],
      "stateMutability": "view",
      "type": "function"
    },
    {
      "inputs": [
        {
          "internalType": "uint256",
          "name": "_rate",
          "type": "uint256"
        }
      ],
      "name": "setTaxRate",
      "outputs": [],
      "stateMutability": "nonpayable",
      "type": "function"
    },
    {
      "inputs": [
        {
          "internalType": "address",
          "name": "",
          "type": "address"
        }
      ],
      "name": "taxBalance",
      "outputs": [
        {
          "internalType": "uint256",
          "name": "",
          "type": "uint256"
        }
      ],
      "stateMutability": "view",
      "type": "function"
    },
    {
      "inputs": [],
      "name": "taxRate",
      "outputs": [
        {
          "internalType": "uint256",
          "name": "",
          "type": "uint256"
        }
      ],
      "stateMutability": "view",
      "type": "function"
    },
    {
      "inputs": [
        {
          "internalType": "address payable",
          "name": "to",
          "type": "address"
        },
        {
          "internalType": "uint256",
          "name": "amount",
          "type": "uint256"
        }
      ],
      "name": "withdrawTax",
      "outputs": [],
      "stateMutability": "nonpayable",
      "type": "function"
    }
  ],
  "bytecode": "0x608060405234801561001057600080fd5b50604051610b02380380610b02833981810160405281019061003291906100bb565b33600160006101000a81548173ffffffffffffffffffffffffffffffffffffffff021916908373ffffffffffffffffffffffffffffffffffffffff16021790555080600081905550506100e8565b600080fd5b6000819050919050565b61009881610085565b81146100a357600080fd5b50565b6000815190506100b58161008f565b92915050565b6000602082840312156100d1576100d0610080565b5b60006100df848285016100a6565b91505092915050565b610a0b806100f76000396000f3fe60806040526004361061007b5760003560e01c8063771a3a1d1161004e578063771a3a1d1461011b5780638da5cb5b14610146578063c6d69a3014610171578063cb66667f1461019a5761007b565b806312065fe014610080578063216bc15d146100ab5780632a23c641146100e85780633d8705ab14610111575b600080fd5b34801561008c57600080fd5b506100956101c5565b6040516100a291906105bf565b60405180910390f35b3480156100b757600080fd5b506100d260048036038101906100cd919061063d565b6101cd565b6040516100df91906105bf565b60405180910390f35b3480156100f457600080fd5b5061010f600480360381019061010a91906106d4565b6101e5565b005b6101196103b7565b005b34801561012757600080fd5b506101306104a0565b60405161013d91906105bf565b60405180910390f35b34801561015257600080fd5b5061015b6104a6565b6040516101689190610723565b60405180910390f35b34801561017d57600080fd5b506101986004803603810190610193919061073e565b6104cc565b005b3480156101a657600080fd5b506101af61059d565b6040516101bc91906105bf565b60405180910390f35b600047905090565b60026020528060005260406000206000915090505481565b600160009054906101000a900473ffffffffffffffffffffffffffffffffffffffff1673ffffffffffffffffffffffffffffffffffffffff163373ffffffffffffffffffffffffffffffffffffffff1614610275576040517f08c379a000000000000000000000000000000000000000000000000000000000815260040161026c906107c8565b60405180910390fd5b804710156102b8576040517f08c379a00000000000000000000000000000000000000000000000000000000081526004016102af90610834565b60405180910390fd5b60008273ffffffffffffffffffffffffffffffffffffffff16826040516102de90610885565b60006040518083038185875af1925050503d806000811461031b576040519150601f19603f3d011682016040523d82523d6000602084013e610320565b606091505b5050905080610364576040517f08c379a000000000000000000000000000000000000000000000000000000000815260040161035b906108e6565b60405180910390fd5b8273ffffffffffffffffffffffffffffffffffffffff167f7c92e98c5b2af24a95052353679ff5120823a95efc7ab8c5ffbd698449edbce2836040516103aa91906105bf565b60405180910390a2505050565b600034116103fa576040517f08c379a00000000000000000000000000000000000000000000000000000000081526004016103f190610952565b60405180910390fd5b34600260003373ffffffffffffffffffffffffffffffffffffffff1673ffffffffffffffffffffffffffffffffffffffff168152602001908152602001600020600082825461044991906109a1565b925050819055503373ffffffffffffffffffffffffffffffffffffffff167f7f1b726f82f7a14636a7a5932448f1bce683188520ba3150fd8423989353ebf23460405161049691906105bf565b60405180910390a2565b60005481565b600160009054906101000a900473ffffffffffffffffffffffffffffffffffffffff1681565b600160009054906101000a900473ffffffffffffffffffffffffffffffffffffffff1673ffffffffffffffffffffffffffffffffffffffff163373ffffffffffffffffffffffffffffffffffffffff161461055c576040517f08c379a0000000000000000000000000000000000000000000000000000000008152600401610553906107c8565b60405180910390fd5b806000819055507f35ad15e7f5e4a16b548e8916bd02c51847dde8d106f334b4edaaacf140e43c918160405161059291906105bf565b60405180910390a150565b60008054905090565b6000819050919050565b6105b9816105a6565b82525050565b60006020820190506105d460008301846105b0565b92915050565b600080fd5b600073ffffffffffffffffffffffffffffffffffffffff82169050919050565b600061060a826105df565b9050919050565b61061a816105ff565b811461062557600080fd5b50565b60008135905061063781610611565b92915050565b600060208284031215610653576106526105da565b5b600061066184828501610628565b91505092915050565b6000610675826105df565b9050919050565b6106858161066a565b811461069057600080fd5b50565b6000813590506106a28161067c565b92915050565b6106b1816105a6565b81146106bc57600080fd5b50565b6000813590506106ce816106a8565b92915050565b600080604083850312156106eb576106ea6105da565b5b60006106f985828601610693565b925050602061070a858286016106bf565b9150509250929050565b61071d816105ff565b82525050565b60006020820190506107386000830184610714565b92915050565b600060208284031215610754576107536105da565b5b6000610762848285016106bf565b91505092915050565b600082825260208201905092915050565b7f4e6f74206f776e65720000000000000000000000000000000000000000000000600082015250565b60006107b260098361076b565b91506107bd8261077c565b602082019050919050565b600060208201905081810360008301526107e1816107a5565b9050919050565b7f496e73756666696369656e742062616c616e6365000000000000000000000000600082015250565b600061081e60148361076b565b9150610829826107e8565b602082019050919050565b6000602082019050818103600083015261084d81610811565b9050919050565b600081905092915050565b50565b600061086f600083610854565b915061087a8261085f565b600082019050919050565b600061089082610862565b9150819050919050565b7f5472616e73666572206661696c65640000000000000000000000000000000000600082015250565b60006108d0600f8361076b565b91506108db8261089a565b602082019050919050565b600060208201905081810360008301526108ff816108c3565b9050919050565b7f4e6f207461782073656e74000000000000000000000000000000000000000000600082015250565b600061093c600b8361076b565b915061094782610906565b602082019050919050565b6000602082019050818103600083015261096b8161092f565b9050919050565b7f4e487b7100000000000000000000000000000000000000000000000000000000600052601160045260246000fd5b60006109ac826105a6565b91506109b7836105a6565b92508282019050808211156109cf576109ce610972565b5b9291505056fea264697066735822122018f7551affc3deeb408b3dc70f6cae262b9763716855871b47146ca294fddb8264736f6c63430008140033",
  "linkReferences": {},
  "deployedLinkReferences": {}
}