{
  "_format": "hh-sol-artifact-1",
  "contractName": "KREDSEcosystem",
  "sourceName": "contracts/KREDSEcosystem.sol",
  "abi": [
    {
      "inputs": [
        {
          "internalType": "address",
          "name": "_kreds",
          "type": "address"
        },
        {
          "internalType": "address",
          "name": "_intax",
          "type": "address"
        },
        {
          "internalType": "address",
          "name": "_bitBond",
          "type": "address"
        },
        {
          "internalType": "address",
          "name": "_dao",
          "type": "address"
        },
        {
          "internalType": "address",
          "name": "_sdsis",
          "type": "address"
        },
        {
          "internalType": "address",
          "name": "_profitValidator",
          "type": "address"
        }
      ],
      "stateMutability": "nonpayable",
      "type": "constructor"
    },
    {
      "anonymous": false,
      "inputs": [
        {
          "indexed": false,
          "internalType": "address",
          "name": "kreds",
          "type": "address"
        },
        {
          "indexed": false,
          "internalType": "address",
          "name": "intax",
          "type": "address"
        },
        {
          "indexed": false,
          "internalType": "address",
          "name": "bitBond",
          "type": "address"
        },
        {
          "indexed": false,
          "internalType": "address",
          "name": "dao",
          "type": "address"
        },
        {
          "indexed": false,
          "internalType": "address",
          "name": "sdsis",
          "type": "address"
        }
      ],
      "name": "ComponentsInitialized",
      "type": "event"
    },
    {
      "anonymous": false,
      "inputs": [
        {
          "indexed": true,
          "internalType": "address",
          "name": "previousOwner",
          "type": "address"
        },
        {
          "indexed": true,
          "internalType": "address",
          "name": "newOwner",
          "type": "address"
        }
      ],
      "name": "OwnershipTransferred",
      "type": "event"
    },
    {
      "inputs": [],
      "name": "bitBond",
      "outputs": [
        {
          "internalType": "contract BitBond",
          "name": "",
          "type": "address"
        }
      ],
      "stateMutability": "view",
      "type": "function"
    },
    {
      "inputs": [],
      "name": "dao",
      "outputs": [
        {
          "internalType": "contract HyperCoinDAO",
          "name": "",
          "type": "address"
        }
      ],
      "stateMutability": "view",
      "type": "function"
    },
    {
      "inputs": [],
      "name": "ecosystemStatus",
      "outputs": [
        {
          "internalType": "address",
          "name": "",
          "type": "address"
        },
        {
          "internalType": "address",
          "name": "",
          "type": "address"
        },
        {
          "internalType": "address",
          "name": "",
          "type": "address"
        },
        {
          "internalType": "address",
          "name": "",
          "type": "address"
        },
        {
          "internalType": "address",
          "name": "",
          "type": "address"
        },
        {
          "internalType": "address",
          "name": "",
          "type": "address"
        }
      ],
      "stateMutability": "view",
      "type": "function"
    },
    {
      "inputs": [],
      "name": "intax",
      "outputs": [
        {
          "internalType": "contract InTax",
          "name": "",
          "type": "address"
        }
      ],
      "stateMutability": "view",
      "type": "function"
    },
    {
      "inputs": [],
      "name": "kreds",
      "outputs": [
        {
          "internalType": "contract KREDS",
          "name": "",
          "type": "address"
        }
      ],
      "stateMutability": "view",
      "type": "function"
    },
    {
      "inputs": [],
      "name": "owner",
      "outputs": [
        {
          "internalType": "address",
          "name": "",
          "type": "address"
        }
      ],
      "stateMutability": "view",
      "type": "function"
    },
    {
      "inputs": [],
      "name": "profitValidator",
      "outputs": [
        {
          "internalType": "address",
          "name": "",
          "type": "address"
        }
      ],
      "stateMutability": "view",
      "type": "function"
    },
    {
      "inputs": [],
      "name": "renounceOwnership",
      "outputs": [],
      "stateMutability": "nonpayable",
      "type": "function"
    },
    {
      "inputs": [],
      "name": "sdsis",
      "outputs": [
        {
          "internalType": "contract HyperCoinSDSIS",
          "name": "",
          "type": "address"
        }
      ],
      "stateMutability": "view",
      "type": "function"
    },
    {
      "inputs": [
        {
          "internalType": "address",
          "name": "newValidator",
          "type": "address"
        }
      ],
      "name": "syncValidator",
      "outputs": [],
      "stateMutability": "nonpayable",
      "type": "function"
    },
    {
      "inputs": [
        {
          "internalType": "address",
          "name": "newOwner",
          "type": "address"
        }
      ],
      "name": "transferOwnership",
      "outputs": [],
      "stateMutability": "nonpayable",
      "type": "function"
    }
  ],
  "bytecode": "0x60806040523480156200001157600080fd5b5060405162000e5238038062000e52833981810160405281019062000037919062000360565b620000576200004b6200022a60201b60201c565b6200023260201b60201c565b85600160006101000a81548173ffffffffffffffffffffffffffffffffffffffff021916908373ffffffffffffffffffffffffffffffffffffffff16021790555084600260006101000a81548173ffffffffffffffffffffffffffffffffffffffff021916908373ffffffffffffffffffffffffffffffffffffffff16021790555083600360006101000a81548173ffffffffffffffffffffffffffffffffffffffff021916908373ffffffffffffffffffffffffffffffffffffffff16021790555082600460006101000a81548173ffffffffffffffffffffffffffffffffffffffff021916908373ffffffffffffffffffffffffffffffffffffffff16021790555081600560006101000a81548173ffffffffffffffffffffffffffffffffffffffff021916908373ffffffffffffffffffffffffffffffffffffffff16021790555080600660006101000a81548173ffffffffffffffffffffffffffffffffffffffff021916908373ffffffffffffffffffffffffffffffffffffffff1602179055507fdf461d681a420bf5f8919e2c0ce9f0f860b2ad599f26d40aafccb668e43486458686868686604051620002169594939291906200040d565b60405180910390a15050505050506200046a565b600033905090565b60008060009054906101000a900473ffffffffffffffffffffffffffffffffffffffff169050816000806101000a81548173ffffffffffffffffffffffffffffffffffffffff021916908373ffffffffffffffffffffffffffffffffffffffff1602179055508173ffffffffffffffffffffffffffffffffffffffff168173ffffffffffffffffffffffffffffffffffffffff167f8be0079c531659141344cd1fd0a4f28419497f9722a3daafe3b4186f6b6457e060405160405180910390a35050565b600080fd5b600073ffffffffffffffffffffffffffffffffffffffff82169050919050565b60006200032882620002fb565b9050919050565b6200033a816200031b565b81146200034657600080fd5b50565b6000815190506200035a816200032f565b92915050565b60008060008060008060c0878903121562000380576200037f620002f6565b5b60006200039089828a0162000349565b9650506020620003a389828a0162000349565b9550506040620003b689828a0162000349565b9450506060620003c989828a0162000349565b9350506080620003dc89828a0162000349565b92505060a0620003ef89828a0162000349565b9150509295509295509295565b62000407816200031b565b82525050565b600060a082019050620004246000830188620003fc565b620004336020830187620003fc565b620004426040830186620003fc565b620004516060830185620003fc565b620004606080830184620003fc565b9695505050505050565b6109d8806200047a6000396000f3fe608060405234801561001057600080fd5b50600436106100a95760003560e01c806376d0050a1161007157806376d0050a14610130578063896282601461014c5780638da5cb5b1461016a578063a38dd10a14610188578063ca661474146101a6578063f2fde38b146101c9576100a9565b80630d75bcf7146100ae5780634162169f146100cc5780634c26d418146100ea57806366d8a3a114610108578063715018a614610126575b600080fd5b6100b66101e5565b6040516100c3919061068d565b60405180910390f35b6100d461020b565b6040516100e191906106c9565b60405180910390f35b6100f2610231565b6040516100ff9190610705565b60405180910390f35b610110610257565b60405161011d9190610741565b60405180910390f35b61012e61027d565b005b61014a6004803603810190610145919061079f565b610291565b005b6101546102dd565b60405161016191906107db565b60405180910390f35b610172610303565b60405161017f91906107db565b60405180910390f35b61019061032c565b60405161019d9190610817565b60405180910390f35b6101ae610352565b6040516101c096959493929190610832565b60405180910390f35b6101e360048036038101906101de919061079f565b610441565b005b600160009054906101000a900473ffffffffffffffffffffffffffffffffffffffff1681565b600460009054906101000a900473ffffffffffffffffffffffffffffffffffffffff1681565b600560009054906101000a900473ffffffffffffffffffffffffffffffffffffffff1681565b600360009054906101000a900473ffffffffffffffffffffffffffffffffffffffff1681565b6102856104c4565b61028f6000610542565b565b6102996104c4565b80600660006101000a81548173ffffffffffffffffffffffffffffffffffffffff021916908373ffffffffffffffffffffffffffffffffffffffff16021790555050565b600660009054906101000a900473ffffffffffffffffffffffffffffffffffffffff1681565b60008060009054906101000a900473ffffffffffffffffffffffffffffffffffffffff16905090565b600260009054906101000a900473ffffffffffffffffffffffffffffffffffffffff1681565b600080600080600080600160009054906101000a900473ffffffffffffffffffffffffffffffffffffffff16600260009054906101000a900473ffffffffffffffffffffffffffffffffffffffff16600360009054906101000a900473ffffffffffffffffffffffffffffffffffffffff16600460009054906101000a900473ffffffffffffffffffffffffffffffffffffffff16600560009054906101000a900473ffffffffffffffffffffffffffffffffffffffff16600660009054906101000a900473ffffffffffffffffffffffffffffffffffffffff16955095509550955095509550909192939495565b6104496104c4565b600073ffffffffffffffffffffffffffffffffffffffff168173ffffffffffffffffffffffffffffffffffffffff16036104b8576040517f08c379a00000000000000000000000000000000000000000000000000000000081526004016104af90610916565b60405180910390fd5b6104c181610542565b50565b6104cc610606565b73ffffffffffffffffffffffffffffffffffffffff166104ea610303565b73ffffffffffffffffffffffffffffffffffffffff1614610540576040517f08c379a000000000000000000000000000000000000000000000000000000000815260040161053790610982565b60405180910390fd5b565b60008060009054906101000a900473ffffffffffffffffffffffffffffffffffffffff169050816000806101000a81548173ffffffffffffffffffffffffffffffffffffffff021916908373ffffffffffffffffffffffffffffffffffffffff1602179055508173ffffffffffffffffffffffffffffffffffffffff168173ffffffffffffffffffffffffffffffffffffffff167f8be0079c531659141344cd1fd0a4f28419497f9722a3daafe3b4186f6b6457e060405160405180910390a35050565b600033905090565b600073ffffffffffffffffffffffffffffffffffffffff82169050919050565b6000819050919050565b600061065361064e6106498461060e565b61062e565b61060e565b9050919050565b600061066582610638565b9050919050565b60006106778261065a565b9050919050565b6106878161066c565b82525050565b60006020820190506106a2600083018461067e565b92915050565b60006106b38261065a565b9050919050565b6106c3816106a8565b82525050565b60006020820190506106de60008301846106ba565b92915050565b60006106ef8261065a565b9050919050565b6106ff816106e4565b82525050565b600060208201905061071a60008301846106f6565b92915050565b600061072b8261065a565b9050919050565b61073b81610720565b82525050565b60006020820190506107566000830184610732565b92915050565b600080fd5b600061076c8261060e565b9050919050565b61077c81610761565b811461078757600080fd5b50565b60008135905061079981610773565b92915050565b6000602082840312156107b5576107b461075c565b5b60006107c38482850161078a565b91505092915050565b6107d581610761565b82525050565b60006020820190506107f060008301846107cc565b92915050565b60006108018261065a565b9050919050565b610811816107f6565b82525050565b600060208201905061082c6000830184610808565b92915050565b600060c08201905061084760008301896107cc565b61085460208301886107cc565b61086160408301876107cc565b61086e60608301866107cc565b61087b60808301856107cc565b61088860a08301846107cc565b979650505050505050565b600082825260208201905092915050565b7f4f776e61626c653a206e6577206f776e657220697320746865207a65726f206160008201527f6464726573730000000000000000000000000000000000000000000000000000602082015250565b6000610900602683610893565b915061090b826108a4565b604082019050919050565b6000602082019050818103600083015261092f816108f3565b9050919050565b7f4f776e61626c653a2063616c6c6572206973206e6f7420746865206f776e6572600082015250565b600061096c602083610893565b915061097782610936565b602082019050919050565b6000602082019050818103600083015261099b8161095f565b905091905056fea2646970667358221220ff1cb502b2fb47b70fd7acef1c4e65bfd0b3b6322c358759601399219915ca6a64736f6c63430008140033",
  "linkReferences": {},
  "deployedLinkReferences": {}
}