{
  "_format": "hh-sol-artifact-1",
  "contractName": "KREDS",
  "sourceName": "contracts/KREDS.sol",
  "abi": [
    {
      "inputs": [
        {
          "internalType": "address",
          "name": "initialOwner",
          "type": "address"
        }
      ],
      "stateMutability": "nonpayable",
      "type": "constructor"
    },
    {
      "anonymous": false,
      "inputs": [
        {
          "indexed": true,
          "internalType": "address",
          "name": "owner",
          "type": "address"
        },
        {
          "indexed": true,
          "internalType": "address",
          "name": "spender",
          "type": "address"
        },
        {
          "indexed": false,
          "internalType": "uint256",
          "name": "value",
          "type": "uint256"
        }
      ],
      "name": "Approval",
      "type": "event"
    },
    {
      "anonymous": false,
      "inputs": [
        {
          "indexed": true,
          "internalType": "address",
          "name": "previousOwner",
          "type": "address"
        },
        {
          "indexed": true,
          "internalType": "address",
          "name": "newOwner",
          "type": "address"
        }
      ],
      "name": "OwnershipTransferred",
      "type": "event"
    },
    {
      "anonymous": false,
      "inputs": [
        {
          "indexed": true,
          "internalType": "address",
          "name": "from",
          "type": "address"
        },
        {
          "indexed": true,
          "internalType": "address",
          "name": "to",
          "type": "address"
        },
        {
          "indexed": false,
          "internalType": "uint256",
          "name": "value",
          "type": "uint256"
        }
      ],
      "name": "Transfer",
      "type": "event"
    },
    {
      "inputs": [
        {
          "internalType": "address",
          "name": "owner",
          "type": "address"
        },
        {
          "internalType": "address",
          "name": "spender",
          "type": "address"
        }
      ],
      "name": "allowance",
      "outputs": [
        {
          "internalType": "uint256",
          "name": "",
          "type": "uint256"
        }
      ],
      "stateMutability": "view",
      "type": "function"
    },
    {
      "inputs": [
        {
          "internalType": "address",
          "name": "",
          "type": "address"
        }
      ],
      "name": "allowedMinters",
      "outputs": [
        {
          "internalType": "bool",
          "name": "",
          "type": "bool"
        }
      ],
      "stateMutability": "view",
      "type": "function"
    },
    {
      "inputs": [
        {
          "internalType": "address",
          "name": "spender",
          "type": "address"
        },
        {
          "internalType": "uint256",
          "name": "amount",
          "type": "uint256"
        }
      ],
      "name": "approve",
      "outputs": [
        {
          "internalType": "bool",
          "name": "",
          "type": "bool"
        }
      ],
      "stateMutability": "nonpayable",
      "type": "function"
    },
    {
      "inputs": [
        {
          "internalType": "address",
          "name": "account",
          "type": "address"
        }
      ],
      "name": "balanceOf",
      "outputs": [
        {
          "internalType": "uint256",
          "name": "",
          "type": "uint256"
        }
      ],
      "stateMutability": "view",
      "type": "function"
    },
    {
      "inputs": [
        {
          "internalType": "uint256",
          "name": "amount",
          "type": "uint256"
        }
      ],
      "name": "burn",
      "outputs": [],
      "stateMutability": "nonpayable",
      "type": "function"
    },
    {
      "inputs": [],
      "name": "decimals",
      "outputs": [
        {
          "internalType": "uint8",
          "name": "",
          "type": "uint8"
        }
      ],
      "stateMutability": "view",
      "type": "function"
    },
    {
      "inputs": [
        {
          "internalType": "address",
          "name": "spender",
          "type": "address"
        },
        {
          "internalType": "uint256",
          "name": "subtractedValue",
          "type": "uint256"
        }
      ],
      "name": "decreaseAllowance",
      "outputs": [
        {
          "internalType": "bool",
          "name": "",
          "type": "bool"
        }
      ],
      "stateMutability": "nonpayable",
      "type": "function"
    },
    {
      "inputs": [
        {
          "internalType": "address",
          "name": "spender",
          "type": "address"
        },
        {
          "internalType": "uint256",
          "name": "addedValue",
          "type": "uint256"
        }
      ],
      "name": "increaseAllowance",
      "outputs": [
        {
          "internalType": "bool",
          "name": "",
          "type": "bool"
        }
      ],
      "stateMutability": "nonpayable",
      "type": "function"
    },
    {
      "inputs": [
        {
          "internalType": "address",
          "name": "to",
          "type": "address"
        },
        {
          "internalType": "uint256",
          "name": "amount",
          "type": "uint256"
        }
      ],
      "name": "mint",
      "outputs": [],
      "stateMutability": "nonpayable",
      "type": "function"
    },
    {
      "inputs": [],
      "name": "name",
      "outputs": [
        {
          "internalType": "string",
          "name": "",
          "type": "string"
        }
      ],
      "stateMutability": "view",
      "type": "function"
    },
    {
      "inputs": [],
      "name": "owner",
      "outputs": [
        {
          "internalType": "address",
          "name": "",
          "type": "address"
        }
      ],
      "stateMutability": "view",
      "type": "function"
    },
    {
      "inputs": [],
      "name": "renounceOwnership",
      "outputs": [],
      "stateMutability": "nonpayable",
      "type": "function"
    },
    {
      "inputs": [
        {
          "internalType": "address",
          "name": "user",
          "type": "address"
        },
        {
          "internalType": "bool",
          "name": "status",
          "type": "bool"
        }
      ],
      "name": "setMinter",
      "outputs": [],
      "stateMutability": "nonpayable",
      "type": "function"
    },
    {
      "inputs": [
        {
          "internalType": "address",
          "name": "newValidator",
          "type": "address"
        }
      ],
      "name": "setValidator",
      "outputs": [],
      "stateMutability": "nonpayable",
      "type": "function"
    },
    {
      "inputs": [],
      "name": "symbol",
      "outputs": [
        {
          "internalType": "string",
          "name": "",
          "type": "string"
        }
      ],
      "stateMutability": "view",
      "type": "function"
    },
    {
      "inputs": [],
      "name": "totalSupply",
      "outputs": [
        {
          "internalType": "uint256",
          "name": "",
          "type": "uint256"
        }
      ],
      "stateMutability": "view",
      "type": "function"
    },
    {
      "inputs": [
        {
          "internalType": "address",
          "name": "to",
          "type": "address"
        },
        {
          "internalType": "uint256",
          "name": "amount",
          "type": "uint256"
        }
      ],
      "name": "transfer",
      "outputs": [
        {
          "internalType": "bool",
          "name": "",
          "type": "bool"
        }
      ],
      "stateMutability": "nonpayable",
      "type": "function"
    },
    {
      "inputs": [
        {
          "internalType": "address",
          "name": "from",
          "type": "address"
        },
        {
          "internalType": "address",
          "name": "to",
          "type": "address"
        },
        {
          "internalType": "uint256",
          "name": "amount",
          "type": "uint256"
        }
      ],
      "name": "transferFrom",
      "outputs": [
        {
          "internalType": "bool",
          "name": "",
          "type": "bool"
        }
      ],
      "stateMutability": "nonpayable",
      "type": "function"
    },
    {
      "inputs": [
        {
          "internalType": "address",
          "name": "newOwner",
          "type": "address"
        }
      ],
      "name": "transferOwnership",
      "outputs": [],
      "stateMutability": "nonpayable",
      "type": "function"
    },
    {
      "inputs": [],
      "name": "validator",
      "outputs": [
        {
          "internalType": "address",
          "name": "",
          "type": "address"
        }
      ],
      "stateMutability": "view",
      "type": "function"
    },
    {
      "inputs": [],
      "name": "validatorProfitRate",
      "outputs": [
        {
          "internalType": "uint256",
          "name": "",
          "type": "uint256"
        }
      ],
      "stateMutability": "view",
      "type": "function"
    }
  ],
  "bytecode": "0x60806040523480156200001157600080fd5b5060405162002dd438038062002dd4833981810160405281019062000037919062000439565b6040518060400160405280600581526020017f4b524544530000000000000000000000000000000000000000000000000000008152506040518060400160405280600581526020017f4b524544530000000000000000000000000000000000000000000000000000008152508160039081620000b49190620006e5565b508060049081620000c69190620006e5565b505050620000e9620000dd6200018160201b60201c565b6200018960201b60201c565b620000fa816200018960201b60201c565b80600660006101000a81548173ffffffffffffffffffffffffffffffffffffffff021916908373ffffffffffffffffffffffffffffffffffffffff1602179055506200017a81620001506200024f60201b60201c565b600a6200015e91906200095c565b620f42406200016e9190620009ad565b6200025860201b60201c565b5062000ae4565b600033905090565b6000600560009054906101000a900473ffffffffffffffffffffffffffffffffffffffff16905081600560006101000a81548173ffffffffffffffffffffffffffffffffffffffff021916908373ffffffffffffffffffffffffffffffffffffffff1602179055508173ffffffffffffffffffffffffffffffffffffffff168173ffffffffffffffffffffffffffffffffffffffff167f8be0079c531659141344cd1fd0a4f28419497f9722a3daafe3b4186f6b6457e060405160405180910390a35050565b60006012905090565b600073ffffffffffffffffffffffffffffffffffffffff168273ffffffffffffffffffffffffffffffffffffffff1603620002ca576040517f08c379a0000000000000000000000000000000000000000000000000000000008152600401620002c19062000a59565b60405180910390fd5b620002de60008383620003c560201b60201c565b8060026000828254620002f2919062000a7b565b92505081905550806000808473ffffffffffffffffffffffffffffffffffffffff1673ffffffffffffffffffffffffffffffffffffffff168152602001908152602001600020600082825401925050819055508173ffffffffffffffffffffffffffffffffffffffff16600073ffffffffffffffffffffffffffffffffffffffff167fddf252ad1be2c89b69c2b068fc378daa952ba7f163c4a11628f55a4df523b3ef83604051620003a5919062000ac7565b60405180910390a3620003c160008383620003ca60201b60201c565b5050565b505050565b505050565b600080fd5b600073ffffffffffffffffffffffffffffffffffffffff82169050919050565b60006200040182620003d4565b9050919050565b6200041381620003f4565b81146200041f57600080fd5b50565b600081519050620004338162000408565b92915050565b600060208284031215620004525762000451620003cf565b5b6000620004628482850162000422565b91505092915050565b600081519050919050565b7f4e487b7100000000000000000000000000000000000000000000000000000000600052604160045260246000fd5b7f4e487b7100000000000000000000000000000000000000000000000000000000600052602260045260246000fd5b60006002820490506001821680620004ed57607f821691505b602082108103620005035762000502620004a5565b5b50919050565b60008190508160005260206000209050919050565b60006020601f8301049050919050565b600082821b905092915050565b6000600883026200056d7fffffffffffffffffffffffffffffffffffffffffffffffffffffffffffffffff826200052e565b6200057986836200052e565b95508019841693508086168417925050509392505050565b6000819050919050565b6000819050919050565b6000620005c6620005c0620005ba8462000591565b6200059b565b62000591565b9050919050565b6000819050919050565b620005e283620005a5565b620005fa620005f182620005cd565b8484546200053b565b825550505050565b600090565b6200061162000602565b6200061e818484620005d7565b505050565b5b8181101562000646576200063a60008262000607565b60018101905062000624565b5050565b601f82111562000695576200065f8162000509565b6200066a846200051e565b810160208510156200067a578190505b6200069262000689856200051e565b83018262000623565b50505b505050565b600082821c905092915050565b6000620006ba600019846008026200069a565b1980831691505092915050565b6000620006d58383620006a7565b9150826002028217905092915050565b620006f0826200046b565b67ffffffffffffffff8111156200070c576200070b62000476565b5b620007188254620004d4565b620007258282856200064a565b600060209050601f8311600181146200075d576000841562000748578287015190505b620007548582620006c7565b865550620007c4565b601f1984166200076d8662000509565b60005b82811015620007975784890151825560018201915060208501945060208101905062000770565b86831015620007b75784890151620007b3601f891682620006a7565b8355505b6001600288020188555050505b505050505050565b7f4e487b7100000000000000000000000000000000000000000000000000000000600052601160045260246000fd5b60008160011c9050919050565b6000808291508390505b60018511156200085a57808604811115620008325762000831620007cc565b5b6001851615620008425780820291505b80810290506200085285620007fb565b945062000812565b94509492505050565b60008262000875576001905062000948565b8162000885576000905062000948565b81600181146200089e5760028114620008a957620008df565b600191505062000948565b60ff841115620008be57620008bd620007cc565b5b8360020a915084821115620008d857620008d7620007cc565b5b5062000948565b5060208310610133831016604e8410600b8410161715620009195782820a905083811115620009135762000912620007cc565b5b62000948565b62000928848484600162000808565b92509050818404811115620009425762000941620007cc565b5b81810290505b9392505050565b600060ff82169050919050565b6000620009698262000591565b915062000976836200094f565b9250620009a57fffffffffffffffffffffffffffffffffffffffffffffffffffffffffffffffff848462000863565b905092915050565b6000620009ba8262000591565b9150620009c78362000591565b9250828202620009d78162000591565b91508282048414831517620009f157620009f0620007cc565b5b5092915050565b600082825260208201905092915050565b7f45524332303a206d696e7420746f20746865207a65726f206164647265737300600082015250565b600062000a41601f83620009f8565b915062000a4e8262000a09565b602082019050919050565b6000602082019050818103600083015262000a748162000a32565b9050919050565b600062000a888262000591565b915062000a958362000591565b925082820190508082111562000ab05762000aaf620007cc565b5b92915050565b62000ac18162000591565b82525050565b600060208201905062000ade600083018462000ab6565b92915050565b6122e08062000af46000396000f3fe608060405234801561001057600080fd5b50600436106101375760003560e01c806342966c68116100b857806395d89b411161007c57806395d89b411461033e578063a457c2d71461035c578063a9059cbb1461038c578063cf456ae7146103bc578063dd62ed3e146103d8578063f2fde38b1461040857610137565b806342966c68146102ac57806370a08231146102c8578063715018a6146102f85780638da5cb5b1461030257806391778c591461032057610137565b8063313ce567116100ff578063313ce567146101f457806339509351146102125780633a5381b51461024257806340c10f1914610260578063423afa661461027c57610137565b806306fdde031461013c578063095ea7b31461015a5780631327d3d81461018a57806318160ddd146101a657806323b872dd146101c4575b600080fd5b610144610424565b60405161015191906115ae565b60405180910390f35b610174600480360381019061016f9190611669565b6104b6565b60405161018191906116c4565b60405180910390f35b6101a4600480360381019061019f91906116df565b6104d9565b005b6101ae610594565b6040516101bb919061171b565b60405180910390f35b6101de60048036038101906101d99190611736565b61059e565b6040516101eb91906116c4565b60405180910390f35b6101fc6105cd565b60405161020991906117a5565b60405180910390f35b61022c60048036038101906102279190611669565b6105d6565b60405161023991906116c4565b60405180910390f35b61024a61060d565b60405161025791906117cf565b60405180910390f35b61027a60048036038101906102759190611669565b610633565b005b610296600480360381019061029191906116df565b610792565b6040516102a391906116c4565b60405180910390f35b6102c660048036038101906102c191906117ea565b6107b2565b005b6102e260048036038101906102dd91906116df565b6107bf565b6040516102ef919061171b565b60405180910390f35b610300610807565b005b61030a61081b565b60405161031791906117cf565b60405180910390f35b610328610845565b604051610335919061171b565b60405180910390f35b61034661084a565b60405161035391906115ae565b60405180910390f35b61037660048036038101906103719190611669565b6108dc565b60405161038391906116c4565b60405180910390f35b6103a660048036038101906103a19190611669565b610953565b6040516103b391906116c4565b60405180910390f35b6103d660048036038101906103d19190611843565b610976565b005b6103f260048036038101906103ed9190611883565b610ad0565b6040516103ff919061171b565b60405180910390f35b610422600480360381019061041d91906116df565b610b57565b005b606060038054610433906118f2565b80601f016020809104026020016040519081016040528092919081815260200182805461045f906118f2565b80156104ac5780601f10610481576101008083540402835291602001916104ac565b820191906000526020600020905b81548152906001019060200180831161048f57829003601f168201915b5050505050905090565b6000806104c1610bda565b90506104ce818585610be2565b600191505092915050565b6104e1610dab565b600073ffffffffffffffffffffffffffffffffffffffff168173ffffffffffffffffffffffffffffffffffffffff1603610550576040517f08c379a00000000000000000000000000000000000000000000000000000000081526004016105479061196f565b60405180910390fd5b80600660006101000a81548173ffffffffffffffffffffffffffffffffffffffff021916908373ffffffffffffffffffffffffffffffffffffffff16021790555050565b6000600254905090565b6000806105a9610bda565b90506105b6858285610e29565b6105c1858585610eb5565b60019150509392505050565b60006012905090565b6000806105e1610bda565b90506106028185856105f38589610ad0565b6105fd91906119be565b610be2565b600191505092915050565b600660009054906101000a900473ffffffffffffffffffffffffffffffffffffffff1681565b600760003373ffffffffffffffffffffffffffffffffffffffff1673ffffffffffffffffffffffffffffffffffffffff16815260200190815260200160002060009054906101000a900460ff166106bf576040517f08c379a00000000000000000000000000000000000000000000000000000000081526004016106b690611a3e565b60405180910390fd5b600073ffffffffffffffffffffffffffffffffffffffff168273ffffffffffffffffffffffffffffffffffffffff160361072e576040517f08c379a000000000000000000000000000000000000000000000000000000000815260040161072590611aaa565b60405180910390fd5b6000629896806001836107419190611aca565b61074b9190611b3b565b9050610757838361112b565b600081111561078d5761078c600660009054906101000a900473ffffffffffffffffffffffffffffffffffffffff168261112b565b5b505050565b60076020528060005260406000206000915054906101000a900460ff1681565b6107bc3382611281565b50565b60008060008373ffffffffffffffffffffffffffffffffffffffff1673ffffffffffffffffffffffffffffffffffffffff168152602001908152602001600020549050919050565b61080f610dab565b610819600061144e565b565b6000600560009054906101000a900473ffffffffffffffffffffffffffffffffffffffff16905090565b600181565b606060048054610859906118f2565b80601f0160208091040260200160405190810160405280929190818152602001828054610885906118f2565b80156108d25780601f106108a7576101008083540402835291602001916108d2565b820191906000526020600020905b8154815290600101906020018083116108b557829003601f168201915b5050505050905090565b6000806108e7610bda565b905060006108f58286610ad0565b90508381101561093a576040517f08c379a000000000000000000000000000000000000000000000000000000000815260040161093190611bde565b60405180910390fd5b6109478286868403610be2565b60019250505092915050565b60008061095e610bda565b905061096b818585610eb5565b600191505092915050565b600660009054906101000a900473ffffffffffffffffffffffffffffffffffffffff1673ffffffffffffffffffffffffffffffffffffffff163373ffffffffffffffffffffffffffffffffffffffff1614610a06576040517f08c379a00000000000000000000000000000000000000000000000000000000081526004016109fd90611c4a565b60405180910390fd5b600073ffffffffffffffffffffffffffffffffffffffff168273ffffffffffffffffffffffffffffffffffffffff1603610a75576040517f08c379a0000000000000000000000000000000000000000000000000000000008152600401610a6c90611cb6565b60405180910390fd5b80600760008473ffffffffffffffffffffffffffffffffffffffff1673ffffffffffffffffffffffffffffffffffffffff16815260200190815260200160002060006101000a81548160ff0219169083151502179055505050565b6000600160008473ffffffffffffffffffffffffffffffffffffffff1673ffffffffffffffffffffffffffffffffffffffff16815260200190815260200160002060008373ffffffffffffffffffffffffffffffffffffffff1673ffffffffffffffffffffffffffffffffffffffff16815260200190815260200160002054905092915050565b610b5f610dab565b600073ffffffffffffffffffffffffffffffffffffffff168173ffffffffffffffffffffffffffffffffffffffff1603610bce576040517f08c379a0000000000000000000000000000000000000000000000000000000008152600401610bc590611d48565b60405180910390fd5b610bd78161144e565b50565b600033905090565b600073ffffffffffffffffffffffffffffffffffffffff168373ffffffffffffffffffffffffffffffffffffffff1603610c51576040517f08c379a0000000000000000000000000000000000000000000000000000000008152600401610c4890611dda565b60405180910390fd5b600073ffffffffffffffffffffffffffffffffffffffff168273ffffffffffffffffffffffffffffffffffffffff1603610cc0576040517f08c379a0000000000000000000000000000000000000000000000000000000008152600401610cb790611e6c565b60405180910390fd5b80600160008573ffffffffffffffffffffffffffffffffffffffff1673ffffffffffffffffffffffffffffffffffffffff16815260200190815260200160002060008473ffffffffffffffffffffffffffffffffffffffff1673ffffffffffffffffffffffffffffffffffffffff168152602001908152602001600020819055508173ffffffffffffffffffffffffffffffffffffffff168373ffffffffffffffffffffffffffffffffffffffff167f8c5be1e5ebec7d5bd14f71427d1e84f3dd0314c0f7b2291e5b200ac8c7c3b92583604051610d9e919061171b565b60405180910390a3505050565b610db3610bda565b73ffffffffffffffffffffffffffffffffffffffff16610dd161081b565b73ffffffffffffffffffffffffffffffffffffffff1614610e27576040517f08c379a0000000000000000000000000000000000000000000000000000000008152600401610e1e90611ed8565b60405180910390fd5b565b6000610e358484610ad0565b90507fffffffffffffffffffffffffffffffffffffffffffffffffffffffffffffffff8114610eaf5781811015610ea1576040517f08c379a0000000000000000000000000000000000000000000000000000000008152600401610e9890611f44565b60405180910390fd5b610eae8484848403610be2565b5b50505050565b600073ffffffffffffffffffffffffffffffffffffffff168373ffffffffffffffffffffffffffffffffffffffff1603610f24576040517f08c379a0000000000000000000000000000000000000000000000000000000008152600401610f1b90611fd6565b60405180910390fd5b600073ffffffffffffffffffffffffffffffffffffffff168273ffffffffffffffffffffffffffffffffffffffff1603610f93576040517f08c379a0000000000000000000000000000000000000000000000000000000008152600401610f8a90612068565b60405180910390fd5b610f9e838383611514565b60008060008573ffffffffffffffffffffffffffffffffffffffff1673ffffffffffffffffffffffffffffffffffffffff16815260200190815260200160002054905081811015611024576040517f08c379a000000000000000000000000000000000000000000000000000000000815260040161101b906120fa565b60405180910390fd5b8181036000808673ffffffffffffffffffffffffffffffffffffffff1673ffffffffffffffffffffffffffffffffffffffff16815260200190815260200160002081905550816000808573ffffffffffffffffffffffffffffffffffffffff1673ffffffffffffffffffffffffffffffffffffffff168152602001908152602001600020600082825401925050819055508273ffffffffffffffffffffffffffffffffffffffff168473ffffffffffffffffffffffffffffffffffffffff167fddf252ad1be2c89b69c2b068fc378daa952ba7f163c4a11628f55a4df523b3ef84604051611112919061171b565b60405180910390a3611125848484611519565b50505050565b600073ffffffffffffffffffffffffffffffffffffffff168273ffffffffffffffffffffffffffffffffffffffff160361119a576040517f08c379a000000000000000000000000000000000000000000000000000000000815260040161119190612166565b60405180910390fd5b6111a660008383611514565b80600260008282546111b891906119be565b92505081905550806000808473ffffffffffffffffffffffffffffffffffffffff1673ffffffffffffffffffffffffffffffffffffffff168152602001908152602001600020600082825401925050819055508173ffffffffffffffffffffffffffffffffffffffff16600073ffffffffffffffffffffffffffffffffffffffff167fddf252ad1be2c89b69c2b068fc378daa952ba7f163c4a11628f55a4df523b3ef83604051611269919061171b565b60405180910390a361127d60008383611519565b5050565b600073ffffffffffffffffffffffffffffffffffffffff168273ffffffffffffffffffffffffffffffffffffffff16036112f0576040517f08c379a00000000000000000000000000000000000000000000000000000000081526004016112e7906121f8565b60405180910390fd5b6112fc82600083611514565b60008060008473ffffffffffffffffffffffffffffffffffffffff1673ffffffffffffffffffffffffffffffffffffffff16815260200190815260200160002054905081811015611382576040517f08c379a00000000000000000000000000000000000000000000000000000000081526004016113799061228a565b60405180910390fd5b8181036000808573ffffffffffffffffffffffffffffffffffffffff1673ffffffffffffffffffffffffffffffffffffffff1681526020019081526020016000208190555081600260008282540392505081905550600073ffffffffffffffffffffffffffffffffffffffff168373ffffffffffffffffffffffffffffffffffffffff167fddf252ad1be2c89b69c2b068fc378daa952ba7f163c4a11628f55a4df523b3ef84604051611435919061171b565b60405180910390a361144983600084611519565b505050565b6000600560009054906101000a900473ffffffffffffffffffffffffffffffffffffffff16905081600560006101000a81548173ffffffffffffffffffffffffffffffffffffffff021916908373ffffffffffffffffffffffffffffffffffffffff1602179055508173ffffffffffffffffffffffffffffffffffffffff168173ffffffffffffffffffffffffffffffffffffffff167f8be0079c531659141344cd1fd0a4f28419497f9722a3daafe3b4186f6b6457e060405160405180910390a35050565b505050565b505050565b600081519050919050565b600082825260208201905092915050565b60005b8381101561155857808201518184015260208101905061153d565b60008484015250505050565b6000601f19601f8301169050919050565b60006115808261151e565b61158a8185611529565b935061159a81856020860161153a565b6115a381611564565b840191505092915050565b600060208201905081810360008301526115c88184611575565b905092915050565b600080fd5b600073ffffffffffffffffffffffffffffffffffffffff82169050919050565b6000611600826115d5565b9050919050565b611610816115f5565b811461161b57600080fd5b50565b60008135905061162d81611607565b92915050565b6000819050919050565b61164681611633565b811461165157600080fd5b50565b6000813590506116638161163d565b92915050565b600080604083850312156116805761167f6115d0565b5b600061168e8582860161161e565b925050602061169f85828601611654565b9150509250929050565b60008115159050919050565b6116be816116a9565b82525050565b60006020820190506116d960008301846116b5565b92915050565b6000602082840312156116f5576116f46115d0565b5b60006117038482850161161e565b91505092915050565b61171581611633565b82525050565b6000602082019050611730600083018461170c565b92915050565b60008060006060848603121561174f5761174e6115d0565b5b600061175d8682870161161e565b935050602061176e8682870161161e565b925050604061177f86828701611654565b9150509250925092565b600060ff82169050919050565b61179f81611789565b82525050565b60006020820190506117ba6000830184611796565b92915050565b6117c9816115f5565b82525050565b60006020820190506117e460008301846117c0565b92915050565b600060208284031215611800576117ff6115d0565b5b600061180e84828501611654565b91505092915050565b611820816116a9565b811461182b57600080fd5b50565b60008135905061183d81611817565b92915050565b6000806040838503121561185a576118596115d0565b5b60006118688582860161161e565b92505060206118798582860161182e565b9150509250929050565b6000806040838503121561189a576118996115d0565b5b60006118a88582860161161e565b92505060206118b98582860161161e565b9150509250929050565b7f4e487b7100000000000000000000000000000000000000000000000000000000600052602260045260246000fd5b6000600282049050600182168061190a57607f821691505b60208210810361191d5761191c6118c3565b5b50919050565b7f56616c696461746f722063616e6e6f74206265207a65726f2061646472657373600082015250565b6000611959602083611529565b915061196482611923565b602082019050919050565b600060208201905081810360008301526119888161194c565b9050919050565b7f4e487b7100000000000000000000000000000000000000000000000000000000600052601160045260246000fd5b60006119c982611633565b91506119d483611633565b92508282019050808211156119ec576119eb61198f565b5b92915050565b7f4e6f7420616c6c6f77656420746f206d696e7400000000000000000000000000600082015250565b6000611a28601383611529565b9150611a33826119f2565b602082019050919050565b60006020820190508181036000830152611a5781611a1b565b9050919050565b7f43616e6e6f74206d696e7420746f207a65726f20616464726573730000000000600082015250565b6000611a94601b83611529565b9150611a9f82611a5e565b602082019050919050565b60006020820190508181036000830152611ac381611a87565b9050919050565b6000611ad582611633565b9150611ae083611633565b9250828202611aee81611633565b91508282048414831517611b0557611b0461198f565b5b5092915050565b7f4e487b7100000000000000000000000000000000000000000000000000000000600052601260045260246000fd5b6000611b4682611633565b9150611b5183611633565b925082611b6157611b60611b0c565b5b828204905092915050565b7f45524332303a2064656372656173656420616c6c6f77616e63652062656c6f7760008201527f207a65726f000000000000000000000000000000000000000000000000000000602082015250565b6000611bc8602583611529565b9150611bd382611b6c565b604082019050919050565b60006020820190508181036000830152611bf781611bbb565b9050919050565b7f4e6f742076616c696461746f7200000000000000000000000000000000000000600082015250565b6000611c34600d83611529565b9150611c3f82611bfe565b602082019050919050565b60006020820190508181036000830152611c6381611c27565b9050919050565b7f5a65726f2061646472657373206e6f7420616c6c6f7765640000000000000000600082015250565b6000611ca0601883611529565b9150611cab82611c6a565b602082019050919050565b60006020820190508181036000830152611ccf81611c93565b9050919050565b7f4f776e61626c653a206e6577206f776e657220697320746865207a65726f206160008201527f6464726573730000000000000000000000000000000000000000000000000000602082015250565b6000611d32602683611529565b9150611d3d82611cd6565b604082019050919050565b60006020820190508181036000830152611d6181611d25565b9050919050565b7f45524332303a20617070726f76652066726f6d20746865207a65726f2061646460008201527f7265737300000000000000000000000000000000000000000000000000000000602082015250565b6000611dc4602483611529565b9150611dcf82611d68565b604082019050919050565b60006020820190508181036000830152611df381611db7565b9050919050565b7f45524332303a20617070726f766520746f20746865207a65726f20616464726560008201527f7373000000000000000000000000000000000000000000000000000000000000602082015250565b6000611e56602283611529565b9150611e6182611dfa565b604082019050919050565b60006020820190508181036000830152611e8581611e49565b9050919050565b7f4f776e61626c653a2063616c6c6572206973206e6f7420746865206f776e6572600082015250565b6000611ec2602083611529565b9150611ecd82611e8c565b602082019050919050565b60006020820190508181036000830152611ef181611eb5565b9050919050565b7f45524332303a20696e73756666696369656e7420616c6c6f77616e6365000000600082015250565b6000611f2e601d83611529565b9150611f3982611ef8565b602082019050919050565b60006020820190508181036000830152611f5d81611f21565b9050919050565b7f45524332303a207472616e736665722066726f6d20746865207a65726f20616460008201527f6472657373000000000000000000000000000000000000000000000000000000602082015250565b6000611fc0602583611529565b9150611fcb82611f64565b604082019050919050565b60006020820190508181036000830152611fef81611fb3565b9050919050565b7f45524332303a207472616e7366657220746f20746865207a65726f206164647260008201527f6573730000000000000000000000000000000000000000000000000000000000602082015250565b6000612052602383611529565b915061205d82611ff6565b604082019050919050565b6000602082019050818103600083015261208181612045565b9050919050565b7f45524332303a207472616e7366657220616d6f756e742065786365656473206260008201527f616c616e63650000000000000000000000000000000000000000000000000000602082015250565b60006120e4602683611529565b91506120ef82612088565b604082019050919050565b60006020820190508181036000830152612113816120d7565b9050919050565b7f45524332303a206d696e7420746f20746865207a65726f206164647265737300600082015250565b6000612150601f83611529565b915061215b8261211a565b602082019050919050565b6000602082019050818103600083015261217f81612143565b9050919050565b7f45524332303a206275726e2066726f6d20746865207a65726f2061646472657360008201527f7300000000000000000000000000000000000000000000000000000000000000602082015250565b60006121e2602183611529565b91506121ed82612186565b604082019050919050565b60006020820190508181036000830152612211816121d5565b9050919050565b7f45524332303a206275726e20616d6f756e7420657863656564732062616c616e60008201527f6365000000000000000000000000000000000000000000000000000000000000602082015250565b6000612274602283611529565b915061227f82612218565b604082019050919050565b600060208201905081810360008301526122a381612267565b905091905056fea26469706673582212205a918a14497cc98d3e0fe011a2e233cdd7306e10e3dad80313e7bc4abbd28de964736f6c63430008140033",
  "linkReferences": {},
  "deployedLinkReferences": {}
}