{
  "_format": "hh-sol-artifact-1",
  "contractName": "KREDSDAO",
  "sourceName": "contracts/KREDSDAO.sol",
  "abi": [
    {
      "inputs": [
        {
          "internalType": "address",
          "name": "_token",
          "type": "address"
        }
      ],
      "stateMutability": "nonpayable",
      "type": "constructor"
    },
    {
      "anonymous": false,
      "inputs": [
        {
          "indexed": true,
          "internalType": "uint256",
          "name": "id",
          "type": "uint256"
        },
        {
          "indexed": false,
          "internalType": "string",
          "name": "title",
          "type": "string"
        },
        {
          "indexed": false,
          "internalType": "string",
          "name": "description",
          "type": "string"
        }
      ],
      "name": "ProposalCreated",
      "type": "event"
    },
    {
      "anonymous": false,
      "inputs": [
        {
          "indexed": true,
          "internalType": "uint256",
          "name": "id",
          "type": "uint256"
        }
      ],
      "name": "ProposalExecuted",
      "type": "event"
    },
    {
      "anonymous": false,
      "inputs": [
        {
          "indexed": false,
          "internalType": "address",
          "name": "addr",
          "type": "address"
        }
      ],
      "name": "RemovedWhitelist",
      "type": "event"
    },
    {
      "anonymous": false,
      "inputs": [
        {
          "indexed": true,
          "internalType": "uint256",
          "name": "id",
          "type": "uint256"
        },
        {
          "indexed": false,
          "internalType": "address",
          "name": "voter",
          "type": "address"
        }
      ],
      "name": "VoteCast",
      "type": "event"
    },
    {
      "anonymous": false,
      "inputs": [
        {
          "indexed": false,
          "internalType": "address",
          "name": "addr",
          "type": "address"
        }
      ],
      "name": "Whitelisted",
      "type": "event"
    },
    {
      "inputs": [
        {
          "internalType": "address",
          "name": "addr",
          "type": "address"
        }
      ],
      "name": "addWhitelist",
      "outputs": [],
      "stateMutability": "nonpayable",
      "type": "function"
    },
    {
      "inputs": [
        {
          "internalType": "string",
          "name": "title",
          "type": "string"
        },
        {
          "internalType": "string",
          "name": "description",
          "type": "string"
        },
        {
          "internalType": "bytes",
          "name": "payload",
          "type": "bytes"
        },
        {
          "internalType": "address",
          "name": "target",
          "type": "address"
        }
      ],
      "name": "createProposal",
      "outputs": [],
      "stateMutability": "nonpayable",
      "type": "function"
    },
    {
      "inputs": [
        {
          "internalType": "uint256",
          "name": "id",
          "type": "uint256"
        }
      ],
      "name": "executeProposal",
      "outputs": [],
      "stateMutability": "nonpayable",
      "type": "function"
    },
    {
      "inputs": [],
      "name": "executionDelay",
      "outputs": [
        {
          "internalType": "uint256",
          "name": "",
          "type": "uint256"
        }
      ],
      "stateMutability": "view",
      "type": "function"
    },
    {
      "inputs": [
        {
          "internalType": "uint256",
          "name": "id",
          "type": "uint256"
        }
      ],
      "name": "getProposal",
      "outputs": [
        {
          "internalType": "string",
          "name": "title",
          "type": "string"
        },
        {
          "internalType": "string",
          "name": "description",
          "type": "string"
        },
        {
          "internalType": "address",
          "name": "proposer",
          "type": "address"
        },
        {
          "internalType": "uint256",
          "name": "votes",
          "type": "uint256"
        },
        {
          "internalType": "uint256",
          "name": "timestamp",
          "type": "uint256"
        },
        {
          "internalType": "bool",
          "name": "executed",
          "type": "bool"
        },
        {
          "internalType": "address",
          "name": "target",
          "type": "address"
        }
      ],
      "stateMutability": "view",
      "type": "function"
    },
    {
      "inputs": [],
      "name": "getProposalCount",
      "outputs": [
        {
          "internalType": "uint256",
          "name": "",
          "type": "uint256"
        }
      ],
      "stateMutability": "view",
      "type": "function"
    },
    {
      "inputs": [],
      "name": "kreds",
      "outputs": [
        {
          "internalType": "contract IERC20",
          "name": "",
          "type": "address"
        }
      ],
      "stateMutability": "view",
      "type": "function"
    },
    {
      "inputs": [],
      "name": "maxPercentPerAddress",
      "outputs": [
        {
          "internalType": "uint256",
          "name": "",
          "type": "uint256"
        }
      ],
      "stateMutability": "view",
      "type": "function"
    },
    {
      "inputs": [],
      "name": "owner",
      "outputs": [
        {
          "internalType": "address",
          "name": "",
          "type": "address"
        }
      ],
      "stateMutability": "view",
      "type": "function"
    },
    {
      "inputs": [
        {
          "internalType": "uint256",
          "name": "",
          "type": "uint256"
        }
      ],
      "name": "proposals",
      "outputs": [
        {
          "internalType": "string",
          "name": "title",
          "type": "string"
        },
        {
          "internalType": "string",
          "name": "description",
          "type": "string"
        },
        {
          "internalType": "address",
          "name": "proposer",
          "type": "address"
        },
        {
          "internalType": "uint256",
          "name": "votes",
          "type": "uint256"
        },
        {
          "internalType": "uint256",
          "name": "timestamp",
          "type": "uint256"
        },
        {
          "internalType": "bool",
          "name": "executed",
          "type": "bool"
        },
        {
          "internalType": "bytes",
          "name": "payload",
          "type": "bytes"
        },
        {
          "internalType": "address",
          "name": "target",
          "type": "address"
        }
      ],
      "stateMutability": "view",
      "type": "function"
    },
    {
      "inputs": [
        {
          "internalType": "address",
          "name": "addr",
          "type": "address"
        }
      ],
      "name": "removeWhitelist",
      "outputs": [],
      "stateMutability": "nonpayable",
      "type": "function"
    },
    {
      "inputs": [
        {
          "internalType": "uint256",
          "name": "id",
          "type": "uint256"
        },
        {
          "internalType": "bool",
          "name": "support",
          "type": "bool"
        }
      ],
      "name": "vote",
      "outputs": [],
      "stateMutability": "nonpayable",
      "type": "function"
    },
    {
      "inputs": [
        {
          "internalType": "uint256",
          "name": "",
          "type": "uint256"
        },
        {
          "internalType": "address",
          "name": "",
          "type": "address"
        }
      ],
      "name": "voted",
      "outputs": [
        {
          "internalType": "bool",
          "name": "",
          "type": "bool"
        }
      ],
      "stateMutability": "view",
      "type": "function"
    },
    {
      "inputs": [
        {
          "internalType": "address",
          "name": "",
          "type": "address"
        }
      ],
      "name": "whitelisted",
      "outputs": [
        {
          "internalType": "bool",
          "name": "",
          "type": "bool"
        }
      ],
      "stateMutability": "view",
      "type": "function"
    }
  ],
  "bytecode": "0x608060405261025860025560056003553480156200001c57600080fd5b50604051620026563803806200265683398181016040528101906200004291906200018c565b806000806101000a81548173ffffffffffffffffffffffffffffffffffffffff021916908373ffffffffffffffffffffffffffffffffffffffff16021790555033600160006101000a81548173ffffffffffffffffffffffffffffffffffffffff021916908373ffffffffffffffffffffffffffffffffffffffff1602179055506001600660003373ffffffffffffffffffffffffffffffffffffffff1673ffffffffffffffffffffffffffffffffffffffff16815260200190815260200160002060006101000a81548160ff02191690831515021790555050620001be565b600080fd5b600073ffffffffffffffffffffffffffffffffffffffff82169050919050565b6000620001548262000127565b9050919050565b620001668162000147565b81146200017257600080fd5b50565b60008151905062000186816200015b565b92915050565b600060208284031215620001a557620001a462000122565b5b6000620001b58482850162000175565b91505092915050565b61248880620001ce6000396000f3fe608060405234801561001057600080fd5b50600436106100ea5760003560e01c80638da5cb5b1161008c578063c7f758a811610066578063c7f758a814610240578063c9d27afe14610276578063d936547e14610292578063f80f5dd5146102c2576100ea565b80638da5cb5b146101e8578063b814a8de14610206578063c08cc02d14610222576100ea565b8063485564f1116100c8578063485564f1146101605780635277b4ae1461017e57806378c8cda7146101ae5780638b257989146101ca576100ea565b8063013cf08b146100ef5780630d61b519146101265780630d75bcf714610142575b600080fd5b6101096004803603810190610104919061137d565b6102de565b60405161011d9897969594939291906114fa565b60405180910390f35b610140600480360381019061013b919061137d565b61051b565b005b61014a610788565b60405161015791906115ec565b60405180910390f35b6101686107ac565b6040516101759190611607565b60405180910390f35b6101986004803603810190610193919061164e565b6107b2565b6040516101a5919061168e565b60405180910390f35b6101c860048036038101906101c391906116a9565b6107e1565b005b6101d2610903565b6040516101df9190611607565b60405180910390f35b6101f0610909565b6040516101fd91906116d6565b60405180910390f35b610220600480360381019061021b91906118c7565b61092f565b005b61022a610c8b565b6040516102379190611607565b60405180910390f35b61025a6004803603810190610255919061137d565b610c98565b60405161026d9796959493929190611982565b60405180910390f35b610290600480360381019061028b9190611a2b565b610e68565b005b6102ac60048036038101906102a791906116a9565b6111f1565b6040516102b9919061168e565b60405180910390f35b6102dc60048036038101906102d791906116a9565b611211565b005b600481815481106102ee57600080fd5b906000526020600020906008020160009150905080600001805461031190611a9a565b80601f016020809104026020016040519081016040528092919081815260200182805461033d90611a9a565b801561038a5780601f1061035f5761010080835404028352916020019161038a565b820191906000526020600020905b81548152906001019060200180831161036d57829003601f168201915b50505050509080600101805461039f90611a9a565b80601f01602080910402602001604051908101604052809291908181526020018280546103cb90611a9a565b80156104185780601f106103ed57610100808354040283529160200191610418565b820191906000526020600020905b8154815290600101906020018083116103fb57829003601f168201915b5050505050908060020160009054906101000a900473ffffffffffffffffffffffffffffffffffffffff16908060030154908060040154908060050160009054906101000a900460ff169080600601805461047290611a9a565b80601f016020809104026020016040519081016040528092919081815260200182805461049e90611a9a565b80156104eb5780601f106104c0576101008083540402835291602001916104eb565b820191906000526020600020905b8154815290600101906020018083116104ce57829003601f168201915b5050505050908060070160009054906101000a900473ffffffffffffffffffffffffffffffffffffffff16905088565b6004818154811061052f5761052e611acb565b5b906000526020600020906008020160050160009054906101000a900460ff161561058e576040517f08c379a000000000000000000000000000000000000000000000000000000000815260040161058590611b46565b60405180910390fd5b600254600482815481106105a5576105a4611acb565b5b9060005260206000209060080201600401546105c19190611b95565b421015610603576040517f08c379a00000000000000000000000000000000000000000000000000000000081526004016105fa90611c15565b60405180910390fd5b60016004828154811061061957610618611acb565b5b906000526020600020906008020160050160006101000a81548160ff02191690831515021790555060006004828154811061065757610656611acb565b5b906000526020600020906008020160070160009054906101000a900473ffffffffffffffffffffffffffffffffffffffff1673ffffffffffffffffffffffffffffffffffffffff16600483815481106106b3576106b2611acb565b5b90600052602060002090600802016006016040516106d19190611cd8565b6000604051808303816000865af19150503d806000811461070e576040519150601f19603f3d011682016040523d82523d6000602084013e610713565b606091505b5050905080610757576040517f08c379a000000000000000000000000000000000000000000000000000000000815260040161074e90611d3b565b60405180910390fd5b817f712ae1383f79ac853f8d882153778e0260ef8f03b504e2866e0593e04d2b291f60405160405180910390a25050565b60008054906101000a900473ffffffffffffffffffffffffffffffffffffffff1681565b60035481565b60056020528160005260406000206020528060005260406000206000915091509054906101000a900460ff1681565b600160009054906101000a900473ffffffffffffffffffffffffffffffffffffffff1673ffffffffffffffffffffffffffffffffffffffff163373ffffffffffffffffffffffffffffffffffffffff1614610871576040517f08c379a000000000000000000000000000000000000000000000000000000000815260040161086890611da7565b60405180910390fd5b6000600660008373ffffffffffffffffffffffffffffffffffffffff1673ffffffffffffffffffffffffffffffffffffffff16815260200190815260200160002060006101000a81548160ff0219169083151502179055507f441e43beaf2db8af6e1f9f7a6b9f0dcc36fcf83a2904264c9ab624068242efff816040516108f891906116d6565b60405180910390a150565b60025481565b600160009054906101000a900473ffffffffffffffffffffffffffffffffffffffff1681565b600660003373ffffffffffffffffffffffffffffffffffffffff1673ffffffffffffffffffffffffffffffffffffffff16815260200190815260200160002060009054906101000a900460ff166109bb576040517f08c379a00000000000000000000000000000000000000000000000000000000081526004016109b290611e13565b60405180910390fd5b670de0b6b3a764000060008054906101000a900473ffffffffffffffffffffffffffffffffffffffff1673ffffffffffffffffffffffffffffffffffffffff166370a08231336040518263ffffffff1660e01b8152600401610a1d91906116d6565b602060405180830381865afa158015610a3a573d6000803e3d6000fd5b505050506040513d601f19601f82011682018060405250810190610a5e9190611e48565b1015610a9f576040517f08c379a0000000000000000000000000000000000000000000000000000000008152600401610a9690611ec1565b60405180910390fd5b60046040518061010001604052808681526020018581526020013373ffffffffffffffffffffffffffffffffffffffff168152602001600081526020014281526020016000151581526020018481526020018373ffffffffffffffffffffffffffffffffffffffff1681525090806001815401808255809150506001900390600052602060002090600802016000909190919091506000820151816000019081610b499190612083565b506020820151816001019081610b5f9190612083565b5060408201518160020160006101000a81548173ffffffffffffffffffffffffffffffffffffffff021916908373ffffffffffffffffffffffffffffffffffffffff160217905550606082015181600301556080820151816004015560a08201518160050160006101000a81548160ff02191690831515021790555060c0820151816006019081610bf0919061219b565b5060e08201518160070160006101000a81548173ffffffffffffffffffffffffffffffffffffffff021916908373ffffffffffffffffffffffffffffffffffffffff16021790555050506001600480549050610c4c919061226d565b7fab417751734d6a1f646db70d698328fa08bc6c3f8d4b8ef2a69adb1eb051496b8585604051610c7d9291906122a1565b60405180910390a250505050565b6000600480549050905090565b60608060008060008060008060048981548110610cb857610cb7611acb565b5b9060005260206000209060080201905080600001816001018260020160009054906101000a900473ffffffffffffffffffffffffffffffffffffffff16836003015484600401548560050160009054906101000a900460ff168660070160009054906101000a900473ffffffffffffffffffffffffffffffffffffffff16868054610d4290611a9a565b80601f0160208091040260200160405190810160405280929190818152602001828054610d6e90611a9a565b8015610dbb5780601f10610d9057610100808354040283529160200191610dbb565b820191906000526020600020905b815481529060010190602001808311610d9e57829003601f168201915b50505050509650858054610dce90611a9a565b80601f0160208091040260200160405190810160405280929190818152602001828054610dfa90611a9a565b8015610e475780601f10610e1c57610100808354040283529160200191610e47565b820191906000526020600020905b815481529060010190602001808311610e2a57829003601f168201915b50505050509550975097509750975097509750975050919395979092949650565b6005600083815260200190815260200160002060003373ffffffffffffffffffffffffffffffffffffffff1673ffffffffffffffffffffffffffffffffffffffff16815260200190815260200160002060009054906101000a900460ff1615610f06576040517f08c379a0000000000000000000000000000000000000000000000000000000008152600401610efd90612324565b60405180910390fd5b60048281548110610f1a57610f19611acb565b5b906000526020600020906008020160050160009054906101000a900460ff1615610f79576040517f08c379a0000000000000000000000000000000000000000000000000000000008152600401610f7090611b46565b60405180910390fd5b60008060009054906101000a900473ffffffffffffffffffffffffffffffffffffffff1673ffffffffffffffffffffffffffffffffffffffff166370a08231336040518263ffffffff1660e01b8152600401610fd591906116d6565b602060405180830381865afa158015610ff2573d6000803e3d6000fd5b505050506040513d601f19601f820116820180604052508101906110169190611e48565b90506000606460035460008054906101000a900473ffffffffffffffffffffffffffffffffffffffff1673ffffffffffffffffffffffffffffffffffffffff166318160ddd6040518163ffffffff1660e01b8152600401602060405180830381865afa15801561108a573d6000803e3d6000fd5b505050506040513d601f19601f820116820180604052508101906110ae9190611e48565b6110b89190612344565b6110c291906123b5565b905080821115611107576040517f08c379a00000000000000000000000000000000000000000000000000000000081526004016110fe90612432565b60405180910390fd5b821561114a57816004858154811061112257611121611acb565b5b906000526020600020906008020160030160008282546111429190611b95565b925050819055505b60016005600086815260200190815260200160002060003373ffffffffffffffffffffffffffffffffffffffff1673ffffffffffffffffffffffffffffffffffffffff16815260200190815260200160002060006101000a81548160ff021916908315150217905550837ff1003b73c437642c0460aee9cd9628b0b8c447b66e6c7c905531b9c644214a11336040516111e391906116d6565b60405180910390a250505050565b60066020528060005260406000206000915054906101000a900460ff1681565b600160009054906101000a900473ffffffffffffffffffffffffffffffffffffffff1673ffffffffffffffffffffffffffffffffffffffff163373ffffffffffffffffffffffffffffffffffffffff16146112a1576040517f08c379a000000000000000000000000000000000000000000000000000000000815260040161129890611da7565b60405180910390fd5b6001600660008373ffffffffffffffffffffffffffffffffffffffff1673ffffffffffffffffffffffffffffffffffffffff16815260200190815260200160002060006101000a81548160ff0219169083151502179055507faab7954e9d246b167ef88aeddad35209ca2489d95a8aeb59e288d9b19fae5a548160405161132891906116d6565b60405180910390a150565b6000604051905090565b600080fd5b600080fd5b6000819050919050565b61135a81611347565b811461136557600080fd5b50565b60008135905061137781611351565b92915050565b6000602082840312156113935761139261133d565b5b60006113a184828501611368565b91505092915050565b600081519050919050565b600082825260208201905092915050565b60005b838110156113e45780820151818401526020810190506113c9565b60008484015250505050565b6000601f19601f8301169050919050565b600061140c826113aa565b61141681856113b5565b93506114268185602086016113c6565b61142f816113f0565b840191505092915050565b600073ffffffffffffffffffffffffffffffffffffffff82169050919050565b60006114658261143a565b9050919050565b6114758161145a565b82525050565b61148481611347565b82525050565b60008115159050919050565b61149f8161148a565b82525050565b600081519050919050565b600082825260208201905092915050565b60006114cc826114a5565b6114d681856114b0565b93506114e68185602086016113c6565b6114ef816113f0565b840191505092915050565b6000610100820190508181036000830152611515818b611401565b90508181036020830152611529818a611401565b9050611538604083018961146c565b611545606083018861147b565b611552608083018761147b565b61155f60a0830186611496565b81810360c083015261157181856114c1565b905061158060e083018461146c565b9998505050505050505050565b6000819050919050565b60006115b26115ad6115a88461143a565b61158d565b61143a565b9050919050565b60006115c482611597565b9050919050565b60006115d6826115b9565b9050919050565b6115e6816115cb565b82525050565b600060208201905061160160008301846115dd565b92915050565b600060208201905061161c600083018461147b565b92915050565b61162b8161145a565b811461163657600080fd5b50565b60008135905061164881611622565b92915050565b600080604083850312156116655761166461133d565b5b600061167385828601611368565b925050602061168485828601611639565b9150509250929050565b60006020820190506116a36000830184611496565b92915050565b6000602082840312156116bf576116be61133d565b5b60006116cd84828501611639565b91505092915050565b60006020820190506116eb600083018461146c565b92915050565b600080fd5b600080fd5b7f4e487b7100000000000000000000000000000000000000000000000000000000600052604160045260246000fd5b611733826113f0565b810181811067ffffffffffffffff82111715611752576117516116fb565b5b80604052505050565b6000611765611333565b9050611771828261172a565b919050565b600067ffffffffffffffff821115611791576117906116fb565b5b61179a826113f0565b9050602081019050919050565b82818337600083830152505050565b60006117c96117c484611776565b61175b565b9050828152602081018484840111156117e5576117e46116f6565b5b6117f08482856117a7565b509392505050565b600082601f83011261180d5761180c6116f1565b5b813561181d8482602086016117b6565b91505092915050565b600067ffffffffffffffff821115611841576118406116fb565b5b61184a826113f0565b9050602081019050919050565b600061186a61186584611826565b61175b565b905082815260208101848484011115611886576118856116f6565b5b6118918482856117a7565b509392505050565b600082601f8301126118ae576118ad6116f1565b5b81356118be848260208601611857565b91505092915050565b600080600080608085870312156118e1576118e061133d565b5b600085013567ffffffffffffffff8111156118ff576118fe611342565b5b61190b878288016117f8565b945050602085013567ffffffffffffffff81111561192c5761192b611342565b5b611938878288016117f8565b935050604085013567ffffffffffffffff81111561195957611958611342565b5b61196587828801611899565b925050606061197687828801611639565b91505092959194509250565b600060e082019050818103600083015261199c818a611401565b905081810360208301526119b08189611401565b90506119bf604083018861146c565b6119cc606083018761147b565b6119d9608083018661147b565b6119e660a0830185611496565b6119f360c083018461146c565b98975050505050505050565b611a088161148a565b8114611a1357600080fd5b50565b600081359050611a25816119ff565b92915050565b60008060408385031215611a4257611a4161133d565b5b6000611a5085828601611368565b9250506020611a6185828601611a16565b9150509250929050565b7f4e487b7100000000000000000000000000000000000000000000000000000000600052602260045260246000fd5b60006002820490506001821680611ab257607f821691505b602082108103611ac557611ac4611a6b565b5b50919050565b7f4e487b7100000000000000000000000000000000000000000000000000000000600052603260045260246000fd5b7f416c726561647920657865637574656400000000000000000000000000000000600082015250565b6000611b306010836113b5565b9150611b3b82611afa565b602082019050919050565b60006020820190508181036000830152611b5f81611b23565b9050919050565b7f4e487b7100000000000000000000000000000000000000000000000000000000600052601160045260246000fd5b6000611ba082611347565b9150611bab83611347565b9250828201905080821115611bc357611bc2611b66565b5b92915050565b7f457865637574696f6e2064656c61790000000000000000000000000000000000600082015250565b6000611bff600f836113b5565b9150611c0a82611bc9565b602082019050919050565b60006020820190508181036000830152611c2e81611bf2565b9050919050565b600081905092915050565b60008190508160005260206000209050919050565b60008154611c6281611a9a565b611c6c8186611c35565b94506001821660008114611c875760018114611c9c57611ccf565b60ff1983168652811515820286019350611ccf565b611ca585611c40565b60005b83811015611cc757815481890152600182019150602081019050611ca8565b838801955050505b50505092915050565b6000611ce48284611c55565b915081905092915050565b7f457865637574696f6e206661696c656400000000000000000000000000000000600082015250565b6000611d256010836113b5565b9150611d3082611cef565b602082019050919050565b60006020820190508181036000830152611d5481611d18565b9050919050565b7f4f6e6c79206f776e657200000000000000000000000000000000000000000000600082015250565b6000611d91600a836113b5565b9150611d9c82611d5b565b602082019050919050565b60006020820190508181036000830152611dc081611d84565b9050919050565b7f4e6f742077686974656c69737465640000000000000000000000000000000000600082015250565b6000611dfd600f836113b5565b9150611e0882611dc7565b602082019050919050565b60006020820190508181036000830152611e2c81611df0565b9050919050565b600081519050611e4281611351565b92915050565b600060208284031215611e5e57611e5d61133d565b5b6000611e6c84828501611e33565b91505092915050565b7f4e656564206174206c656173742031204b5245445320746f2070726f706f7365600082015250565b6000611eab6020836113b5565b9150611eb682611e75565b602082019050919050565b60006020820190508181036000830152611eda81611e9e565b9050919050565b60008190508160005260206000209050919050565b60006020601f8301049050919050565b600082821b905092915050565b600060088302611f437fffffffffffffffffffffffffffffffffffffffffffffffffffffffffffffffff82611f06565b611f4d8683611f06565b95508019841693508086168417925050509392505050565b6000611f80611f7b611f7684611347565b61158d565b611347565b9050919050565b6000819050919050565b611f9a83611f65565b611fae611fa682611f87565b848454611f13565b825550505050565b600090565b611fc3611fb6565b611fce818484611f91565b505050565b5b81811015611ff257611fe7600082611fbb565b600181019050611fd4565b5050565b601f8211156120375761200881611ee1565b61201184611ef6565b81016020851015612020578190505b61203461202c85611ef6565b830182611fd3565b50505b505050565b600082821c905092915050565b600061205a6000198460080261203c565b1980831691505092915050565b60006120738383612049565b9150826002028217905092915050565b61208c826113aa565b67ffffffffffffffff8111156120a5576120a46116fb565b5b6120af8254611a9a565b6120ba828285611ff6565b600060209050601f8311600181146120ed57600084156120db578287015190505b6120e58582612067565b86555061214d565b601f1984166120fb86611ee1565b60005b82811015612123578489015182556001820191506020850194506020810190506120fe565b86831015612140578489015161213c601f891682612049565b8355505b6001600288020188555050505b505050505050565b601f8211156121965761216781611c40565b61217084611ef6565b8101602085101561217f578190505b61219361218b85611ef6565b830182611fd3565b50505b505050565b6121a4826114a5565b67ffffffffffffffff8111156121bd576121bc6116fb565b5b6121c78254611a9a565b6121d2828285612155565b600060209050601f83116001811461220557600084156121f3578287015190505b6121fd8582612067565b865550612265565b601f19841661221386611c40565b60005b8281101561223b57848901518255600182019150602085019450602081019050612216565b868310156122585784890151612254601f891682612049565b8355505b6001600288020188555050505b505050505050565b600061227882611347565b915061228383611347565b925082820390508181111561229b5761229a611b66565b5b92915050565b600060408201905081810360008301526122bb8185611401565b905081810360208301526122cf8184611401565b90509392505050565b7f416c726561647920766f74656400000000000000000000000000000000000000600082015250565b600061230e600d836113b5565b9150612319826122d8565b602082019050919050565b6000602082019050818103600083015261233d81612301565b9050919050565b600061234f82611347565b915061235a83611347565b925082820261236881611347565b9150828204841483151761237f5761237e611b66565b5b5092915050565b7f4e487b7100000000000000000000000000000000000000000000000000000000600052601260045260246000fd5b60006123c082611347565b91506123cb83611347565b9250826123db576123da612386565b5b828204905092915050565b7f566f74652065786365656473203525206c696d69740000000000000000000000600082015250565b600061241c6015836113b5565b9150612427826123e6565b602082019050919050565b6000602082019050818103600083015261244b8161240f565b905091905056fea26469706673582212204c9d15c5f3a0d1f9e4c112267e9f2434a314399ab214d792230b42a5f840505064736f6c63430008140033",
  "linkReferences": {},
  "deployedLinkReferences": {}
}