{
  "_format": "hh-sol-artifact-1",
  "contractName": "TreasuryControls",
  "sourceName": "contracts/TreasuryControls.sol",
  "abi": [
    {
      "inputs": [],
      "stateMutability": "nonpayable",
      "type": "constructor"
    },
    {
      "anonymous": false,
      "inputs": [
        {
          "indexed": true,
          "internalType": "address",
          "name": "caller",
          "type": "address"
        },
        {
          "indexed": false,
          "internalType": "bool",
          "name": "status",
          "type": "bool"
        }
      ],
      "name": "CallerAuthorized",
      "type": "event"
    },
    {
      "anonymous": false,
      "inputs": [
        {
          "indexed": true,
          "internalType": "address",
          "name": "sender",
          "type": "address"
        },
        {
          "indexed": false,
          "internalType": "uint256",
          "name": "amount",
          "type": "uint256"
        }
      ],
      "name": "Deposit",
      "type": "event"
    },
    {
      "anonymous": false,
      "inputs": [
        {
          "indexed": false,
          "internalType": "string",
          "name": "status",
          "type": "string"
        }
      ],
      "name": "StatusUpdated",
      "type": "event"
    },
    {
      "anonymous": false,
      "inputs": [
        {
          "indexed": true,
          "internalType": "address",
          "name": "receiver",
          "type": "address"
        },
        {
          "indexed": false,
          "internalType": "uint256",
          "name": "amount",
          "type": "uint256"
        }
      ],
      "name": "Withdraw",
      "type": "event"
    },
    {
      "inputs": [
        {
          "internalType": "address",
          "name": "user",
          "type": "address"
        },
        {
          "internalType": "bool",
          "name": "status",
          "type": "bool"
        }
      ],
      "name": "authorizeCaller",
      "outputs": [],
      "stateMutability": "nonpayable",
      "type": "function"
    },
    {
      "inputs": [
        {
          "internalType": "address",
          "name": "",
          "type": "address"
        }
      ],
      "name": "authorizedCallers",
      "outputs": [
        {
          "internalType": "bool",
          "name": "",
          "type": "bool"
        }
      ],
      "stateMutability": "view",
      "type": "function"
    },
    {
      "inputs": [],
      "name": "deposit",
      "outputs": [],
      "stateMutability": "payable",
      "type": "function"
    },
    {
      "inputs": [],
      "name": "getBalance",
      "outputs": [
        {
          "internalType": "uint256",
          "name": "",
          "type": "uint256"
        }
      ],
      "stateMutability": "view",
      "type": "function"
    },
    {
      "inputs": [],
      "name": "getStatus",
      "outputs": [
        {
          "internalType": "string",
          "name": "",
          "type": "string"
        }
      ],
      "stateMutability": "view",
      "type": "function"
    },
    {
      "inputs": [],
      "name": "owner",
      "outputs": [
        {
          "internalType": "address",
          "name": "",
          "type": "address"
        }
      ],
      "stateMutability": "view",
      "type": "function"
    },
    {
      "inputs": [],
      "name": "treasuryBalance",
      "outputs": [
        {
          "internalType": "uint256",
          "name": "",
          "type": "uint256"
        }
      ],
      "stateMutability": "view",
      "type": "function"
    },
    {
      "inputs": [],
      "name": "treasuryStatus",
      "outputs": [
        {
          "internalType": "string",
          "name": "",
          "type": "string"
        }
      ],
      "stateMutability": "view",
      "type": "function"
    },
    {
      "inputs": [
        {
          "internalType": "string",
          "name": "newStatus",
          "type": "string"
        }
      ],
      "name": "updateStatus",
      "outputs": [],
      "stateMutability": "nonpayable",
      "type": "function"
    },
    {
      "inputs": [
        {
          "internalType": "address payable",
          "name": "recipient",
          "type": "address"
        },
        {
          "internalType": "uint256",
          "name": "amount",
          "type": "uint256"
        }
      ],
      "name": "withdraw",
      "outputs": [],
      "stateMutability": "nonpayable",
      "type": "function"
    },
    {
      "stateMutability": "payable",
      "type": "receive"
    }
  ],
  "bytecode": "0x60806040523480156200001157600080fd5b50336000806101000a81548173ffffffffffffffffffffffffffffffffffffffff021916908373ffffffffffffffffffffffffffffffffffffffff1602179055506040518060400160405280600b81526020017f496e697469616c697a65640000000000000000000000000000000000000000008152506002908162000098919062000319565b5062000400565b600081519050919050565b7f4e487b7100000000000000000000000000000000000000000000000000000000600052604160045260246000fd5b7f4e487b7100000000000000000000000000000000000000000000000000000000600052602260045260246000fd5b600060028204905060018216806200012157607f821691505b602082108103620001375762000136620000d9565b5b50919050565b60008190508160005260206000209050919050565b60006020601f8301049050919050565b600082821b905092915050565b600060088302620001a17fffffffffffffffffffffffffffffffffffffffffffffffffffffffffffffffff8262000162565b620001ad868362000162565b95508019841693508086168417925050509392505050565b6000819050919050565b6000819050919050565b6000620001fa620001f4620001ee84620001c5565b620001cf565b620001c5565b9050919050565b6000819050919050565b6200021683620001d9565b6200022e620002258262000201565b8484546200016f565b825550505050565b600090565b6200024562000236565b620002528184846200020b565b505050565b5b818110156200027a576200026e6000826200023b565b60018101905062000258565b5050565b601f821115620002c95762000293816200013d565b6200029e8462000152565b81016020851015620002ae578190505b620002c6620002bd8562000152565b83018262000257565b50505b505050565b600082821c905092915050565b6000620002ee60001984600802620002ce565b1980831691505092915050565b6000620003098383620002db565b9150826002028217905092915050565b62000324826200009f565b67ffffffffffffffff81111562000340576200033f620000aa565b5b6200034c825462000108565b620003598282856200027e565b600060209050601f8311600181146200039157600084156200037c578287015190505b620003888582620002fb565b865550620003f8565b601f198416620003a1866200013d565b60005b82811015620003cb57848901518255600182019150602085019450602081019050620003a4565b86831015620003eb5784890151620003e7601f891682620002db565b8355505b6001600288020188555050505b505050505050565b61125780620004106000396000f3fe6080604052600436106100955760003560e01c80638da5cb5b116100595780638da5cb5b146101ef578063d0e30db01461021a578063f3fef3a314610224578063f48fd0e01461024d578063fcc55e581461027857610103565b806312065fe0146101085780632c21599814610133578063313dab201461015c5780634e69d56014610187578063536fff6c146101b257610103565b366101035734600160008282546100ac91906108b4565b925050819055503373ffffffffffffffffffffffffffffffffffffffff167fe1fffcc4923d04b559f4d29a8bfc6cda04eb5b0d3c460751c2402c5c5cc9109c346040516100f991906108f7565b60405180910390a2005b600080fd5b34801561011457600080fd5b5061011d6102a1565b60405161012a91906108f7565b60405180910390f35b34801561013f57600080fd5b5061015a60048036038101906101559190610981565b6102ab565b005b34801561016857600080fd5b50610171610386565b60405161017e91906108f7565b60405180910390f35b34801561019357600080fd5b5061019c61038c565b6040516101a99190610a5e565b60405180910390f35b3480156101be57600080fd5b506101d960048036038101906101d49190610ade565b61041e565b6040516101e69190610b26565b60405180910390f35b3480156101fb57600080fd5b5061020461043e565b6040516102119190610b50565b60405180910390f35b610222610462565b005b34801561023057600080fd5b5061024b60048036038101906102469190610bd5565b6104cb565b005b34801561025957600080fd5b506102626106b6565b60405161026f9190610a5e565b60405180910390f35b34801561028457600080fd5b5061029f600480360381019061029a9190610c41565b610744565b005b6000600154905090565b600360003373ffffffffffffffffffffffffffffffffffffffff1673ffffffffffffffffffffffffffffffffffffffff16815260200190815260200160002060009054906101000a900460ff16610337576040517f08c379a000000000000000000000000000000000000000000000000000000000815260040161032e90610ccd565b60405180910390fd5b818160029182610348929190610f33565b507f69f380a4c820112d1c3e49f6e19e1d33c66d98a47f9c8ad3221a82b79b0bfcbc828260405161037a92919061103f565b60405180910390a15050565b60015481565b60606002805461039b90610d56565b80601f01602080910402602001604051908101604052809291908181526020018280546103c790610d56565b80156104145780601f106103e957610100808354040283529160200191610414565b820191906000526020600020905b8154815290600101906020018083116103f757829003601f168201915b5050505050905090565b60036020528060005260406000206000915054906101000a900460ff1681565b60008054906101000a900473ffffffffffffffffffffffffffffffffffffffff1681565b346001600082825461047491906108b4565b925050819055503373ffffffffffffffffffffffffffffffffffffffff167fe1fffcc4923d04b559f4d29a8bfc6cda04eb5b0d3c460751c2402c5c5cc9109c346040516104c191906108f7565b60405180910390a2565b60008054906101000a900473ffffffffffffffffffffffffffffffffffffffff1673ffffffffffffffffffffffffffffffffffffffff163373ffffffffffffffffffffffffffffffffffffffff1614610559576040517f08c379a0000000000000000000000000000000000000000000000000000000008152600401610550906110af565b60405180910390fd5b80600154101561059e576040517f08c379a00000000000000000000000000000000000000000000000000000000081526004016105959061111b565b60405180910390fd5b80600160008282546105b0919061113b565b9250508190555060008273ffffffffffffffffffffffffffffffffffffffff16826040516105dd906111a0565b60006040518083038185875af1925050503d806000811461061a576040519150601f19603f3d011682016040523d82523d6000602084013e61061f565b606091505b5050905080610663576040517f08c379a000000000000000000000000000000000000000000000000000000000815260040161065a90611201565b60405180910390fd5b8273ffffffffffffffffffffffffffffffffffffffff167f884edad9ce6fa2440d8a54cc123490eb96d2768479d49ff9c7366125a9424364836040516106a991906108f7565b60405180910390a2505050565b600280546106c390610d56565b80601f01602080910402602001604051908101604052809291908181526020018280546106ef90610d56565b801561073c5780601f106107115761010080835404028352916020019161073c565b820191906000526020600020905b81548152906001019060200180831161071f57829003601f168201915b505050505081565b60008054906101000a900473ffffffffffffffffffffffffffffffffffffffff1673ffffffffffffffffffffffffffffffffffffffff163373ffffffffffffffffffffffffffffffffffffffff16146107d2576040517f08c379a00000000000000000000000000000000000000000000000000000000081526004016107c9906110af565b60405180910390fd5b80600360008473ffffffffffffffffffffffffffffffffffffffff1673ffffffffffffffffffffffffffffffffffffffff16815260200190815260200160002060006101000a81548160ff0219169083151502179055508173ffffffffffffffffffffffffffffffffffffffff167f100c9fd652c7b273c9266f92f22ac2352eb8d7232013ac0439e9066a9227f3698260405161086f9190610b26565b60405180910390a25050565b6000819050919050565b7f4e487b7100000000000000000000000000000000000000000000000000000000600052601160045260246000fd5b60006108bf8261087b565b91506108ca8361087b565b92508282019050808211156108e2576108e1610885565b5b92915050565b6108f18161087b565b82525050565b600060208201905061090c60008301846108e8565b92915050565b600080fd5b600080fd5b600080fd5b600080fd5b600080fd5b60008083601f8401126109415761094061091c565b5b8235905067ffffffffffffffff81111561095e5761095d610921565b5b60208301915083600182028301111561097a57610979610926565b5b9250929050565b6000806020838503121561099857610997610912565b5b600083013567ffffffffffffffff8111156109b6576109b5610917565b5b6109c28582860161092b565b92509250509250929050565b600081519050919050565b600082825260208201905092915050565b60005b83811015610a085780820151818401526020810190506109ed565b60008484015250505050565b6000601f19601f8301169050919050565b6000610a30826109ce565b610a3a81856109d9565b9350610a4a8185602086016109ea565b610a5381610a14565b840191505092915050565b60006020820190508181036000830152610a788184610a25565b905092915050565b600073ffffffffffffffffffffffffffffffffffffffff82169050919050565b6000610aab82610a80565b9050919050565b610abb81610aa0565b8114610ac657600080fd5b50565b600081359050610ad881610ab2565b92915050565b600060208284031215610af457610af3610912565b5b6000610b0284828501610ac9565b91505092915050565b60008115159050919050565b610b2081610b0b565b82525050565b6000602082019050610b3b6000830184610b17565b92915050565b610b4a81610aa0565b82525050565b6000602082019050610b656000830184610b41565b92915050565b6000610b7682610a80565b9050919050565b610b8681610b6b565b8114610b9157600080fd5b50565b600081359050610ba381610b7d565b92915050565b610bb28161087b565b8114610bbd57600080fd5b50565b600081359050610bcf81610ba9565b92915050565b60008060408385031215610bec57610beb610912565b5b6000610bfa85828601610b94565b9250506020610c0b85828601610bc0565b9150509250929050565b610c1e81610b0b565b8114610c2957600080fd5b50565b600081359050610c3b81610c15565b92915050565b60008060408385031215610c5857610c57610912565b5b6000610c6685828601610ac9565b9250506020610c7785828601610c2c565b9150509250929050565b7f4e6f7420617574686f72697a6564000000000000000000000000000000000000600082015250565b6000610cb7600e836109d9565b9150610cc282610c81565b602082019050919050565b60006020820190508181036000830152610ce681610caa565b9050919050565b600082905092915050565b7f4e487b7100000000000000000000000000000000000000000000000000000000600052604160045260246000fd5b7f4e487b7100000000000000000000000000000000000000000000000000000000600052602260045260246000fd5b60006002820490506001821680610d6e57607f821691505b602082108103610d8157610d80610d27565b5b50919050565b60008190508160005260206000209050919050565b60006020601f8301049050919050565b600082821b905092915050565b600060088302610de97fffffffffffffffffffffffffffffffffffffffffffffffffffffffffffffffff82610dac565b610df38683610dac565b95508019841693508086168417925050509392505050565b6000819050919050565b6000610e30610e2b610e268461087b565b610e0b565b61087b565b9050919050565b6000819050919050565b610e4a83610e15565b610e5e610e5682610e37565b848454610db9565b825550505050565b600090565b610e73610e66565b610e7e818484610e41565b505050565b5b81811015610ea257610e97600082610e6b565b600181019050610e84565b5050565b601f821115610ee757610eb881610d87565b610ec184610d9c565b81016020851015610ed0578190505b610ee4610edc85610d9c565b830182610e83565b50505b505050565b600082821c905092915050565b6000610f0a60001984600802610eec565b1980831691505092915050565b6000610f238383610ef9565b9150826002028217905092915050565b610f3d8383610ced565b67ffffffffffffffff811115610f5657610f55610cf8565b5b610f608254610d56565b610f6b828285610ea6565b6000601f831160018114610f9a5760008415610f88578287013590505b610f928582610f17565b865550610ffa565b601f198416610fa886610d87565b60005b82811015610fd057848901358255600182019150602085019450602081019050610fab565b86831015610fed5784890135610fe9601f891682610ef9565b8355505b6001600288020188555050505b50505050505050565b82818337600083830152505050565b600061101e83856109d9565b935061102b838584611003565b61103483610a14565b840190509392505050565b6000602082019050818103600083015261105a818486611012565b90509392505050565b7f4e6f7420746865206f776e657200000000000000000000000000000000000000600082015250565b6000611099600d836109d9565b91506110a482611063565b602082019050919050565b600060208201905081810360008301526110c88161108c565b9050919050565b7f496e73756666696369656e742066756e64730000000000000000000000000000600082015250565b60006111056012836109d9565b9150611110826110cf565b602082019050919050565b60006020820190508181036000830152611134816110f8565b9050919050565b60006111468261087b565b91506111518361087b565b925082820390508181111561116957611168610885565b5b92915050565b600081905092915050565b50565b600061118a60008361116f565b91506111958261117a565b600082019050919050565b60006111ab8261117d565b9150819050919050565b7f5472616e73666572206661696c65640000000000000000000000000000000000600082015250565b60006111eb600f836109d9565b91506111f6826111b5565b602082019050919050565b6000602082019050818103600083015261121a816111de565b905091905056fea2646970667358221220a5b1bc5a7e0ff6bcfe8ad12527b27facfb52d585ffaf0a2a05cc37ba4f04621364736f6c63430008140033",
  "linkReferences": {},
  "deployedLinkReferences": {}
}