{
  "_format": "hh-sol-artifact-1",
  "contractName": "TreasuryControls",
  "sourceName": "contracts/TreasuryControls.sol",
  "abi": [
    {
      "anonymous": false,
      "inputs": [
        {
          "indexed": true,
          "internalType": "address",
          "name": "user",
          "type": "address"
        },
        {
          "indexed": false,
          "internalType": "bool",
          "name": "status",
          "type": "bool"
        }
      ],
      "name": "Authorized",
      "type": "event"
    },
    {
      "anonymous": false,
      "inputs": [
        {
          "indexed": true,
          "internalType": "address",
          "name": "from",
          "type": "address"
        },
        {
          "indexed": false,
          "internalType": "uint256",
          "name": "amount",
          "type": "uint256"
        }
      ],
      "name": "Deposit",
      "type": "event"
    },
    {
      "anonymous": false,
      "inputs": [
        {
          "indexed": true,
          "internalType": "address",
          "name": "previousOwner",
          "type": "address"
        },
        {
          "indexed": true,
          "internalType": "address",
          "name": "newOwner",
          "type": "address"
        }
      ],
      "name": "OwnershipTransferred",
      "type": "event"
    },
    {
      "anonymous": false,
      "inputs": [
        {
          "indexed": true,
          "internalType": "address",
          "name": "to",
          "type": "address"
        },
        {
          "indexed": false,
          "internalType": "uint256",
          "name": "amount",
          "type": "uint256"
        }
      ],
      "name": "Withdrawal",
      "type": "event"
    },
    {
      "inputs": [
        {
          "internalType": "address",
          "name": "user",
          "type": "address"
        },
        {
          "internalType": "bool",
          "name": "status",
          "type": "bool"
        }
      ],
      "name": "authorize",
      "outputs": [],
      "stateMutability": "nonpayable",
      "type": "function"
    },
    {
      "inputs": [
        {
          "internalType": "address",
          "name": "",
          "type": "address"
        }
      ],
      "name": "authorized",
      "outputs": [
        {
          "internalType": "bool",
          "name": "",
          "type": "bool"
        }
      ],
      "stateMutability": "view",
      "type": "function"
    },
    {
      "inputs": [],
      "name": "deposit",
      "outputs": [],
      "stateMutability": "payable",
      "type": "function"
    },
    {
      "inputs": [],
      "name": "getBalance",
      "outputs": [
        {
          "internalType": "uint256",
          "name": "",
          "type": "uint256"
        }
      ],
      "stateMutability": "view",
      "type": "function"
    },
    {
      "inputs": [],
      "name": "owner",
      "outputs": [
        {
          "internalType": "address",
          "name": "",
          "type": "address"
        }
      ],
      "stateMutability": "view",
      "type": "function"
    },
    {
      "inputs": [],
      "name": "renounceOwnership",
      "outputs": [],
      "stateMutability": "nonpayable",
      "type": "function"
    },
    {
      "inputs": [
        {
          "internalType": "address",
          "name": "newOwner",
          "type": "address"
        }
      ],
      "name": "transferOwnership",
      "outputs": [],
      "stateMutability": "nonpayable",
      "type": "function"
    },
    {
      "inputs": [
        {
          "internalType": "address payable",
          "name": "to",
          "type": "address"
        },
        {
          "internalType": "uint256",
          "name": "amount",
          "type": "uint256"
        }
      ],
      "name": "withdraw",
      "outputs": [],
      "stateMutability": "nonpayable",
      "type": "function"
    },
    {
      "stateMutability": "payable",
      "type": "receive"
    }
  ],
  "bytecode": "0x608060405234801561001057600080fd5b5061002d61002261003260201b60201c565b61003a60201b60201c565b6100fe565b600033905090565b60008060009054906101000a900473ffffffffffffffffffffffffffffffffffffffff169050816000806101000a81548173ffffffffffffffffffffffffffffffffffffffff021916908373ffffffffffffffffffffffffffffffffffffffff1602179055508173ffffffffffffffffffffffffffffffffffffffff168173ffffffffffffffffffffffffffffffffffffffff167f8be0079c531659141344cd1fd0a4f28419497f9722a3daafe3b4186f6b6457e060405160405180910390a35050565b610b378061010d6000396000f3fe60806040526004361061007f5760003560e01c8063b91816111161004e578063b91816111461016f578063d0e30db0146101ac578063f2fde38b146101b6578063f3fef3a3146101df576100d4565b806312065fe0146100d95780632d1fb38914610104578063715018a61461012d5780638da5cb5b14610144576100d4565b366100d4573373ffffffffffffffffffffffffffffffffffffffff167fe1fffcc4923d04b559f4d29a8bfc6cda04eb5b0d3c460751c2402c5c5cc9109c346040516100ca91906106f9565b60405180910390a2005b600080fd5b3480156100e557600080fd5b506100ee610208565b6040516100fb91906106f9565b60405180910390f35b34801561011057600080fd5b5061012b600480360381019061012691906107af565b610210565b005b34801561013957600080fd5b506101426102c1565b005b34801561015057600080fd5b506101596102d5565b60405161016691906107fe565b60405180910390f35b34801561017b57600080fd5b5061019660048036038101906101919190610819565b6102fe565b6040516101a39190610855565b60405180910390f35b6101b461031e565b005b3480156101c257600080fd5b506101dd60048036038101906101d89190610819565b61036e565b005b3480156101eb57600080fd5b50610206600480360381019061020191906108da565b6103f1565b005b600047905090565b610218610596565b80600160008473ffffffffffffffffffffffffffffffffffffffff1673ffffffffffffffffffffffffffffffffffffffff16815260200190815260200160002060006101000a81548160ff0219169083151502179055508173ffffffffffffffffffffffffffffffffffffffff167f4c0079b9bcd37cd5d29a13938effd97c881798cbc6bd52a3026a29d94b27d1bf826040516102b59190610855565b60405180910390a25050565b6102c9610596565b6102d36000610614565b565b60008060009054906101000a900473ffffffffffffffffffffffffffffffffffffffff16905090565b60016020528060005260406000206000915054906101000a900460ff1681565b3373ffffffffffffffffffffffffffffffffffffffff167fe1fffcc4923d04b559f4d29a8bfc6cda04eb5b0d3c460751c2402c5c5cc9109c3460405161036491906106f9565b60405180910390a2565b610376610596565b600073ffffffffffffffffffffffffffffffffffffffff168173ffffffffffffffffffffffffffffffffffffffff16036103e5576040517f08c379a00000000000000000000000000000000000000000000000000000000081526004016103dc9061099d565b60405180910390fd5b6103ee81610614565b50565b600160003373ffffffffffffffffffffffffffffffffffffffff1673ffffffffffffffffffffffffffffffffffffffff16815260200190815260200160002060009054906101000a900460ff168061047b57503373ffffffffffffffffffffffffffffffffffffffff166104636102d5565b73ffffffffffffffffffffffffffffffffffffffff16145b6104ba576040517f08c379a00000000000000000000000000000000000000000000000000000000081526004016104b190610a09565b60405180910390fd5b804710156104fd576040517f08c379a00000000000000000000000000000000000000000000000000000000081526004016104f490610a75565b60405180910390fd5b8173ffffffffffffffffffffffffffffffffffffffff166108fc829081150290604051600060405180830381858888f19350505050158015610543573d6000803e3d6000fd5b508173ffffffffffffffffffffffffffffffffffffffff167f7fcf532c15f0a6db0bd6d0e038bea71d30d808c7d98cb3bf7268a95bf5081b658260405161058a91906106f9565b60405180910390a25050565b61059e6106d8565b73ffffffffffffffffffffffffffffffffffffffff166105bc6102d5565b73ffffffffffffffffffffffffffffffffffffffff1614610612576040517f08c379a000000000000000000000000000000000000000000000000000000000815260040161060990610ae1565b60405180910390fd5b565b60008060009054906101000a900473ffffffffffffffffffffffffffffffffffffffff169050816000806101000a81548173ffffffffffffffffffffffffffffffffffffffff021916908373ffffffffffffffffffffffffffffffffffffffff1602179055508173ffffffffffffffffffffffffffffffffffffffff168173ffffffffffffffffffffffffffffffffffffffff167f8be0079c531659141344cd1fd0a4f28419497f9722a3daafe3b4186f6b6457e060405160405180910390a35050565b600033905090565b6000819050919050565b6106f3816106e0565b82525050565b600060208201905061070e60008301846106ea565b92915050565b600080fd5b600073ffffffffffffffffffffffffffffffffffffffff82169050919050565b600061074482610719565b9050919050565b61075481610739565b811461075f57600080fd5b50565b6000813590506107718161074b565b92915050565b60008115159050919050565b61078c81610777565b811461079757600080fd5b50565b6000813590506107a981610783565b92915050565b600080604083850312156107c6576107c5610714565b5b60006107d485828601610762565b92505060206107e58582860161079a565b9150509250929050565b6107f881610739565b82525050565b600060208201905061081360008301846107ef565b92915050565b60006020828403121561082f5761082e610714565b5b600061083d84828501610762565b91505092915050565b61084f81610777565b82525050565b600060208201905061086a6000830184610846565b92915050565b600061087b82610719565b9050919050565b61088b81610870565b811461089657600080fd5b50565b6000813590506108a881610882565b92915050565b6108b7816106e0565b81146108c257600080fd5b50565b6000813590506108d4816108ae565b92915050565b600080604083850312156108f1576108f0610714565b5b60006108ff85828601610899565b9250506020610910858286016108c5565b9150509250929050565b600082825260208201905092915050565b7f4f776e61626c653a206e6577206f776e657220697320746865207a65726f206160008201527f6464726573730000000000000000000000000000000000000000000000000000602082015250565b600061098760268361091a565b91506109928261092b565b604082019050919050565b600060208201905081810360008301526109b68161097a565b9050919050565b7f4e6f7420617574686f72697a6564000000000000000000000000000000000000600082015250565b60006109f3600e8361091a565b91506109fe826109bd565b602082019050919050565b60006020820190508181036000830152610a22816109e6565b9050919050565b7f496e73756666696369656e742062616c616e6365000000000000000000000000600082015250565b6000610a5f60148361091a565b9150610a6a82610a29565b602082019050919050565b60006020820190508181036000830152610a8e81610a52565b9050919050565b7f4f776e61626c653a2063616c6c6572206973206e6f7420746865206f776e6572600082015250565b6000610acb60208361091a565b9150610ad682610a95565b602082019050919050565b60006020820190508181036000830152610afa81610abe565b905091905056fea264697066735822122024c53105a798fd9963f9ca923d5bdd758c00fc51aa4f8b41a1e037ea5e3766f764736f6c63430008140033",
  "linkReferences": {},
  "deployedLinkReferences": {}
}