{
  "_format": "hh-sol-artifact-1",
  "contractName": "Lock",
  "sourceName": "contracts/Lock.sol",
  "abi": [
    {
      "inputs": [
        {
          "internalType": "address",
          "name": "_token",
          "type": "address"
        },
        {
          "internalType": "uint256",
          "name": "_unlockTime",
          "type": "uint256"
        }
      ],
      "stateMutability": "nonpayable",
      "type": "constructor"
    },
    {
      "anonymous": false,
      "inputs": [
        {
          "indexed": true,
          "internalType": "address",
          "name": "previousOwner",
          "type": "address"
        },
        {
          "indexed": true,
          "internalType": "address",
          "name": "newOwner",
          "type": "address"
        }
      ],
      "name": "OwnershipTransferred",
      "type": "event"
    },
    {
      "anonymous": false,
      "inputs": [
        {
          "indexed": false,
          "internalType": "address",
          "name": "to",
          "type": "address"
        },
        {
          "indexed": false,
          "internalType": "uint256",
          "name": "amount",
          "type": "uint256"
        }
      ],
      "name": "TokensWithdrawn",
      "type": "event"
    },
    {
      "anonymous": false,
      "inputs": [
        {
          "indexed": false,
          "internalType": "uint256",
          "name": "newTime",
          "type": "uint256"
        }
      ],
      "name": "UnlockTimeUpdated",
      "type": "event"
    },
    {
      "inputs": [],
      "name": "lockedBalance",
      "outputs": [
        {
          "internalType": "uint256",
          "name": "",
          "type": "uint256"
        }
      ],
      "stateMutability": "view",
      "type": "function"
    },
    {
      "inputs": [],
      "name": "owner",
      "outputs": [
        {
          "internalType": "address",
          "name": "",
          "type": "address"
        }
      ],
      "stateMutability": "view",
      "type": "function"
    },
    {
      "inputs": [],
      "name": "renounceOwnership",
      "outputs": [],
      "stateMutability": "nonpayable",
      "type": "function"
    },
    {
      "inputs": [],
      "name": "token",
      "outputs": [
        {
          "internalType": "contract IERC20",
          "name": "",
          "type": "address"
        }
      ],
      "stateMutability": "view",
      "type": "function"
    },
    {
      "inputs": [
        {
          "internalType": "address",
          "name": "newOwner",
          "type": "address"
        }
      ],
      "name": "transferOwnership",
      "outputs": [],
      "stateMutability": "nonpayable",
      "type": "function"
    },
    {
      "inputs": [],
      "name": "unlockTime",
      "outputs": [
        {
          "internalType": "uint256",
          "name": "",
          "type": "uint256"
        }
      ],
      "stateMutability": "view",
      "type": "function"
    },
    {
      "inputs": [
        {
          "internalType": "uint256",
          "name": "newUnlockTime",
          "type": "uint256"
        }
      ],
      "name": "updateUnlockTime",
      "outputs": [],
      "stateMutability": "nonpayable",
      "type": "function"
    },
    {
      "inputs": [
        {
          "internalType": "uint256",
          "name": "amount",
          "type": "uint256"
        }
      ],
      "name": "withdraw",
      "outputs": [],
      "stateMutability": "nonpayable",
      "type": "function"
    }
  ],
  "bytecode": "0x60a06040523480156200001157600080fd5b5060405162000f3c38038062000f3c833981810160405281019062000037919062000250565b620000576200004b620000df60201b60201c565b620000e760201b60201c565b4281116200009c576040517f08c379a00000000000000000000000000000000000000000000000000000000081526004016200009390620002f8565b60405180910390fd5b8173ffffffffffffffffffffffffffffffffffffffff1660808173ffffffffffffffffffffffffffffffffffffffff16815250508060018190555050506200031a565b600033905090565b60008060009054906101000a900473ffffffffffffffffffffffffffffffffffffffff169050816000806101000a81548173ffffffffffffffffffffffffffffffffffffffff021916908373ffffffffffffffffffffffffffffffffffffffff1602179055508173ffffffffffffffffffffffffffffffffffffffff168173ffffffffffffffffffffffffffffffffffffffff167f8be0079c531659141344cd1fd0a4f28419497f9722a3daafe3b4186f6b6457e060405160405180910390a35050565b600080fd5b600073ffffffffffffffffffffffffffffffffffffffff82169050919050565b6000620001dd82620001b0565b9050919050565b620001ef81620001d0565b8114620001fb57600080fd5b50565b6000815190506200020f81620001e4565b92915050565b6000819050919050565b6200022a8162000215565b81146200023657600080fd5b50565b6000815190506200024a816200021f565b92915050565b600080604083850312156200026a5762000269620001ab565b5b60006200027a85828601620001fe565b92505060206200028d8582860162000239565b9150509250929050565b600082825260208201905092915050565b7f556e6c6f636b2074696d65206d75737420626520696e20667574757265000000600082015250565b6000620002e0601d8362000297565b9150620002ed82620002a8565b602082019050919050565b600060208201905081810360008301526200031381620002d1565b9050919050565b608051610bf16200034b600039600081816101b90152818161029401528181610393015261056b0152610bf16000f3fe608060405234801561001057600080fd5b50600436106100885760003560e01c80638da5cb5b1161005b5780638da5cb5b146100ef5780638f5dd49b1461010d578063f2fde38b14610129578063fc0c546a1461014557610088565b8063251c1aa31461008d5780632e1a7d4d146100ab578063715018a6146100c75780637b80889b146100d1575b600080fd5b610095610163565b6040516100a291906106f0565b60405180910390f35b6100c560048036038101906100c0919061073c565b610169565b005b6100cf61037b565b005b6100d961038f565b6040516100e691906106f0565b60405180910390f35b6100f7610430565b60405161010491906107aa565b60405180910390f35b6101276004803603810190610122919061073c565b610459565b005b610143600480360381019061013e91906107f1565b6104e6565b005b61014d610569565b60405161015a919061087d565b60405180910390f35b60015481565b61017161058d565b6001544210156101b6576040517f08c379a00000000000000000000000000000000000000000000000000000000081526004016101ad906108f5565b60405180910390fd5b807f000000000000000000000000000000000000000000000000000000000000000073ffffffffffffffffffffffffffffffffffffffff166370a08231306040518263ffffffff1660e01b815260040161021091906107aa565b602060405180830381865afa15801561022d573d6000803e3d6000fd5b505050506040513d601f19601f82011682018060405250810190610251919061092a565b1015610292576040517f08c379a0000000000000000000000000000000000000000000000000000000008152600401610289906109a3565b60405180910390fd5b7f000000000000000000000000000000000000000000000000000000000000000073ffffffffffffffffffffffffffffffffffffffff1663a9059cbb6102d6610430565b836040518363ffffffff1660e01b81526004016102f49291906109c3565b6020604051808303816000875af1158015610313573d6000803e3d6000fd5b505050506040513d601f19601f820116820180604052508101906103379190610a24565b507f6352c5382c4a4578e712449ca65e83cdb392d045dfcf1cad9615189db2da244b610361610430565b826040516103709291906109c3565b60405180910390a150565b61038361058d565b61038d600061060b565b565b60007f000000000000000000000000000000000000000000000000000000000000000073ffffffffffffffffffffffffffffffffffffffff166370a08231306040518263ffffffff1660e01b81526004016103ea91906107aa565b602060405180830381865afa158015610407573d6000803e3d6000fd5b505050506040513d601f19601f8201168201806040525081019061042b919061092a565b905090565b60008060009054906101000a900473ffffffffffffffffffffffffffffffffffffffff16905090565b61046161058d565b60015481116104a5576040517f08c379a000000000000000000000000000000000000000000000000000000000815260040161049c90610a9d565b60405180910390fd5b806001819055507f6669a6c779a56629103733bcba993d66b30b061559b41f3c64bd2661cd9ea3c1816040516104db91906106f0565b60405180910390a150565b6104ee61058d565b600073ffffffffffffffffffffffffffffffffffffffff168173ffffffffffffffffffffffffffffffffffffffff160361055d576040517f08c379a000000000000000000000000000000000000000000000000000000000815260040161055490610b2f565b60405180910390fd5b6105668161060b565b50565b7f000000000000000000000000000000000000000000000000000000000000000081565b6105956106cf565b73ffffffffffffffffffffffffffffffffffffffff166105b3610430565b73ffffffffffffffffffffffffffffffffffffffff1614610609576040517f08c379a000000000000000000000000000000000000000000000000000000000815260040161060090610b9b565b60405180910390fd5b565b60008060009054906101000a900473ffffffffffffffffffffffffffffffffffffffff169050816000806101000a81548173ffffffffffffffffffffffffffffffffffffffff021916908373ffffffffffffffffffffffffffffffffffffffff1602179055508173ffffffffffffffffffffffffffffffffffffffff168173ffffffffffffffffffffffffffffffffffffffff167f8be0079c531659141344cd1fd0a4f28419497f9722a3daafe3b4186f6b6457e060405160405180910390a35050565b600033905090565b6000819050919050565b6106ea816106d7565b82525050565b600060208201905061070560008301846106e1565b92915050565b600080fd5b610719816106d7565b811461072457600080fd5b50565b60008135905061073681610710565b92915050565b6000602082840312156107525761075161070b565b5b600061076084828501610727565b91505092915050565b600073ffffffffffffffffffffffffffffffffffffffff82169050919050565b600061079482610769565b9050919050565b6107a481610789565b82525050565b60006020820190506107bf600083018461079b565b92915050565b6107ce81610789565b81146107d957600080fd5b50565b6000813590506107eb816107c5565b92915050565b6000602082840312156108075761080661070b565b5b6000610815848285016107dc565b91505092915050565b6000819050919050565b600061084361083e61083984610769565b61081e565b610769565b9050919050565b600061085582610828565b9050919050565b60006108678261084a565b9050919050565b6108778161085c565b82525050565b6000602082019050610892600083018461086e565b92915050565b600082825260208201905092915050565b7f546f6b656e7320617265206c6f636b6564000000000000000000000000000000600082015250565b60006108df601183610898565b91506108ea826108a9565b602082019050919050565b6000602082019050818103600083015261090e816108d2565b9050919050565b60008151905061092481610710565b92915050565b6000602082840312156109405761093f61070b565b5b600061094e84828501610915565b91505092915050565b7f496e73756666696369656e742062616c616e6365000000000000000000000000600082015250565b600061098d601483610898565b915061099882610957565b602082019050919050565b600060208201905081810360008301526109bc81610980565b9050919050565b60006040820190506109d8600083018561079b565b6109e560208301846106e1565b9392505050565b60008115159050919050565b610a01816109ec565b8114610a0c57600080fd5b50565b600081519050610a1e816109f8565b92915050565b600060208284031215610a3a57610a3961070b565b5b6000610a4884828501610a0f565b91505092915050565b7f4e65772074696d65206d757374206265206c6174657200000000000000000000600082015250565b6000610a87601683610898565b9150610a9282610a51565b602082019050919050565b60006020820190508181036000830152610ab681610a7a565b9050919050565b7f4f776e61626c653a206e6577206f776e657220697320746865207a65726f206160008201527f6464726573730000000000000000000000000000000000000000000000000000602082015250565b6000610b19602683610898565b9150610b2482610abd565b604082019050919050565b60006020820190508181036000830152610b4881610b0c565b9050919050565b7f4f776e61626c653a2063616c6c6572206973206e6f7420746865206f776e6572600082015250565b6000610b85602083610898565b9150610b9082610b4f565b602082019050919050565b60006020820190508181036000830152610bb481610b78565b905091905056fea2646970667358221220c15bfe52522b7d096ed79c9d08283a6614a4e3d7a12c8dcca9288dcd8fce2f6764736f6c63430008140033",
  "linkReferences": {},
  "deployedLinkReferences": {}
}